{
	".git/calculas.sol": {
		"ScientificCalculator": {
			"abi": [
				{
					"inputs": [
						{
							"internalType": "uint256",
							"name": "a",
							"type": "uint256"
						},
						{
							"internalType": "uint256",
							"name": "b",
							"type": "uint256"
						}
					],
					"name": "add",
					"outputs": [
						{
							"internalType": "uint256",
							"name": "",
							"type": "uint256"
						}
					],
					"stateMutability": "pure",
					"type": "function"
				},
				{
					"inputs": [
						{
							"internalType": "uint256",
							"name": "a",
							"type": "uint256"
						},
						{
							"internalType": "uint256",
							"name": "b",
							"type": "uint256"
						}
					],
					"name": "divide",
					"outputs": [
						{
							"internalType": "uint256",
							"name": "",
							"type": "uint256"
						}
					],
					"stateMutability": "pure",
					"type": "function"
				},
				{
					"inputs": [
						{
							"internalType": "uint256",
							"name": "n",
							"type": "uint256"
						}
					],
					"name": "factorial",
					"outputs": [
						{
							"internalType": "uint256",
							"name": "",
							"type": "uint256"
						}
					],
					"stateMutability": "pure",
					"type": "function"
				},
				{
					"inputs": [
						{
							"internalType": "uint256",
							"name": "a",
							"type": "uint256"
						},
						{
							"internalType": "uint256",
							"name": "b",
							"type": "uint256"
						}
					],
					"name": "modulus",
					"outputs": [
						{
							"internalType": "uint256",
							"name": "",
							"type": "uint256"
						}
					],
					"stateMutability": "pure",
					"type": "function"
				},
				{
					"inputs": [
						{
							"internalType": "uint256",
							"name": "a",
							"type": "uint256"
						},
						{
							"internalType": "uint256",
							"name": "b",
							"type": "uint256"
						}
					],
					"name": "multiply",
					"outputs": [
						{
							"internalType": "uint256",
							"name": "",
							"type": "uint256"
						}
					],
					"stateMutability": "pure",
					"type": "function"
				},
				{
					"inputs": [
						{
							"internalType": "uint256",
							"name": "base",
							"type": "uint256"
						},
						{
							"internalType": "uint256",
							"name": "exponent",
							"type": "uint256"
						}
					],
					"name": "power",
					"outputs": [
						{
							"internalType": "uint256",
							"name": "",
							"type": "uint256"
						}
					],
					"stateMutability": "pure",
					"type": "function"
				},
				{
					"inputs": [
						{
							"internalType": "uint256",
							"name": "x",
							"type": "uint256"
						}
					],
					"name": "sqrt",
					"outputs": [
						{
							"internalType": "uint256",
							"name": "",
							"type": "uint256"
						}
					],
					"stateMutability": "pure",
					"type": "function"
				},
				{
					"inputs": [
						{
							"internalType": "uint256",
							"name": "a",
							"type": "uint256"
						},
						{
							"internalType": "uint256",
							"name": "b",
							"type": "uint256"
						}
					],
					"name": "subtract",
					"outputs": [
						{
							"internalType": "uint256",
							"name": "",
							"type": "uint256"
						}
					],
					"stateMutability": "pure",
					"type": "function"
				}
			],
			"devdoc": {
				"kind": "dev",
				"methods": {},
				"version": 1
			},
			"evm": {
				"assembly": "    /* \".git/calculas.sol\":61:1747  contract ScientificCalculator {... */\n  mstore(0x40, 0x80)\n  callvalue\n  dup1\n  iszero\n  tag_1\n  jumpi\n  revert(0x00, 0x00)\ntag_1:\n  pop\n  dataSize(sub_0)\n  dup1\n  dataOffset(sub_0)\n  0x00\n  codecopy\n  0x00\n  return\nstop\n\nsub_0: assembly {\n        /* \".git/calculas.sol\":61:1747  contract ScientificCalculator {... */\n      mstore(0x40, 0x80)\n      callvalue\n      dup1\n      iszero\n      tag_1\n      jumpi\n      revert(0x00, 0x00)\n    tag_1:\n      pop\n      jumpi(tag_2, lt(calldatasize, 0x04))\n      shr(0xe0, calldataload(0x00))\n      dup1\n      0x83714834\n      gt\n      tag_11\n      jumpi\n      dup1\n      0x83714834\n      eq\n      tag_7\n      jumpi\n      dup1\n      0xc04f01fc\n      eq\n      tag_8\n      jumpi\n      dup1\n      0xce406417\n      eq\n      tag_9\n      jumpi\n      dup1\n      0xf88e9fbf\n      eq\n      tag_10\n      jumpi\n      jump(tag_2)\n    tag_11:\n      dup1\n      0x165c4a16\n      eq\n      tag_3\n      jumpi\n      dup1\n      0x3ef5e445\n      eq\n      tag_4\n      jumpi\n      dup1\n      0x677342ce\n      eq\n      tag_5\n      jumpi\n      dup1\n      0x771602f7\n      eq\n      tag_6\n      jumpi\n    tag_2:\n      revert(0x00, 0x00)\n        /* \".git/calculas.sol\":427:528  function multiply(uint256 a, uint256 b) public pure returns (uint256) {... */\n    tag_3:\n      tag_12\n      0x04\n      dup1\n      calldatasize\n      sub\n      dup2\n      add\n      swap1\n      tag_13\n      swap2\n      swap1\n      tag_14\n      jump\t// in\n    tag_13:\n      tag_15\n      jump\t// in\n    tag_12:\n      mload(0x40)\n      tag_16\n      swap2\n      swap1\n      tag_17\n      jump\t// in\n    tag_16:\n      mload(0x40)\n      dup1\n      swap2\n      sub\n      swap1\n      return\n        /* \".git/calculas.sol\":241:396  function subtract(uint256 a, uint256 b) public pure returns (uint256) {... */\n    tag_4:\n      tag_18\n      0x04\n      dup1\n      calldatasize\n      sub\n      dup2\n      add\n      swap1\n      tag_19\n      swap2\n      swap1\n      tag_14\n      jump\t// in\n    tag_19:\n      tag_20\n      jump\t// in\n    tag_18:\n      mload(0x40)\n      tag_21\n      swap2\n      swap1\n      tag_17\n      jump\t// in\n    tag_21:\n      mload(0x40)\n      dup1\n      swap2\n      sub\n      swap1\n      return\n        /* \".git/calculas.sol\":1474:1741  function sqrt(uint256 x) public pure returns (uint256) {... */\n    tag_5:\n      tag_22\n      0x04\n      dup1\n      calldatasize\n      sub\n      dup2\n      add\n      swap1\n      tag_23\n      swap2\n      swap1\n      tag_24\n      jump\t// in\n    tag_23:\n      tag_25\n      jump\t// in\n    tag_22:\n      mload(0x40)\n      tag_26\n      swap2\n      swap1\n      tag_17\n      jump\t// in\n    tag_26:\n      mload(0x40)\n      dup1\n      swap2\n      sub\n      swap1\n      return\n        /* \".git/calculas.sol\":117:213  function add(uint256 a, uint256 b) public pure returns (uint256) {... */\n    tag_6:\n      tag_27\n      0x04\n      dup1\n      calldatasize\n      sub\n      dup2\n      add\n      swap1\n      tag_28\n      swap2\n      swap1\n      tag_14\n      jump\t// in\n    tag_28:\n      tag_29\n      jump\t// in\n    tag_27:\n      mload(0x40)\n      tag_30\n      swap2\n      swap1\n      tag_17\n      jump\t// in\n    tag_30:\n      mload(0x40)\n      dup1\n      swap2\n      sub\n      swap1\n      return\n        /* \".git/calculas.sol\":1164:1418  function factorial(uint256 n) public pure returns (uint256) {... */\n    tag_7:\n      tag_31\n      0x04\n      dup1\n      calldatasize\n      sub\n      dup2\n      add\n      swap1\n      tag_32\n      swap2\n      swap1\n      tag_24\n      jump\t// in\n    tag_32:\n      tag_33\n      jump\t// in\n    tag_31:\n      mload(0x40)\n      tag_34\n      swap2\n      swap1\n      tag_17\n      jump\t// in\n    tag_34:\n      mload(0x40)\n      dup1\n      swap2\n      sub\n      swap1\n      return\n        /* \".git/calculas.sol\":906:1138  function power(uint256 base, uint256 exponent) public pure returns (uint256) {... */\n    tag_8:\n      tag_35\n      0x04\n      dup1\n      calldatasize\n      sub\n      dup2\n      add\n      swap1\n      tag_36\n      swap2\n      swap1\n      tag_14\n      jump\t// in\n    tag_36:\n      tag_37\n      jump\t// in\n    tag_35:\n      mload(0x40)\n      tag_38\n      swap2\n      swap1\n      tag_17\n      jump\t// in\n    tag_38:\n      mload(0x40)\n      dup1\n      swap2\n      sub\n      swap1\n      return\n        /* \".git/calculas.sol\":727:878  function modulus(uint256 a, uint256 b) public pure returns (uint256) {... */\n    tag_9:\n      tag_39\n      0x04\n      dup1\n      calldatasize\n      sub\n      dup2\n      add\n      swap1\n      tag_40\n      swap2\n      swap1\n      tag_14\n      jump\t// in\n    tag_40:\n      tag_41\n      jump\t// in\n    tag_39:\n      mload(0x40)\n      tag_42\n      swap2\n      swap1\n      tag_17\n      jump\t// in\n    tag_42:\n      mload(0x40)\n      dup1\n      swap2\n      sub\n      swap1\n      return\n        /* \".git/calculas.sol\":553:703  function divide(uint256 a, uint256 b) public pure returns (uint256) {... */\n    tag_10:\n      tag_43\n      0x04\n      dup1\n      calldatasize\n      sub\n      dup2\n      add\n      swap1\n      tag_44\n      swap2\n      swap1\n      tag_14\n      jump\t// in\n    tag_44:\n      tag_45\n      jump\t// in\n    tag_43:\n      mload(0x40)\n      tag_46\n      swap2\n      swap1\n      tag_17\n      jump\t// in\n    tag_46:\n      mload(0x40)\n      dup1\n      swap2\n      sub\n      swap1\n      return\n        /* \".git/calculas.sol\":427:528  function multiply(uint256 a, uint256 b) public pure returns (uint256) {... */\n    tag_15:\n        /* \".git/calculas.sol\":488:495  uint256 */\n      0x00\n        /* \".git/calculas.sol\":519:520  b */\n      dup2\n        /* \".git/calculas.sol\":515:516  a */\n      dup4\n        /* \".git/calculas.sol\":515:520  a * b */\n      tag_48\n      swap2\n      swap1\n      tag_49\n      jump\t// in\n    tag_48:\n        /* \".git/calculas.sol\":508:520  return a * b */\n      swap1\n      pop\n        /* \".git/calculas.sol\":427:528  function multiply(uint256 a, uint256 b) public pure returns (uint256) {... */\n      swap3\n      swap2\n      pop\n      pop\n      jump\t// out\n        /* \".git/calculas.sol\":241:396  function subtract(uint256 a, uint256 b) public pure returns (uint256) {... */\n    tag_20:\n        /* \".git/calculas.sol\":302:309  uint256 */\n      0x00\n        /* \".git/calculas.sol\":335:336  b */\n      dup2\n        /* \".git/calculas.sol\":330:331  a */\n      dup4\n        /* \".git/calculas.sol\":330:336  a >= b */\n      lt\n      iszero\n        /* \".git/calculas.sol\":322:365  require(a >= b, \"Result would be negative\") */\n      tag_51\n      jumpi\n      mload(0x40)\n      0x08c379a000000000000000000000000000000000000000000000000000000000\n      dup2\n      mstore\n      0x04\n      add\n      tag_52\n      swap1\n      tag_53\n      jump\t// in\n    tag_52:\n      mload(0x40)\n      dup1\n      swap2\n      sub\n      swap1\n      revert\n    tag_51:\n        /* \".git/calculas.sol\":387:388  b */\n      dup2\n        /* \".git/calculas.sol\":383:384  a */\n      dup4\n        /* \".git/calculas.sol\":383:388  a - b */\n      tag_54\n      swap2\n      swap1\n      tag_55\n      jump\t// in\n    tag_54:\n        /* \".git/calculas.sol\":376:388  return a - b */\n      swap1\n      pop\n        /* \".git/calculas.sol\":241:396  function subtract(uint256 a, uint256 b) public pure returns (uint256) {... */\n      swap3\n      swap2\n      pop\n      pop\n      jump\t// out\n        /* \".git/calculas.sol\":1474:1741  function sqrt(uint256 x) public pure returns (uint256) {... */\n    tag_25:\n        /* \".git/calculas.sol\":1520:1527  uint256 */\n      0x00\n        /* \".git/calculas.sol\":1549:1550  0 */\n      0x00\n        /* \".git/calculas.sol\":1544:1545  x */\n      dup3\n        /* \".git/calculas.sol\":1544:1550  x == 0 */\n      sub\n        /* \".git/calculas.sol\":1540:1560  if (x == 0) return 0 */\n      tag_57\n      jumpi\n        /* \".git/calculas.sol\":1559:1560  0 */\n      0x00\n        /* \".git/calculas.sol\":1552:1560  return 0 */\n      swap1\n      pop\n      jump(tag_56)\n        /* \".git/calculas.sol\":1540:1560  if (x == 0) return 0 */\n    tag_57:\n        /* \".git/calculas.sol\":1573:1582  uint256 z */\n      0x00\n        /* \".git/calculas.sol\":1595:1596  2 */\n      0x02\n        /* \".git/calculas.sol\":1590:1591  1 */\n      0x01\n        /* \".git/calculas.sol\":1586:1587  x */\n      dup5\n        /* \".git/calculas.sol\":1586:1591  x + 1 */\n      tag_58\n      swap2\n      swap1\n      tag_59\n      jump\t// in\n    tag_58:\n        /* \".git/calculas.sol\":1585:1596  (x + 1) / 2 */\n      tag_60\n      swap2\n      swap1\n      tag_61\n      jump\t// in\n    tag_60:\n        /* \".git/calculas.sol\":1573:1596  uint256 z = (x + 1) / 2 */\n      swap1\n      pop\n        /* \".git/calculas.sol\":1607:1616  uint256 y */\n      0x00\n        /* \".git/calculas.sol\":1619:1620  x */\n      dup4\n        /* \".git/calculas.sol\":1607:1620  uint256 y = x */\n      swap1\n      pop\n        /* \".git/calculas.sol\":1633:1713  while (z < y) {... */\n    tag_62:\n        /* \".git/calculas.sol\":1644:1645  y */\n      dup1\n        /* \".git/calculas.sol\":1640:1641  z */\n      dup3\n        /* \".git/calculas.sol\":1640:1645  z < y */\n      lt\n        /* \".git/calculas.sol\":1633:1713  while (z < y) {... */\n      iszero\n      tag_63\n      jumpi\n        /* \".git/calculas.sol\":1666:1667  z */\n      dup2\n        /* \".git/calculas.sol\":1662:1667  y = z */\n      swap1\n      pop\n        /* \".git/calculas.sol\":1700:1701  2 */\n      0x02\n        /* \".git/calculas.sol\":1695:1696  z */\n      dup3\n        /* \".git/calculas.sol\":1691:1692  z */\n      dup4\n        /* \".git/calculas.sol\":1687:1688  x */\n      dup7\n        /* \".git/calculas.sol\":1687:1692  x / z */\n      tag_64\n      swap2\n      swap1\n      tag_61\n      jump\t// in\n    tag_64:\n        /* \".git/calculas.sol\":1687:1696  x / z + z */\n      tag_65\n      swap2\n      swap1\n      tag_59\n      jump\t// in\n    tag_65:\n        /* \".git/calculas.sol\":1686:1701  (x / z + z) / 2 */\n      tag_66\n      swap2\n      swap1\n      tag_61\n      jump\t// in\n    tag_66:\n        /* \".git/calculas.sol\":1682:1701  z = (x / z + z) / 2 */\n      swap2\n      pop\n        /* \".git/calculas.sol\":1633:1713  while (z < y) {... */\n      jump(tag_62)\n    tag_63:\n        /* \".git/calculas.sol\":1732:1733  y */\n      dup1\n        /* \".git/calculas.sol\":1725:1733  return y */\n      swap3\n      pop\n      pop\n      pop\n        /* \".git/calculas.sol\":1474:1741  function sqrt(uint256 x) public pure returns (uint256) {... */\n    tag_56:\n      swap2\n      swap1\n      pop\n      jump\t// out\n        /* \".git/calculas.sol\":117:213  function add(uint256 a, uint256 b) public pure returns (uint256) {... */\n    tag_29:\n        /* \".git/calculas.sol\":173:180  uint256 */\n      0x00\n        /* \".git/calculas.sol\":204:205  b */\n      dup2\n        /* \".git/calculas.sol\":200:201  a */\n      dup4\n        /* \".git/calculas.sol\":200:205  a + b */\n      tag_68\n      swap2\n      swap1\n      tag_59\n      jump\t// in\n    tag_68:\n        /* \".git/calculas.sol\":193:205  return a + b */\n      swap1\n      pop\n        /* \".git/calculas.sol\":117:213  function add(uint256 a, uint256 b) public pure returns (uint256) {... */\n      swap3\n      swap2\n      pop\n      pop\n      jump\t// out\n        /* \".git/calculas.sol\":1164:1418  function factorial(uint256 n) public pure returns (uint256) {... */\n    tag_33:\n        /* \".git/calculas.sol\":1215:1222  uint256 */\n      0x00\n        /* \".git/calculas.sol\":1248:1250  20 */\n      0x14\n        /* \".git/calculas.sol\":1243:1244  n */\n      dup3\n        /* \".git/calculas.sol\":1243:1250  n <= 20 */\n      gt\n      iszero\n        /* \".git/calculas.sol\":1235:1270  require(n <= 20, \"Input too large\") */\n      tag_70\n      jumpi\n      mload(0x40)\n      0x08c379a000000000000000000000000000000000000000000000000000000000\n      dup2\n      mstore\n      0x04\n      add\n      tag_71\n      swap1\n      tag_72\n      jump\t// in\n    tag_71:\n      mload(0x40)\n      dup1\n      swap2\n      sub\n      swap1\n      revert\n    tag_70:\n        /* \".git/calculas.sol\":1283:1297  uint256 result */\n      0x00\n        /* \".git/calculas.sol\":1300:1301  1 */\n      0x01\n        /* \".git/calculas.sol\":1283:1301  uint256 result = 1 */\n      swap1\n      pop\n        /* \".git/calculas.sol\":1319:1328  uint256 i */\n      0x00\n        /* \".git/calculas.sol\":1331:1332  2 */\n      0x02\n        /* \".git/calculas.sol\":1319:1332  uint256 i = 2 */\n      swap1\n      pop\n        /* \".git/calculas.sol\":1314:1385  for (uint256 i = 2; i <= n; i++) {... */\n    tag_73:\n        /* \".git/calculas.sol\":1339:1340  n */\n      dup4\n        /* \".git/calculas.sol\":1334:1335  i */\n      dup2\n        /* \".git/calculas.sol\":1334:1340  i <= n */\n      gt\n        /* \".git/calculas.sol\":1314:1385  for (uint256 i = 2; i <= n; i++) {... */\n      tag_74\n      jumpi\n        /* \".git/calculas.sol\":1372:1373  i */\n      dup1\n        /* \".git/calculas.sol\":1362:1373  result *= i */\n      dup3\n      tag_76\n      swap2\n      swap1\n      tag_49\n      jump\t// in\n    tag_76:\n      swap2\n      pop\n        /* \".git/calculas.sol\":1342:1345  i++ */\n      dup1\n      dup1\n      tag_77\n      swap1\n      tag_78\n      jump\t// in\n    tag_77:\n      swap2\n      pop\n      pop\n        /* \".git/calculas.sol\":1314:1385  for (uint256 i = 2; i <= n; i++) {... */\n      jump(tag_73)\n    tag_74:\n      pop\n        /* \".git/calculas.sol\":1404:1410  result */\n      dup1\n        /* \".git/calculas.sol\":1397:1410  return result */\n      swap2\n      pop\n      pop\n        /* \".git/calculas.sol\":1164:1418  function factorial(uint256 n) public pure returns (uint256) {... */\n      swap2\n      swap1\n      pop\n      jump\t// out\n        /* \".git/calculas.sol\":906:1138  function power(uint256 base, uint256 exponent) public pure returns (uint256) {... */\n    tag_37:\n        /* \".git/calculas.sol\":974:981  uint256 */\n      0x00\n        /* \".git/calculas.sol\":994:1008  uint256 result */\n      0x00\n        /* \".git/calculas.sol\":1011:1012  1 */\n      0x01\n        /* \".git/calculas.sol\":994:1012  uint256 result = 1 */\n      swap1\n      pop\n        /* \".git/calculas.sol\":1030:1039  uint256 i */\n      0x00\n        /* \".git/calculas.sol\":1042:1043  0 */\n      0x00\n        /* \".git/calculas.sol\":1030:1043  uint256 i = 0 */\n      swap1\n      pop\n        /* \".git/calculas.sol\":1025:1105  for (uint256 i = 0; i < exponent; i++) {... */\n    tag_80:\n        /* \".git/calculas.sol\":1049:1057  exponent */\n      dup4\n        /* \".git/calculas.sol\":1045:1046  i */\n      dup2\n        /* \".git/calculas.sol\":1045:1057  i < exponent */\n      lt\n        /* \".git/calculas.sol\":1025:1105  for (uint256 i = 0; i < exponent; i++) {... */\n      iszero\n      tag_81\n      jumpi\n        /* \".git/calculas.sol\":1089:1093  base */\n      dup5\n        /* \".git/calculas.sol\":1079:1093  result *= base */\n      dup3\n      tag_83\n      swap2\n      swap1\n      tag_49\n      jump\t// in\n    tag_83:\n      swap2\n      pop\n        /* \".git/calculas.sol\":1059:1062  i++ */\n      dup1\n      dup1\n      0x01\n      add\n      swap2\n      pop\n      pop\n        /* \".git/calculas.sol\":1025:1105  for (uint256 i = 0; i < exponent; i++) {... */\n      jump(tag_80)\n    tag_81:\n      pop\n        /* \".git/calculas.sol\":1124:1130  result */\n      dup1\n        /* \".git/calculas.sol\":1117:1130  return result */\n      swap2\n      pop\n      pop\n        /* \".git/calculas.sol\":906:1138  function power(uint256 base, uint256 exponent) public pure returns (uint256) {... */\n      swap3\n      swap2\n      pop\n      pop\n      jump\t// out\n        /* \".git/calculas.sol\":727:878  function modulus(uint256 a, uint256 b) public pure returns (uint256) {... */\n    tag_41:\n        /* \".git/calculas.sol\":787:794  uint256 */\n      0x00\n        /* \".git/calculas.sol\":820:821  0 */\n      0x00\n        /* \".git/calculas.sol\":815:816  b */\n      dup3\n        /* \".git/calculas.sol\":815:821  b != 0 */\n      sub\n        /* \".git/calculas.sol\":807:847  require(b != 0, \"Cannot divide by zero\") */\n      tag_85\n      jumpi\n      mload(0x40)\n      0x08c379a000000000000000000000000000000000000000000000000000000000\n      dup2\n      mstore\n      0x04\n      add\n      tag_86\n      swap1\n      tag_87\n      jump\t// in\n    tag_86:\n      mload(0x40)\n      dup1\n      swap2\n      sub\n      swap1\n      revert\n    tag_85:\n        /* \".git/calculas.sol\":869:870  b */\n      dup2\n        /* \".git/calculas.sol\":865:866  a */\n      dup4\n        /* \".git/calculas.sol\":865:870  a % b */\n      tag_88\n      swap2\n      swap1\n      tag_89\n      jump\t// in\n    tag_88:\n        /* \".git/calculas.sol\":858:870  return a % b */\n      swap1\n      pop\n        /* \".git/calculas.sol\":727:878  function modulus(uint256 a, uint256 b) public pure returns (uint256) {... */\n      swap3\n      swap2\n      pop\n      pop\n      jump\t// out\n        /* \".git/calculas.sol\":553:703  function divide(uint256 a, uint256 b) public pure returns (uint256) {... */\n    tag_45:\n        /* \".git/calculas.sol\":612:619  uint256 */\n      0x00\n        /* \".git/calculas.sol\":645:646  0 */\n      0x00\n        /* \".git/calculas.sol\":640:641  b */\n      dup3\n        /* \".git/calculas.sol\":640:646  b != 0 */\n      sub\n        /* \".git/calculas.sol\":632:672  require(b != 0, \"Cannot divide by zero\") */\n      tag_91\n      jumpi\n      mload(0x40)\n      0x08c379a000000000000000000000000000000000000000000000000000000000\n      dup2\n      mstore\n      0x04\n      add\n      tag_92\n      swap1\n      tag_87\n      jump\t// in\n    tag_92:\n      mload(0x40)\n      dup1\n      swap2\n      sub\n      swap1\n      revert\n    tag_91:\n        /* \".git/calculas.sol\":694:695  b */\n      dup2\n        /* \".git/calculas.sol\":690:691  a */\n      dup4\n        /* \".git/calculas.sol\":690:695  a / b */\n      tag_93\n      swap2\n      swap1\n      tag_61\n      jump\t// in\n    tag_93:\n        /* \".git/calculas.sol\":683:695  return a / b */\n      swap1\n      pop\n        /* \".git/calculas.sol\":553:703  function divide(uint256 a, uint256 b) public pure returns (uint256) {... */\n      swap3\n      swap2\n      pop\n      pop\n      jump\t// out\n        /* \"#utility.yul\":88:205   */\n    tag_95:\n        /* \"#utility.yul\":197:198   */\n      0x00\n        /* \"#utility.yul\":194:195   */\n      0x00\n        /* \"#utility.yul\":187:199   */\n      revert\n        /* \"#utility.yul\":334:411   */\n    tag_97:\n        /* \"#utility.yul\":371:378   */\n      0x00\n        /* \"#utility.yul\":400:405   */\n      dup2\n        /* \"#utility.yul\":389:405   */\n      swap1\n      pop\n        /* \"#utility.yul\":334:411   */\n      swap2\n      swap1\n      pop\n      jump\t// out\n        /* \"#utility.yul\":417:539   */\n    tag_98:\n        /* \"#utility.yul\":490:514   */\n      tag_116\n        /* \"#utility.yul\":508:513   */\n      dup2\n        /* \"#utility.yul\":490:514   */\n      tag_97\n      jump\t// in\n    tag_116:\n        /* \"#utility.yul\":483:488   */\n      dup2\n        /* \"#utility.yul\":480:515   */\n      eq\n        /* \"#utility.yul\":470:533   */\n      tag_117\n      jumpi\n        /* \"#utility.yul\":529:530   */\n      0x00\n        /* \"#utility.yul\":526:527   */\n      0x00\n        /* \"#utility.yul\":519:531   */\n      revert\n        /* \"#utility.yul\":470:533   */\n    tag_117:\n        /* \"#utility.yul\":417:539   */\n      pop\n      jump\t// out\n        /* \"#utility.yul\":545:684   */\n    tag_99:\n        /* \"#utility.yul\":591:596   */\n      0x00\n        /* \"#utility.yul\":629:635   */\n      dup2\n        /* \"#utility.yul\":616:636   */\n      calldataload\n        /* \"#utility.yul\":607:636   */\n      swap1\n      pop\n        /* \"#utility.yul\":645:678   */\n      tag_119\n        /* \"#utility.yul\":672:677   */\n      dup2\n        /* \"#utility.yul\":645:678   */\n      tag_98\n      jump\t// in\n    tag_119:\n        /* \"#utility.yul\":545:684   */\n      swap3\n      swap2\n      pop\n      pop\n      jump\t// out\n        /* \"#utility.yul\":690:1164   */\n    tag_14:\n        /* \"#utility.yul\":758:764   */\n      0x00\n        /* \"#utility.yul\":766:772   */\n      0x00\n        /* \"#utility.yul\":815:817   */\n      0x40\n        /* \"#utility.yul\":803:812   */\n      dup4\n        /* \"#utility.yul\":794:801   */\n      dup6\n        /* \"#utility.yul\":790:813   */\n      sub\n        /* \"#utility.yul\":786:818   */\n      slt\n        /* \"#utility.yul\":783:902   */\n      iszero\n      tag_121\n      jumpi\n        /* \"#utility.yul\":821:900   */\n      tag_122\n      tag_95\n      jump\t// in\n    tag_122:\n        /* \"#utility.yul\":783:902   */\n    tag_121:\n        /* \"#utility.yul\":941:942   */\n      0x00\n        /* \"#utility.yul\":966:1019   */\n      tag_123\n        /* \"#utility.yul\":1011:1018   */\n      dup6\n        /* \"#utility.yul\":1002:1008   */\n      dup3\n        /* \"#utility.yul\":991:1000   */\n      dup7\n        /* \"#utility.yul\":987:1009   */\n      add\n        /* \"#utility.yul\":966:1019   */\n      tag_99\n      jump\t// in\n    tag_123:\n        /* \"#utility.yul\":956:1019   */\n      swap3\n      pop\n        /* \"#utility.yul\":912:1029   */\n      pop\n        /* \"#utility.yul\":1068:1070   */\n      0x20\n        /* \"#utility.yul\":1094:1147   */\n      tag_124\n        /* \"#utility.yul\":1139:1146   */\n      dup6\n        /* \"#utility.yul\":1130:1136   */\n      dup3\n        /* \"#utility.yul\":1119:1128   */\n      dup7\n        /* \"#utility.yul\":1115:1137   */\n      add\n        /* \"#utility.yul\":1094:1147   */\n      tag_99\n      jump\t// in\n    tag_124:\n        /* \"#utility.yul\":1084:1147   */\n      swap2\n      pop\n        /* \"#utility.yul\":1039:1157   */\n      pop\n        /* \"#utility.yul\":690:1164   */\n      swap3\n      pop\n      swap3\n      swap1\n      pop\n      jump\t// out\n        /* \"#utility.yul\":1170:1288   */\n    tag_100:\n        /* \"#utility.yul\":1257:1281   */\n      tag_126\n        /* \"#utility.yul\":1275:1280   */\n      dup2\n        /* \"#utility.yul\":1257:1281   */\n      tag_97\n      jump\t// in\n    tag_126:\n        /* \"#utility.yul\":1252:1255   */\n      dup3\n        /* \"#utility.yul\":1245:1282   */\n      mstore\n        /* \"#utility.yul\":1170:1288   */\n      pop\n      pop\n      jump\t// out\n        /* \"#utility.yul\":1294:1516   */\n    tag_17:\n        /* \"#utility.yul\":1387:1391   */\n      0x00\n        /* \"#utility.yul\":1425:1427   */\n      0x20\n        /* \"#utility.yul\":1414:1423   */\n      dup3\n        /* \"#utility.yul\":1410:1428   */\n      add\n        /* \"#utility.yul\":1402:1428   */\n      swap1\n      pop\n        /* \"#utility.yul\":1438:1509   */\n      tag_128\n        /* \"#utility.yul\":1506:1507   */\n      0x00\n        /* \"#utility.yul\":1495:1504   */\n      dup4\n        /* \"#utility.yul\":1491:1508   */\n      add\n        /* \"#utility.yul\":1482:1488   */\n      dup5\n        /* \"#utility.yul\":1438:1509   */\n      tag_100\n      jump\t// in\n    tag_128:\n        /* \"#utility.yul\":1294:1516   */\n      swap3\n      swap2\n      pop\n      pop\n      jump\t// out\n        /* \"#utility.yul\":1522:1851   */\n    tag_24:\n        /* \"#utility.yul\":1581:1587   */\n      0x00\n        /* \"#utility.yul\":1630:1632   */\n      0x20\n        /* \"#utility.yul\":1618:1627   */\n      dup3\n        /* \"#utility.yul\":1609:1616   */\n      dup5\n        /* \"#utility.yul\":1605:1628   */\n      sub\n        /* \"#utility.yul\":1601:1633   */\n      slt\n        /* \"#utility.yul\":1598:1717   */\n      iszero\n      tag_130\n      jumpi\n        /* \"#utility.yul\":1636:1715   */\n      tag_131\n      tag_95\n      jump\t// in\n    tag_131:\n        /* \"#utility.yul\":1598:1717   */\n    tag_130:\n        /* \"#utility.yul\":1756:1757   */\n      0x00\n        /* \"#utility.yul\":1781:1834   */\n      tag_132\n        /* \"#utility.yul\":1826:1833   */\n      dup5\n        /* \"#utility.yul\":1817:1823   */\n      dup3\n        /* \"#utility.yul\":1806:1815   */\n      dup6\n        /* \"#utility.yul\":1802:1824   */\n      add\n        /* \"#utility.yul\":1781:1834   */\n      tag_99\n      jump\t// in\n    tag_132:\n        /* \"#utility.yul\":1771:1834   */\n      swap2\n      pop\n        /* \"#utility.yul\":1727:1844   */\n      pop\n        /* \"#utility.yul\":1522:1851   */\n      swap3\n      swap2\n      pop\n      pop\n      jump\t// out\n        /* \"#utility.yul\":1857:2037   */\n    tag_101:\n        /* \"#utility.yul\":1905:1982   */\n      0x4e487b7100000000000000000000000000000000000000000000000000000000\n        /* \"#utility.yul\":1902:1903   */\n      0x00\n        /* \"#utility.yul\":1895:1983   */\n      mstore\n        /* \"#utility.yul\":2002:2006   */\n      0x11\n        /* \"#utility.yul\":1999:2000   */\n      0x04\n        /* \"#utility.yul\":1992:2007   */\n      mstore\n        /* \"#utility.yul\":2026:2030   */\n      0x24\n        /* \"#utility.yul\":2023:2024   */\n      0x00\n        /* \"#utility.yul\":2016:2031   */\n      revert\n        /* \"#utility.yul\":2043:2453   */\n    tag_49:\n        /* \"#utility.yul\":2083:2090   */\n      0x00\n        /* \"#utility.yul\":2106:2126   */\n      tag_135\n        /* \"#utility.yul\":2124:2125   */\n      dup3\n        /* \"#utility.yul\":2106:2126   */\n      tag_97\n      jump\t// in\n    tag_135:\n        /* \"#utility.yul\":2101:2126   */\n      swap2\n      pop\n        /* \"#utility.yul\":2140:2160   */\n      tag_136\n        /* \"#utility.yul\":2158:2159   */\n      dup4\n        /* \"#utility.yul\":2140:2160   */\n      tag_97\n      jump\t// in\n    tag_136:\n        /* \"#utility.yul\":2135:2160   */\n      swap3\n      pop\n        /* \"#utility.yul\":2195:2196   */\n      dup3\n        /* \"#utility.yul\":2192:2193   */\n      dup3\n        /* \"#utility.yul\":2188:2197   */\n      mul\n        /* \"#utility.yul\":2217:2247   */\n      tag_137\n        /* \"#utility.yul\":2235:2246   */\n      dup2\n        /* \"#utility.yul\":2217:2247   */\n      tag_97\n      jump\t// in\n    tag_137:\n        /* \"#utility.yul\":2206:2247   */\n      swap2\n      pop\n        /* \"#utility.yul\":2396:2397   */\n      dup3\n        /* \"#utility.yul\":2387:2394   */\n      dup3\n        /* \"#utility.yul\":2383:2398   */\n      div\n        /* \"#utility.yul\":2380:2381   */\n      dup5\n        /* \"#utility.yul\":2377:2399   */\n      eq\n        /* \"#utility.yul\":2357:2358   */\n      dup4\n        /* \"#utility.yul\":2350:2359   */\n      iszero\n        /* \"#utility.yul\":2330:2413   */\n      or\n        /* \"#utility.yul\":2307:2446   */\n      tag_138\n      jumpi\n        /* \"#utility.yul\":2426:2444   */\n      tag_139\n      tag_101\n      jump\t// in\n    tag_139:\n        /* \"#utility.yul\":2307:2446   */\n    tag_138:\n        /* \"#utility.yul\":2091:2453   */\n      pop\n        /* \"#utility.yul\":2043:2453   */\n      swap3\n      swap2\n      pop\n      pop\n      jump\t// out\n        /* \"#utility.yul\":2459:2628   */\n    tag_102:\n        /* \"#utility.yul\":2543:2554   */\n      0x00\n        /* \"#utility.yul\":2577:2583   */\n      dup3\n        /* \"#utility.yul\":2572:2575   */\n      dup3\n        /* \"#utility.yul\":2565:2584   */\n      mstore\n        /* \"#utility.yul\":2617:2621   */\n      0x20\n        /* \"#utility.yul\":2612:2615   */\n      dup3\n        /* \"#utility.yul\":2608:2622   */\n      add\n        /* \"#utility.yul\":2593:2622   */\n      swap1\n      pop\n        /* \"#utility.yul\":2459:2628   */\n      swap3\n      swap2\n      pop\n      pop\n      jump\t// out\n        /* \"#utility.yul\":2634:2808   */\n    tag_103:\n        /* \"#utility.yul\":2774:2800   */\n      0x526573756c7420776f756c64206265206e656761746976650000000000000000\n        /* \"#utility.yul\":2770:2771   */\n      0x00\n        /* \"#utility.yul\":2762:2768   */\n      dup3\n        /* \"#utility.yul\":2758:2772   */\n      add\n        /* \"#utility.yul\":2751:2801   */\n      mstore\n        /* \"#utility.yul\":2634:2808   */\n      pop\n      jump\t// out\n        /* \"#utility.yul\":2814:3180   */\n    tag_104:\n        /* \"#utility.yul\":2956:2959   */\n      0x00\n        /* \"#utility.yul\":2977:3044   */\n      tag_143\n        /* \"#utility.yul\":3041:3043   */\n      0x18\n        /* \"#utility.yul\":3036:3039   */\n      dup4\n        /* \"#utility.yul\":2977:3044   */\n      tag_102\n      jump\t// in\n    tag_143:\n        /* \"#utility.yul\":2970:3044   */\n      swap2\n      pop\n        /* \"#utility.yul\":3053:3146   */\n      tag_144\n        /* \"#utility.yul\":3142:3145   */\n      dup3\n        /* \"#utility.yul\":3053:3146   */\n      tag_103\n      jump\t// in\n    tag_144:\n        /* \"#utility.yul\":3171:3173   */\n      0x20\n        /* \"#utility.yul\":3166:3169   */\n      dup3\n        /* \"#utility.yul\":3162:3174   */\n      add\n        /* \"#utility.yul\":3155:3174   */\n      swap1\n      pop\n        /* \"#utility.yul\":2814:3180   */\n      swap2\n      swap1\n      pop\n      jump\t// out\n        /* \"#utility.yul\":3186:3605   */\n    tag_53:\n        /* \"#utility.yul\":3352:3356   */\n      0x00\n        /* \"#utility.yul\":3390:3392   */\n      0x20\n        /* \"#utility.yul\":3379:3388   */\n      dup3\n        /* \"#utility.yul\":3375:3393   */\n      add\n        /* \"#utility.yul\":3367:3393   */\n      swap1\n      pop\n        /* \"#utility.yul\":3439:3448   */\n      dup2\n        /* \"#utility.yul\":3433:3437   */\n      dup2\n        /* \"#utility.yul\":3429:3449   */\n      sub\n        /* \"#utility.yul\":3425:3426   */\n      0x00\n        /* \"#utility.yul\":3414:3423   */\n      dup4\n        /* \"#utility.yul\":3410:3427   */\n      add\n        /* \"#utility.yul\":3403:3450   */\n      mstore\n        /* \"#utility.yul\":3467:3598   */\n      tag_146\n        /* \"#utility.yul\":3593:3597   */\n      dup2\n        /* \"#utility.yul\":3467:3598   */\n      tag_104\n      jump\t// in\n    tag_146:\n        /* \"#utility.yul\":3459:3598   */\n      swap1\n      pop\n        /* \"#utility.yul\":3186:3605   */\n      swap2\n      swap1\n      pop\n      jump\t// out\n        /* \"#utility.yul\":3611:3805   */\n    tag_55:\n        /* \"#utility.yul\":3651:3655   */\n      0x00\n        /* \"#utility.yul\":3671:3691   */\n      tag_148\n        /* \"#utility.yul\":3689:3690   */\n      dup3\n        /* \"#utility.yul\":3671:3691   */\n      tag_97\n      jump\t// in\n    tag_148:\n        /* \"#utility.yul\":3666:3691   */\n      swap2\n      pop\n        /* \"#utility.yul\":3705:3725   */\n      tag_149\n        /* \"#utility.yul\":3723:3724   */\n      dup4\n        /* \"#utility.yul\":3705:3725   */\n      tag_97\n      jump\t// in\n    tag_149:\n        /* \"#utility.yul\":3700:3725   */\n      swap3\n      pop\n        /* \"#utility.yul\":3749:3750   */\n      dup3\n        /* \"#utility.yul\":3746:3747   */\n      dup3\n        /* \"#utility.yul\":3742:3751   */\n      sub\n        /* \"#utility.yul\":3734:3751   */\n      swap1\n      pop\n        /* \"#utility.yul\":3773:3774   */\n      dup2\n        /* \"#utility.yul\":3767:3771   */\n      dup2\n        /* \"#utility.yul\":3764:3775   */\n      gt\n        /* \"#utility.yul\":3761:3798   */\n      iszero\n      tag_150\n      jumpi\n        /* \"#utility.yul\":3778:3796   */\n      tag_151\n      tag_101\n      jump\t// in\n    tag_151:\n        /* \"#utility.yul\":3761:3798   */\n    tag_150:\n        /* \"#utility.yul\":3611:3805   */\n      swap3\n      swap2\n      pop\n      pop\n      jump\t// out\n        /* \"#utility.yul\":3811:4002   */\n    tag_59:\n        /* \"#utility.yul\":3851:3854   */\n      0x00\n        /* \"#utility.yul\":3870:3890   */\n      tag_153\n        /* \"#utility.yul\":3888:3889   */\n      dup3\n        /* \"#utility.yul\":3870:3890   */\n      tag_97\n      jump\t// in\n    tag_153:\n        /* \"#utility.yul\":3865:3890   */\n      swap2\n      pop\n        /* \"#utility.yul\":3904:3924   */\n      tag_154\n        /* \"#utility.yul\":3922:3923   */\n      dup4\n        /* \"#utility.yul\":3904:3924   */\n      tag_97\n      jump\t// in\n    tag_154:\n        /* \"#utility.yul\":3899:3924   */\n      swap3\n      pop\n        /* \"#utility.yul\":3947:3948   */\n      dup3\n        /* \"#utility.yul\":3944:3945   */\n      dup3\n        /* \"#utility.yul\":3940:3949   */\n      add\n        /* \"#utility.yul\":3933:3949   */\n      swap1\n      pop\n        /* \"#utility.yul\":3968:3971   */\n      dup1\n        /* \"#utility.yul\":3965:3966   */\n      dup3\n        /* \"#utility.yul\":3962:3972   */\n      gt\n        /* \"#utility.yul\":3959:3995   */\n      iszero\n      tag_155\n      jumpi\n        /* \"#utility.yul\":3975:3993   */\n      tag_156\n      tag_101\n      jump\t// in\n    tag_156:\n        /* \"#utility.yul\":3959:3995   */\n    tag_155:\n        /* \"#utility.yul\":3811:4002   */\n      swap3\n      swap2\n      pop\n      pop\n      jump\t// out\n        /* \"#utility.yul\":4008:4188   */\n    tag_105:\n        /* \"#utility.yul\":4056:4133   */\n      0x4e487b7100000000000000000000000000000000000000000000000000000000\n        /* \"#utility.yul\":4053:4054   */\n      0x00\n        /* \"#utility.yul\":4046:4134   */\n      mstore\n        /* \"#utility.yul\":4153:4157   */\n      0x12\n        /* \"#utility.yul\":4150:4151   */\n      0x04\n        /* \"#utility.yul\":4143:4158   */\n      mstore\n        /* \"#utility.yul\":4177:4181   */\n      0x24\n        /* \"#utility.yul\":4174:4175   */\n      0x00\n        /* \"#utility.yul\":4167:4182   */\n      revert\n        /* \"#utility.yul\":4194:4379   */\n    tag_61:\n        /* \"#utility.yul\":4234:4235   */\n      0x00\n        /* \"#utility.yul\":4251:4271   */\n      tag_159\n        /* \"#utility.yul\":4269:4270   */\n      dup3\n        /* \"#utility.yul\":4251:4271   */\n      tag_97\n      jump\t// in\n    tag_159:\n        /* \"#utility.yul\":4246:4271   */\n      swap2\n      pop\n        /* \"#utility.yul\":4285:4305   */\n      tag_160\n        /* \"#utility.yul\":4303:4304   */\n      dup4\n        /* \"#utility.yul\":4285:4305   */\n      tag_97\n      jump\t// in\n    tag_160:\n        /* \"#utility.yul\":4280:4305   */\n      swap3\n      pop\n        /* \"#utility.yul\":4324:4325   */\n      dup3\n        /* \"#utility.yul\":4314:4349   */\n      tag_161\n      jumpi\n        /* \"#utility.yul\":4329:4347   */\n      tag_162\n      tag_105\n      jump\t// in\n    tag_162:\n        /* \"#utility.yul\":4314:4349   */\n    tag_161:\n        /* \"#utility.yul\":4371:4372   */\n      dup3\n        /* \"#utility.yul\":4368:4369   */\n      dup3\n        /* \"#utility.yul\":4364:4373   */\n      div\n        /* \"#utility.yul\":4359:4373   */\n      swap1\n      pop\n        /* \"#utility.yul\":4194:4379   */\n      swap3\n      swap2\n      pop\n      pop\n      jump\t// out\n        /* \"#utility.yul\":4385:4550   */\n    tag_106:\n        /* \"#utility.yul\":4525:4542   */\n      0x496e70757420746f6f206c617267650000000000000000000000000000000000\n        /* \"#utility.yul\":4521:4522   */\n      0x00\n        /* \"#utility.yul\":4513:4519   */\n      dup3\n        /* \"#utility.yul\":4509:4523   */\n      add\n        /* \"#utility.yul\":4502:4543   */\n      mstore\n        /* \"#utility.yul\":4385:4550   */\n      pop\n      jump\t// out\n        /* \"#utility.yul\":4556:4922   */\n    tag_107:\n        /* \"#utility.yul\":4698:4701   */\n      0x00\n        /* \"#utility.yul\":4719:4786   */\n      tag_165\n        /* \"#utility.yul\":4783:4785   */\n      0x0f\n        /* \"#utility.yul\":4778:4781   */\n      dup4\n        /* \"#utility.yul\":4719:4786   */\n      tag_102\n      jump\t// in\n    tag_165:\n        /* \"#utility.yul\":4712:4786   */\n      swap2\n      pop\n        /* \"#utility.yul\":4795:4888   */\n      tag_166\n        /* \"#utility.yul\":4884:4887   */\n      dup3\n        /* \"#utility.yul\":4795:4888   */\n      tag_106\n      jump\t// in\n    tag_166:\n        /* \"#utility.yul\":4913:4915   */\n      0x20\n        /* \"#utility.yul\":4908:4911   */\n      dup3\n        /* \"#utility.yul\":4904:4916   */\n      add\n        /* \"#utility.yul\":4897:4916   */\n      swap1\n      pop\n        /* \"#utility.yul\":4556:4922   */\n      swap2\n      swap1\n      pop\n      jump\t// out\n        /* \"#utility.yul\":4928:5347   */\n    tag_72:\n        /* \"#utility.yul\":5094:5098   */\n      0x00\n        /* \"#utility.yul\":5132:5134   */\n      0x20\n        /* \"#utility.yul\":5121:5130   */\n      dup3\n        /* \"#utility.yul\":5117:5135   */\n      add\n        /* \"#utility.yul\":5109:5135   */\n      swap1\n      pop\n        /* \"#utility.yul\":5181:5190   */\n      dup2\n        /* \"#utility.yul\":5175:5179   */\n      dup2\n        /* \"#utility.yul\":5171:5191   */\n      sub\n        /* \"#utility.yul\":5167:5168   */\n      0x00\n        /* \"#utility.yul\":5156:5165   */\n      dup4\n        /* \"#utility.yul\":5152:5169   */\n      add\n        /* \"#utility.yul\":5145:5192   */\n      mstore\n        /* \"#utility.yul\":5209:5340   */\n      tag_168\n        /* \"#utility.yul\":5335:5339   */\n      dup2\n        /* \"#utility.yul\":5209:5340   */\n      tag_107\n      jump\t// in\n    tag_168:\n        /* \"#utility.yul\":5201:5340   */\n      swap1\n      pop\n        /* \"#utility.yul\":4928:5347   */\n      swap2\n      swap1\n      pop\n      jump\t// out\n        /* \"#utility.yul\":5353:5586   */\n    tag_78:\n        /* \"#utility.yul\":5392:5395   */\n      0x00\n        /* \"#utility.yul\":5415:5439   */\n      tag_170\n        /* \"#utility.yul\":5433:5438   */\n      dup3\n        /* \"#utility.yul\":5415:5439   */\n      tag_97\n      jump\t// in\n    tag_170:\n        /* \"#utility.yul\":5406:5439   */\n      swap2\n      pop\n        /* \"#utility.yul\":5461:5527   */\n      0xffffffffffffffffffffffffffffffffffffffffffffffffffffffffffffffff\n        /* \"#utility.yul\":5454:5459   */\n      dup3\n        /* \"#utility.yul\":5451:5528   */\n      sub\n        /* \"#utility.yul\":5448:5551   */\n      tag_171\n      jumpi\n        /* \"#utility.yul\":5531:5549   */\n      tag_172\n      tag_101\n      jump\t// in\n    tag_172:\n        /* \"#utility.yul\":5448:5551   */\n    tag_171:\n        /* \"#utility.yul\":5578:5579   */\n      0x01\n        /* \"#utility.yul\":5571:5576   */\n      dup3\n        /* \"#utility.yul\":5567:5580   */\n      add\n        /* \"#utility.yul\":5560:5580   */\n      swap1\n      pop\n        /* \"#utility.yul\":5353:5586   */\n      swap2\n      swap1\n      pop\n      jump\t// out\n        /* \"#utility.yul\":5592:5763   */\n    tag_108:\n        /* \"#utility.yul\":5732:5755   */\n      0x43616e6e6f7420646976696465206279207a65726f0000000000000000000000\n        /* \"#utility.yul\":5728:5729   */\n      0x00\n        /* \"#utility.yul\":5720:5726   */\n      dup3\n        /* \"#utility.yul\":5716:5730   */\n      add\n        /* \"#utility.yul\":5709:5756   */\n      mstore\n        /* \"#utility.yul\":5592:5763   */\n      pop\n      jump\t// out\n        /* \"#utility.yul\":5769:6135   */\n    tag_109:\n        /* \"#utility.yul\":5911:5914   */\n      0x00\n        /* \"#utility.yul\":5932:5999   */\n      tag_175\n        /* \"#utility.yul\":5996:5998   */\n      0x15\n        /* \"#utility.yul\":5991:5994   */\n      dup4\n        /* \"#utility.yul\":5932:5999   */\n      tag_102\n      jump\t// in\n    tag_175:\n        /* \"#utility.yul\":5925:5999   */\n      swap2\n      pop\n        /* \"#utility.yul\":6008:6101   */\n      tag_176\n        /* \"#utility.yul\":6097:6100   */\n      dup3\n        /* \"#utility.yul\":6008:6101   */\n      tag_108\n      jump\t// in\n    tag_176:\n        /* \"#utility.yul\":6126:6128   */\n      0x20\n        /* \"#utility.yul\":6121:6124   */\n      dup3\n        /* \"#utility.yul\":6117:6129   */\n      add\n        /* \"#utility.yul\":6110:6129   */\n      swap1\n      pop\n        /* \"#utility.yul\":5769:6135   */\n      swap2\n      swap1\n      pop\n      jump\t// out\n        /* \"#utility.yul\":6141:6560   */\n    tag_87:\n        /* \"#utility.yul\":6307:6311   */\n      0x00\n        /* \"#utility.yul\":6345:6347   */\n      0x20\n        /* \"#utility.yul\":6334:6343   */\n      dup3\n        /* \"#utility.yul\":6330:6348   */\n      add\n        /* \"#utility.yul\":6322:6348   */\n      swap1\n      pop\n        /* \"#utility.yul\":6394:6403   */\n      dup2\n        /* \"#utility.yul\":6388:6392   */\n      dup2\n        /* \"#utility.yul\":6384:6404   */\n      sub\n        /* \"#utility.yul\":6380:6381   */\n      0x00\n        /* \"#utility.yul\":6369:6378   */\n      dup4\n        /* \"#utility.yul\":6365:6382   */\n      add\n        /* \"#utility.yul\":6358:6405   */\n      mstore\n        /* \"#utility.yul\":6422:6553   */\n      tag_178\n        /* \"#utility.yul\":6548:6552   */\n      dup2\n        /* \"#utility.yul\":6422:6553   */\n      tag_109\n      jump\t// in\n    tag_178:\n        /* \"#utility.yul\":6414:6553   */\n      swap1\n      pop\n        /* \"#utility.yul\":6141:6560   */\n      swap2\n      swap1\n      pop\n      jump\t// out\n        /* \"#utility.yul\":6566:6742   */\n    tag_89:\n        /* \"#utility.yul\":6598:6599   */\n      0x00\n        /* \"#utility.yul\":6615:6635   */\n      tag_180\n        /* \"#utility.yul\":6633:6634   */\n      dup3\n        /* \"#utility.yul\":6615:6635   */\n      tag_97\n      jump\t// in\n    tag_180:\n        /* \"#utility.yul\":6610:6635   */\n      swap2\n      pop\n        /* \"#utility.yul\":6649:6669   */\n      tag_181\n        /* \"#utility.yul\":6667:6668   */\n      dup4\n        /* \"#utility.yul\":6649:6669   */\n      tag_97\n      jump\t// in\n    tag_181:\n        /* \"#utility.yul\":6644:6669   */\n      swap3\n      pop\n        /* \"#utility.yul\":6688:6689   */\n      dup3\n        /* \"#utility.yul\":6678:6713   */\n      tag_182\n      jumpi\n        /* \"#utility.yul\":6693:6711   */\n      tag_183\n      tag_105\n      jump\t// in\n    tag_183:\n        /* \"#utility.yul\":6678:6713   */\n    tag_182:\n        /* \"#utility.yul\":6734:6735   */\n      dup3\n        /* \"#utility.yul\":6731:6732   */\n      dup3\n        /* \"#utility.yul\":6727:6736   */\n      mod\n        /* \"#utility.yul\":6722:6736   */\n      swap1\n      pop\n        /* \"#utility.yul\":6566:6742   */\n      swap3\n      swap2\n      pop\n      pop\n      jump\t// out\n\n    auxdata: 0xa26469706673582212205ed8e3791a8cad20ec62d4f653758be4fb07a57dfd2cd363883273712880d57464736f6c63430008220033\n}\n",
				"bytecode": {
					"linkReferences": {},
					"object": "6080604052348015600e575f5ffd5b506108548061001c5f395ff3fe608060405234801561000f575f5ffd5b5060043610610086575f3560e01c80638371483411610059578063837148341461014a578063c04f01fc1461017a578063ce406417146101aa578063f88e9fbf146101da57610086565b8063165c4a161461008a5780633ef5e445146100ba578063677342ce146100ea578063771602f71461011a575b5f5ffd5b6100a4600480360381019061009f919061049d565b61020a565b6040516100b191906104ea565b60405180910390f35b6100d460048036038101906100cf919061049d565b61021f565b6040516100e191906104ea565b60405180910390f35b61010460048036038101906100ff9190610503565b610277565b60405161011191906104ea565b60405180910390f35b610134600480360381019061012f919061049d565b6102e8565b60405161014191906104ea565b60405180910390f35b610164600480360381019061015f9190610503565b6102fd565b60405161017191906104ea565b60405180910390f35b610194600480360381019061018f919061049d565b61037f565b6040516101a191906104ea565b60405180910390f35b6101c460048036038101906101bf919061049d565b6103b8565b6040516101d191906104ea565b60405180910390f35b6101f460048036038101906101ef919061049d565b61040f565b60405161020191906104ea565b60405180910390f35b5f8183610217919061055b565b905092915050565b5f81831015610263576040517f08c379a000000000000000000000000000000000000000000000000000000000815260040161025a906105f6565b60405180910390fd5b818361026f9190610614565b905092915050565b5f5f8203610287575f90506102e3565b5f60026001846102979190610647565b6102a191906106a7565b90505f8390505b808210156102dd5781905060028283866102c291906106a7565b6102cc9190610647565b6102d691906106a7565b91506102a8565b80925050505b919050565b5f81836102f59190610647565b905092915050565b5f6014821115610342576040517f08c379a000000000000000000000000000000000000000000000000000000000815260040161033990610721565b60405180910390fd5b5f600190505f600290505b838111610375578082610360919061055b565b9150808061036d9061073f565b91505061034d565b5080915050919050565b5f5f600190505f5f90505b838110156103ad57848261039e919061055b565b9150808060010191505061038a565b508091505092915050565b5f5f82036103fb576040517f08c379a00000000000000000000000000000000000000000000000000000000081526004016103f2906107d0565b60405180910390fd5b818361040791906107ee565b905092915050565b5f5f8203610452576040517f08c379a0000000000000000000000000000000000000000000000000000000008152600401610449906107d0565b60405180910390fd5b818361045e91906106a7565b905092915050565b5f5ffd5b5f819050919050565b61047c8161046a565b8114610486575f5ffd5b50565b5f8135905061049781610473565b92915050565b5f5f604083850312156104b3576104b2610466565b5b5f6104c085828601610489565b92505060206104d185828601610489565b9150509250929050565b6104e48161046a565b82525050565b5f6020820190506104fd5f8301846104db565b92915050565b5f6020828403121561051857610517610466565b5b5f61052584828501610489565b91505092915050565b7f4e487b71000000000000000000000000000000000000000000000000000000005f52601160045260245ffd5b5f6105658261046a565b91506105708361046a565b925082820261057e8161046a565b915082820484148315176105955761059461052e565b5b5092915050565b5f82825260208201905092915050565b7f526573756c7420776f756c64206265206e6567617469766500000000000000005f82015250565b5f6105e060188361059c565b91506105eb826105ac565b602082019050919050565b5f6020820190508181035f83015261060d816105d4565b9050919050565b5f61061e8261046a565b91506106298361046a565b92508282039050818111156106415761064061052e565b5b92915050565b5f6106518261046a565b915061065c8361046a565b92508282019050808211156106745761067361052e565b5b92915050565b7f4e487b71000000000000000000000000000000000000000000000000000000005f52601260045260245ffd5b5f6106b18261046a565b91506106bc8361046a565b9250826106cc576106cb61067a565b5b828204905092915050565b7f496e70757420746f6f206c6172676500000000000000000000000000000000005f82015250565b5f61070b600f8361059c565b9150610716826106d7565b602082019050919050565b5f6020820190508181035f830152610738816106ff565b9050919050565b5f6107498261046a565b91507fffffffffffffffffffffffffffffffffffffffffffffffffffffffffffffffff820361077b5761077a61052e565b5b600182019050919050565b7f43616e6e6f7420646976696465206279207a65726f00000000000000000000005f82015250565b5f6107ba60158361059c565b91506107c582610786565b602082019050919050565b5f6020820190508181035f8301526107e7816107ae565b9050919050565b5f6107f88261046a565b91506108038361046a565b9250826108135761081261067a565b5b82820690509291505056fea26469706673582212205ed8e3791a8cad20ec62d4f653758be4fb07a57dfd2cd363883273712880d57464736f6c63430008220033",
					"opcodes": "PUSH1 0x80 PUSH1 0x40 MSTORE CALLVALUE DUP1 ISZERO PUSH1 0xE JUMPI PUSH0 PUSH0 REVERT JUMPDEST POP PUSH2 0x854 DUP1 PUSH2 0x1C PUSH0 CODECOPY PUSH0 RETURN INVALID PUSH1 0x80 PUSH1 0x40 MSTORE CALLVALUE DUP1 ISZERO PUSH2 0xF JUMPI PUSH0 PUSH0 REVERT JUMPDEST POP PUSH1 0x4 CALLDATASIZE LT PUSH2 0x86 JUMPI PUSH0 CALLDATALOAD PUSH1 0xE0 SHR DUP1 PUSH4 0x83714834 GT PUSH2 0x59 JUMPI DUP1 PUSH4 0x83714834 EQ PUSH2 0x14A JUMPI DUP1 PUSH4 0xC04F01FC EQ PUSH2 0x17A JUMPI DUP1 PUSH4 0xCE406417 EQ PUSH2 0x1AA JUMPI DUP1 PUSH4 0xF88E9FBF EQ PUSH2 0x1DA JUMPI PUSH2 0x86 JUMP JUMPDEST DUP1 PUSH4 0x165C4A16 EQ PUSH2 0x8A JUMPI DUP1 PUSH4 0x3EF5E445 EQ PUSH2 0xBA JUMPI DUP1 PUSH4 0x677342CE EQ PUSH2 0xEA JUMPI DUP1 PUSH4 0x771602F7 EQ PUSH2 0x11A JUMPI JUMPDEST PUSH0 PUSH0 REVERT JUMPDEST PUSH2 0xA4 PUSH1 0x4 DUP1 CALLDATASIZE SUB DUP2 ADD SWAP1 PUSH2 0x9F SWAP2 SWAP1 PUSH2 0x49D JUMP JUMPDEST PUSH2 0x20A JUMP JUMPDEST PUSH1 0x40 MLOAD PUSH2 0xB1 SWAP2 SWAP1 PUSH2 0x4EA JUMP JUMPDEST PUSH1 0x40 MLOAD DUP1 SWAP2 SUB SWAP1 RETURN JUMPDEST PUSH2 0xD4 PUSH1 0x4 DUP1 CALLDATASIZE SUB DUP2 ADD SWAP1 PUSH2 0xCF SWAP2 SWAP1 PUSH2 0x49D JUMP JUMPDEST PUSH2 0x21F JUMP JUMPDEST PUSH1 0x40 MLOAD PUSH2 0xE1 SWAP2 SWAP1 PUSH2 0x4EA JUMP JUMPDEST PUSH1 0x40 MLOAD DUP1 SWAP2 SUB SWAP1 RETURN JUMPDEST PUSH2 0x104 PUSH1 0x4 DUP1 CALLDATASIZE SUB DUP2 ADD SWAP1 PUSH2 0xFF SWAP2 SWAP1 PUSH2 0x503 JUMP JUMPDEST PUSH2 0x277 JUMP JUMPDEST PUSH1 0x40 MLOAD PUSH2 0x111 SWAP2 SWAP1 PUSH2 0x4EA JUMP JUMPDEST PUSH1 0x40 MLOAD DUP1 SWAP2 SUB SWAP1 RETURN JUMPDEST PUSH2 0x134 PUSH1 0x4 DUP1 CALLDATASIZE SUB DUP2 ADD SWAP1 PUSH2 0x12F SWAP2 SWAP1 PUSH2 0x49D JUMP JUMPDEST PUSH2 0x2E8 JUMP JUMPDEST PUSH1 0x40 MLOAD PUSH2 0x141 SWAP2 SWAP1 PUSH2 0x4EA JUMP JUMPDEST PUSH1 0x40 MLOAD DUP1 SWAP2 SUB SWAP1 RETURN JUMPDEST PUSH2 0x164 PUSH1 0x4 DUP1 CALLDATASIZE SUB DUP2 ADD SWAP1 PUSH2 0x15F SWAP2 SWAP1 PUSH2 0x503 JUMP JUMPDEST PUSH2 0x2FD JUMP JUMPDEST PUSH1 0x40 MLOAD PUSH2 0x171 SWAP2 SWAP1 PUSH2 0x4EA JUMP JUMPDEST PUSH1 0x40 MLOAD DUP1 SWAP2 SUB SWAP1 RETURN JUMPDEST PUSH2 0x194 PUSH1 0x4 DUP1 CALLDATASIZE SUB DUP2 ADD SWAP1 PUSH2 0x18F SWAP2 SWAP1 PUSH2 0x49D JUMP JUMPDEST PUSH2 0x37F JUMP JUMPDEST PUSH1 0x40 MLOAD PUSH2 0x1A1 SWAP2 SWAP1 PUSH2 0x4EA JUMP JUMPDEST PUSH1 0x40 MLOAD DUP1 SWAP2 SUB SWAP1 RETURN JUMPDEST PUSH2 0x1C4 PUSH1 0x4 DUP1 CALLDATASIZE SUB DUP2 ADD SWAP1 PUSH2 0x1BF SWAP2 SWAP1 PUSH2 0x49D JUMP JUMPDEST PUSH2 0x3B8 JUMP JUMPDEST PUSH1 0x40 MLOAD PUSH2 0x1D1 SWAP2 SWAP1 PUSH2 0x4EA JUMP JUMPDEST PUSH1 0x40 MLOAD DUP1 SWAP2 SUB SWAP1 RETURN JUMPDEST PUSH2 0x1F4 PUSH1 0x4 DUP1 CALLDATASIZE SUB DUP2 ADD SWAP1 PUSH2 0x1EF SWAP2 SWAP1 PUSH2 0x49D JUMP JUMPDEST PUSH2 0x40F JUMP JUMPDEST PUSH1 0x40 MLOAD PUSH2 0x201 SWAP2 SWAP1 PUSH2 0x4EA JUMP JUMPDEST PUSH1 0x40 MLOAD DUP1 SWAP2 SUB SWAP1 RETURN JUMPDEST PUSH0 DUP2 DUP4 PUSH2 0x217 SWAP2 SWAP1 PUSH2 0x55B JUMP JUMPDEST SWAP1 POP SWAP3 SWAP2 POP POP JUMP JUMPDEST PUSH0 DUP2 DUP4 LT ISZERO PUSH2 0x263 JUMPI PUSH1 0x40 MLOAD PUSH32 0x8C379A000000000000000000000000000000000000000000000000000000000 DUP2 MSTORE PUSH1 0x4 ADD PUSH2 0x25A SWAP1 PUSH2 0x5F6 JUMP JUMPDEST PUSH1 0x40 MLOAD DUP1 SWAP2 SUB SWAP1 REVERT JUMPDEST DUP2 DUP4 PUSH2 0x26F SWAP2 SWAP1 PUSH2 0x614 JUMP JUMPDEST SWAP1 POP SWAP3 SWAP2 POP POP JUMP JUMPDEST PUSH0 PUSH0 DUP3 SUB PUSH2 0x287 JUMPI PUSH0 SWAP1 POP PUSH2 0x2E3 JUMP JUMPDEST PUSH0 PUSH1 0x2 PUSH1 0x1 DUP5 PUSH2 0x297 SWAP2 SWAP1 PUSH2 0x647 JUMP JUMPDEST PUSH2 0x2A1 SWAP2 SWAP1 PUSH2 0x6A7 JUMP JUMPDEST SWAP1 POP PUSH0 DUP4 SWAP1 POP JUMPDEST DUP1 DUP3 LT ISZERO PUSH2 0x2DD JUMPI DUP2 SWAP1 POP PUSH1 0x2 DUP3 DUP4 DUP7 PUSH2 0x2C2 SWAP2 SWAP1 PUSH2 0x6A7 JUMP JUMPDEST PUSH2 0x2CC SWAP2 SWAP1 PUSH2 0x647 JUMP JUMPDEST PUSH2 0x2D6 SWAP2 SWAP1 PUSH2 0x6A7 JUMP JUMPDEST SWAP2 POP PUSH2 0x2A8 JUMP JUMPDEST DUP1 SWAP3 POP POP POP JUMPDEST SWAP2 SWAP1 POP JUMP JUMPDEST PUSH0 DUP2 DUP4 PUSH2 0x2F5 SWAP2 SWAP1 PUSH2 0x647 JUMP JUMPDEST SWAP1 POP SWAP3 SWAP2 POP POP JUMP JUMPDEST PUSH0 PUSH1 0x14 DUP3 GT ISZERO PUSH2 0x342 JUMPI PUSH1 0x40 MLOAD PUSH32 0x8C379A000000000000000000000000000000000000000000000000000000000 DUP2 MSTORE PUSH1 0x4 ADD PUSH2 0x339 SWAP1 PUSH2 0x721 JUMP JUMPDEST PUSH1 0x40 MLOAD DUP1 SWAP2 SUB SWAP1 REVERT JUMPDEST PUSH0 PUSH1 0x1 SWAP1 POP PUSH0 PUSH1 0x2 SWAP1 POP JUMPDEST DUP4 DUP2 GT PUSH2 0x375 JUMPI DUP1 DUP3 PUSH2 0x360 SWAP2 SWAP1 PUSH2 0x55B JUMP JUMPDEST SWAP2 POP DUP1 DUP1 PUSH2 0x36D SWAP1 PUSH2 0x73F JUMP JUMPDEST SWAP2 POP POP PUSH2 0x34D JUMP JUMPDEST POP DUP1 SWAP2 POP POP SWAP2 SWAP1 POP JUMP JUMPDEST PUSH0 PUSH0 PUSH1 0x1 SWAP1 POP PUSH0 PUSH0 SWAP1 POP JUMPDEST DUP4 DUP2 LT ISZERO PUSH2 0x3AD JUMPI DUP5 DUP3 PUSH2 0x39E SWAP2 SWAP1 PUSH2 0x55B JUMP JUMPDEST SWAP2 POP DUP1 DUP1 PUSH1 0x1 ADD SWAP2 POP POP PUSH2 0x38A JUMP JUMPDEST POP DUP1 SWAP2 POP POP SWAP3 SWAP2 POP POP JUMP JUMPDEST PUSH0 PUSH0 DUP3 SUB PUSH2 0x3FB JUMPI PUSH1 0x40 MLOAD PUSH32 0x8C379A000000000000000000000000000000000000000000000000000000000 DUP2 MSTORE PUSH1 0x4 ADD PUSH2 0x3F2 SWAP1 PUSH2 0x7D0 JUMP JUMPDEST PUSH1 0x40 MLOAD DUP1 SWAP2 SUB SWAP1 REVERT JUMPDEST DUP2 DUP4 PUSH2 0x407 SWAP2 SWAP1 PUSH2 0x7EE JUMP JUMPDEST SWAP1 POP SWAP3 SWAP2 POP POP JUMP JUMPDEST PUSH0 PUSH0 DUP3 SUB PUSH2 0x452 JUMPI PUSH1 0x40 MLOAD PUSH32 0x8C379A000000000000000000000000000000000000000000000000000000000 DUP2 MSTORE PUSH1 0x4 ADD PUSH2 0x449 SWAP1 PUSH2 0x7D0 JUMP JUMPDEST PUSH1 0x40 MLOAD DUP1 SWAP2 SUB SWAP1 REVERT JUMPDEST DUP2 DUP4 PUSH2 0x45E SWAP2 SWAP1 PUSH2 0x6A7 JUMP JUMPDEST SWAP1 POP SWAP3 SWAP2 POP POP JUMP JUMPDEST PUSH0 PUSH0 REVERT JUMPDEST PUSH0 DUP2 SWAP1 POP SWAP2 SWAP1 POP JUMP JUMPDEST PUSH2 0x47C DUP2 PUSH2 0x46A JUMP JUMPDEST DUP2 EQ PUSH2 0x486 JUMPI PUSH0 PUSH0 REVERT JUMPDEST POP JUMP JUMPDEST PUSH0 DUP2 CALLDATALOAD SWAP1 POP PUSH2 0x497 DUP2 PUSH2 0x473 JUMP JUMPDEST SWAP3 SWAP2 POP POP JUMP JUMPDEST PUSH0 PUSH0 PUSH1 0x40 DUP4 DUP6 SUB SLT ISZERO PUSH2 0x4B3 JUMPI PUSH2 0x4B2 PUSH2 0x466 JUMP JUMPDEST JUMPDEST PUSH0 PUSH2 0x4C0 DUP6 DUP3 DUP7 ADD PUSH2 0x489 JUMP JUMPDEST SWAP3 POP POP PUSH1 0x20 PUSH2 0x4D1 DUP6 DUP3 DUP7 ADD PUSH2 0x489 JUMP JUMPDEST SWAP2 POP POP SWAP3 POP SWAP3 SWAP1 POP JUMP JUMPDEST PUSH2 0x4E4 DUP2 PUSH2 0x46A JUMP JUMPDEST DUP3 MSTORE POP POP JUMP JUMPDEST PUSH0 PUSH1 0x20 DUP3 ADD SWAP1 POP PUSH2 0x4FD PUSH0 DUP4 ADD DUP5 PUSH2 0x4DB JUMP JUMPDEST SWAP3 SWAP2 POP POP JUMP JUMPDEST PUSH0 PUSH1 0x20 DUP3 DUP5 SUB SLT ISZERO PUSH2 0x518 JUMPI PUSH2 0x517 PUSH2 0x466 JUMP JUMPDEST JUMPDEST PUSH0 PUSH2 0x525 DUP5 DUP3 DUP6 ADD PUSH2 0x489 JUMP JUMPDEST SWAP2 POP POP SWAP3 SWAP2 POP POP JUMP JUMPDEST PUSH32 0x4E487B7100000000000000000000000000000000000000000000000000000000 PUSH0 MSTORE PUSH1 0x11 PUSH1 0x4 MSTORE PUSH1 0x24 PUSH0 REVERT JUMPDEST PUSH0 PUSH2 0x565 DUP3 PUSH2 0x46A JUMP JUMPDEST SWAP2 POP PUSH2 0x570 DUP4 PUSH2 0x46A JUMP JUMPDEST SWAP3 POP DUP3 DUP3 MUL PUSH2 0x57E DUP2 PUSH2 0x46A JUMP JUMPDEST SWAP2 POP DUP3 DUP3 DIV DUP5 EQ DUP4 ISZERO OR PUSH2 0x595 JUMPI PUSH2 0x594 PUSH2 0x52E JUMP JUMPDEST JUMPDEST POP SWAP3 SWAP2 POP POP JUMP JUMPDEST PUSH0 DUP3 DUP3 MSTORE PUSH1 0x20 DUP3 ADD SWAP1 POP SWAP3 SWAP2 POP POP JUMP JUMPDEST PUSH32 0x526573756C7420776F756C64206265206E656761746976650000000000000000 PUSH0 DUP3 ADD MSTORE POP JUMP JUMPDEST PUSH0 PUSH2 0x5E0 PUSH1 0x18 DUP4 PUSH2 0x59C JUMP JUMPDEST SWAP2 POP PUSH2 0x5EB DUP3 PUSH2 0x5AC JUMP JUMPDEST PUSH1 0x20 DUP3 ADD SWAP1 POP SWAP2 SWAP1 POP JUMP JUMPDEST PUSH0 PUSH1 0x20 DUP3 ADD SWAP1 POP DUP2 DUP2 SUB PUSH0 DUP4 ADD MSTORE PUSH2 0x60D DUP2 PUSH2 0x5D4 JUMP JUMPDEST SWAP1 POP SWAP2 SWAP1 POP JUMP JUMPDEST PUSH0 PUSH2 0x61E DUP3 PUSH2 0x46A JUMP JUMPDEST SWAP2 POP PUSH2 0x629 DUP4 PUSH2 0x46A JUMP JUMPDEST SWAP3 POP DUP3 DUP3 SUB SWAP1 POP DUP2 DUP2 GT ISZERO PUSH2 0x641 JUMPI PUSH2 0x640 PUSH2 0x52E JUMP JUMPDEST JUMPDEST SWAP3 SWAP2 POP POP JUMP JUMPDEST PUSH0 PUSH2 0x651 DUP3 PUSH2 0x46A JUMP JUMPDEST SWAP2 POP PUSH2 0x65C DUP4 PUSH2 0x46A JUMP JUMPDEST SWAP3 POP DUP3 DUP3 ADD SWAP1 POP DUP1 DUP3 GT ISZERO PUSH2 0x674 JUMPI PUSH2 0x673 PUSH2 0x52E JUMP JUMPDEST JUMPDEST SWAP3 SWAP2 POP POP JUMP JUMPDEST PUSH32 0x4E487B7100000000000000000000000000000000000000000000000000000000 PUSH0 MSTORE PUSH1 0x12 PUSH1 0x4 MSTORE PUSH1 0x24 PUSH0 REVERT JUMPDEST PUSH0 PUSH2 0x6B1 DUP3 PUSH2 0x46A JUMP JUMPDEST SWAP2 POP PUSH2 0x6BC DUP4 PUSH2 0x46A JUMP JUMPDEST SWAP3 POP DUP3 PUSH2 0x6CC JUMPI PUSH2 0x6CB PUSH2 0x67A JUMP JUMPDEST JUMPDEST DUP3 DUP3 DIV SWAP1 POP SWAP3 SWAP2 POP POP JUMP JUMPDEST PUSH32 0x496E70757420746F6F206C617267650000000000000000000000000000000000 PUSH0 DUP3 ADD MSTORE POP JUMP JUMPDEST PUSH0 PUSH2 0x70B PUSH1 0xF DUP4 PUSH2 0x59C JUMP JUMPDEST SWAP2 POP PUSH2 0x716 DUP3 PUSH2 0x6D7 JUMP JUMPDEST PUSH1 0x20 DUP3 ADD SWAP1 POP SWAP2 SWAP1 POP JUMP JUMPDEST PUSH0 PUSH1 0x20 DUP3 ADD SWAP1 POP DUP2 DUP2 SUB PUSH0 DUP4 ADD MSTORE PUSH2 0x738 DUP2 PUSH2 0x6FF JUMP JUMPDEST SWAP1 POP SWAP2 SWAP1 POP JUMP JUMPDEST PUSH0 PUSH2 0x749 DUP3 PUSH2 0x46A JUMP JUMPDEST SWAP2 POP PUSH32 0xFFFFFFFFFFFFFFFFFFFFFFFFFFFFFFFFFFFFFFFFFFFFFFFFFFFFFFFFFFFFFFFF DUP3 SUB PUSH2 0x77B JUMPI PUSH2 0x77A PUSH2 0x52E JUMP JUMPDEST JUMPDEST PUSH1 0x1 DUP3 ADD SWAP1 POP SWAP2 SWAP1 POP JUMP JUMPDEST PUSH32 0x43616E6E6F7420646976696465206279207A65726F0000000000000000000000 PUSH0 DUP3 ADD MSTORE POP JUMP JUMPDEST PUSH0 PUSH2 0x7BA PUSH1 0x15 DUP4 PUSH2 0x59C JUMP JUMPDEST SWAP2 POP PUSH2 0x7C5 DUP3 PUSH2 0x786 JUMP JUMPDEST PUSH1 0x20 DUP3 ADD SWAP1 POP SWAP2 SWAP1 POP JUMP JUMPDEST PUSH0 PUSH1 0x20 DUP3 ADD SWAP1 POP DUP2 DUP2 SUB PUSH0 DUP4 ADD MSTORE PUSH2 0x7E7 DUP2 PUSH2 0x7AE JUMP JUMPDEST SWAP1 POP SWAP2 SWAP1 POP JUMP JUMPDEST PUSH0 PUSH2 0x7F8 DUP3 PUSH2 0x46A JUMP JUMPDEST SWAP2 POP PUSH2 0x803 DUP4 PUSH2 0x46A JUMP JUMPDEST SWAP3 POP DUP3 PUSH2 0x813 JUMPI PUSH2 0x812 PUSH2 0x67A JUMP JUMPDEST JUMPDEST DUP3 DUP3 MOD SWAP1 POP SWAP3 SWAP2 POP POP JUMP INVALID LOG2 PUSH5 0x6970667358 0x22 SLT KECCAK256 MCOPY 0xD8 CALLF 0x791A DUP13 0xAD KECCAK256 EOFCREATE 0x62 0xD4 0xF6 MSTORE8 PUSH22 0x8BE4FB07A57DFD2CD363883273712880D57464736F6C PUSH4 0x43000822 STOP CALLER "
				},
				"gasEstimates": {
					"creation": {
						"codeDepositCost": "426400",
						"executionCost": "459",
						"totalCost": "426859"
					},
					"external": {
						"add(uint256,uint256)": "infinite",
						"divide(uint256,uint256)": "infinite",
						"factorial(uint256)": "infinite",
						"modulus(uint256,uint256)": "infinite",
						"multiply(uint256,uint256)": "infinite",
						"power(uint256,uint256)": "infinite",
						"sqrt(uint256)": "infinite",
						"subtract(uint256,uint256)": "infinite"
					}
				},
				"methodIdentifiers": {
					"add(uint256,uint256)": "771602f7",
					"divide(uint256,uint256)": "f88e9fbf",
					"factorial(uint256)": "83714834",
					"modulus(uint256,uint256)": "ce406417",
					"multiply(uint256,uint256)": "165c4a16",
					"power(uint256,uint256)": "c04f01fc",
					"sqrt(uint256)": "677342ce",
					"subtract(uint256,uint256)": "3ef5e445"
				}
			},
			"storageLayout": {
				"storage": [],
				"types": null
			},
			"userdoc": {
				"kind": "user",
				"methods": {},
				"version": 1
			}
		}
	}
}