{
	"artifacts/powerclculas.sol": {
		"ScientificCalculator": {
			"abi": [
				{
					"inputs": [
						{
							"internalType": "int256",
							"name": "x",
							"type": "int256"
						}
					],
					"name": "absolute",
					"outputs": [
						{
							"internalType": "uint256",
							"name": "",
							"type": "uint256"
						}
					],
					"stateMutability": "pure",
					"type": "function"
				},
				{
					"inputs": [
						{
							"internalType": "uint256",
							"name": "a",
							"type": "uint256"
						},
						{
							"internalType": "uint256",
							"name": "b",
							"type": "uint256"
						}
					],
					"name": "add",
					"outputs": [
						{
							"internalType": "uint256",
							"name": "",
							"type": "uint256"
						}
					],
					"stateMutability": "pure",
					"type": "function"
				},
				{
					"inputs": [
						{
							"internalType": "uint256",
							"name": "x",
							"type": "uint256"
						}
					],
					"name": "cube",
					"outputs": [
						{
							"internalType": "uint256",
							"name": "",
							"type": "uint256"
						}
					],
					"stateMutability": "pure",
					"type": "function"
				},
				{
					"inputs": [
						{
							"internalType": "uint256",
							"name": "x",
							"type": "uint256"
						}
					],
					"name": "cubeRoot",
					"outputs": [
						{
							"internalType": "uint256",
							"name": "",
							"type": "uint256"
						}
					],
					"stateMutability": "pure",
					"type": "function"
				},
				{
					"inputs": [
						{
							"internalType": "uint256",
							"name": "a",
							"type": "uint256"
						},
						{
							"internalType": "uint256",
							"name": "b",
							"type": "uint256"
						}
					],
					"name": "divide",
					"outputs": [
						{
							"internalType": "uint256",
							"name": "",
							"type": "uint256"
						}
					],
					"stateMutability": "pure",
					"type": "function"
				},
				{
					"inputs": [
						{
							"internalType": "uint256",
							"name": "n",
							"type": "uint256"
						}
					],
					"name": "factorial",
					"outputs": [
						{
							"internalType": "uint256",
							"name": "",
							"type": "uint256"
						}
					],
					"stateMutability": "pure",
					"type": "function"
				},
				{
					"inputs": [
						{
							"internalType": "uint256",
							"name": "n",
							"type": "uint256"
						}
					],
					"name": "fibonacci",
					"outputs": [
						{
							"internalType": "uint256",
							"name": "",
							"type": "uint256"
						}
					],
					"stateMutability": "pure",
					"type": "function"
				},
				{
					"inputs": [
						{
							"internalType": "uint256",
							"name": "a",
							"type": "uint256"
						},
						{
							"internalType": "uint256",
							"name": "b",
							"type": "uint256"
						}
					],
					"name": "gcd",
					"outputs": [
						{
							"internalType": "uint256",
							"name": "",
							"type": "uint256"
						}
					],
					"stateMutability": "pure",
					"type": "function"
				},
				{
					"inputs": [
						{
							"internalType": "uint256",
							"name": "n",
							"type": "uint256"
						}
					],
					"name": "isPrime",
					"outputs": [
						{
							"internalType": "bool",
							"name": "",
							"type": "bool"
						}
					],
					"stateMutability": "pure",
					"type": "function"
				},
				{
					"inputs": [
						{
							"internalType": "uint256",
							"name": "a",
							"type": "uint256"
						},
						{
							"internalType": "uint256",
							"name": "b",
							"type": "uint256"
						}
					],
					"name": "lcm",
					"outputs": [
						{
							"internalType": "uint256",
							"name": "",
							"type": "uint256"
						}
					],
					"stateMutability": "pure",
					"type": "function"
				},
				{
					"inputs": [
						{
							"internalType": "uint256",
							"name": "a",
							"type": "uint256"
						},
						{
							"internalType": "uint256",
							"name": "b",
							"type": "uint256"
						}
					],
					"name": "modulus",
					"outputs": [
						{
							"internalType": "uint256",
							"name": "",
							"type": "uint256"
						}
					],
					"stateMutability": "pure",
					"type": "function"
				},
				{
					"inputs": [
						{
							"internalType": "uint256",
							"name": "a",
							"type": "uint256"
						},
						{
							"internalType": "uint256",
							"name": "b",
							"type": "uint256"
						}
					],
					"name": "multiply",
					"outputs": [
						{
							"internalType": "uint256",
							"name": "",
							"type": "uint256"
						}
					],
					"stateMutability": "pure",
					"type": "function"
				},
				{
					"inputs": [
						{
							"internalType": "uint256",
							"name": "base",
							"type": "uint256"
						},
						{
							"internalType": "uint256",
							"name": "exponent",
							"type": "uint256"
						}
					],
					"name": "power",
					"outputs": [
						{
							"internalType": "uint256",
							"name": "",
							"type": "uint256"
						}
					],
					"stateMutability": "pure",
					"type": "function"
				},
				{
					"inputs": [
						{
							"internalType": "uint256",
							"name": "x",
							"type": "uint256"
						}
					],
					"name": "sqrt",
					"outputs": [
						{
							"internalType": "uint256",
							"name": "",
							"type": "uint256"
						}
					],
					"stateMutability": "pure",
					"type": "function"
				},
				{
					"inputs": [
						{
							"internalType": "uint256",
							"name": "a",
							"type": "uint256"
						},
						{
							"internalType": "uint256",
							"name": "b",
							"type": "uint256"
						}
					],
					"name": "subtract",
					"outputs": [
						{
							"internalType": "uint256",
							"name": "",
							"type": "uint256"
						}
					],
					"stateMutability": "pure",
					"type": "function"
				}
			],
			"devdoc": {
				"kind": "dev",
				"methods": {},
				"version": 1
			},
			"evm": {
				"assembly": "    /* \"artifacts/powerclculas.sol\":62:3437  contract ScientificCalculator {... */\n  mstore(0x40, 0x80)\n  callvalue\n  dup1\n  iszero\n  tag_1\n  jumpi\n  revert(0x00, 0x00)\ntag_1:\n  pop\n  dataSize(sub_0)\n  dup1\n  dataOffset(sub_0)\n  0x00\n  codecopy\n  0x00\n  return\nstop\n\nsub_0: assembly {\n        /* \"artifacts/powerclculas.sol\":62:3437  contract ScientificCalculator {... */\n      mstore(0x40, 0x80)\n      callvalue\n      dup1\n      iszero\n      tag_1\n      jumpi\n      revert(0x00, 0x00)\n    tag_1:\n      pop\n      jumpi(tag_2, lt(calldatasize, 0x04))\n      shr(0xe0, calldataload(0x00))\n      dup1\n      0x83714834\n      gt\n      tag_18\n      jumpi\n      dup1\n      0xf4bf03c7\n      gt\n      tag_19\n      jumpi\n      dup1\n      0xf4bf03c7\n      eq\n      tag_14\n      jumpi\n      dup1\n      0xf4e92102\n      eq\n      tag_15\n      jumpi\n      dup1\n      0xf5794ac0\n      eq\n      tag_16\n      jumpi\n      dup1\n      0xf88e9fbf\n      eq\n      tag_17\n      jumpi\n      jump(tag_2)\n    tag_19:\n      dup1\n      0x83714834\n      eq\n      tag_10\n      jumpi\n      dup1\n      0xb9650dac\n      eq\n      tag_11\n      jumpi\n      dup1\n      0xc04f01fc\n      eq\n      tag_12\n      jumpi\n      dup1\n      0xce406417\n      eq\n      tag_13\n      jumpi\n      jump(tag_2)\n    tag_18:\n      dup1\n      0x4471ad9d\n      gt\n      tag_20\n      jumpi\n      dup1\n      0x4471ad9d\n      eq\n      tag_6\n      jumpi\n      dup1\n      0x61047ff4\n      eq\n      tag_7\n      jumpi\n      dup1\n      0x677342ce\n      eq\n      tag_8\n      jumpi\n      dup1\n      0x771602f7\n      eq\n      tag_9\n      jumpi\n      jump(tag_2)\n    tag_20:\n      dup1\n      0x165c4a16\n      eq\n      tag_3\n      jumpi\n      dup1\n      0x3ef5e445\n      eq\n      tag_4\n      jumpi\n      dup1\n      0x42703494\n      eq\n      tag_5\n      jumpi\n    tag_2:\n      revert(0x00, 0x00)\n        /* \"artifacts/powerclculas.sol\":428:529  function multiply(uint256 a, uint256 b) public pure returns (uint256) {... */\n    tag_3:\n      tag_21\n      0x04\n      dup1\n      calldatasize\n      sub\n      dup2\n      add\n      swap1\n      tag_22\n      swap2\n      swap1\n      tag_23\n      jump\t// in\n    tag_22:\n      tag_24\n      jump\t// in\n    tag_21:\n      mload(0x40)\n      tag_25\n      swap2\n      swap1\n      tag_26\n      jump\t// in\n    tag_25:\n      mload(0x40)\n      dup1\n      swap2\n      sub\n      swap1\n      return\n        /* \"artifacts/powerclculas.sol\":242:397  function subtract(uint256 a, uint256 b) public pure returns (uint256) {... */\n    tag_4:\n      tag_27\n      0x04\n      dup1\n      calldatasize\n      sub\n      dup2\n      add\n      swap1\n      tag_28\n      swap2\n      swap1\n      tag_23\n      jump\t// in\n    tag_28:\n      tag_29\n      jump\t// in\n    tag_27:\n      mload(0x40)\n      tag_30\n      swap2\n      swap1\n      tag_26\n      jump\t// in\n    tag_30:\n      mload(0x40)\n      dup1\n      swap2\n      sub\n      swap1\n      return\n        /* \"artifacts/powerclculas.sol\":2736:3071  function isPrime(uint256 n) public pure returns (bool) {... */\n    tag_5:\n      tag_31\n      0x04\n      dup1\n      calldatasize\n      sub\n      dup2\n      add\n      swap1\n      tag_32\n      swap2\n      swap1\n      tag_33\n      jump\t// in\n    tag_32:\n      tag_34\n      jump\t// in\n    tag_31:\n      mload(0x40)\n      tag_35\n      swap2\n      swap1\n      tag_36\n      jump\t// in\n    tag_35:\n      mload(0x40)\n      dup1\n      swap2\n      sub\n      swap1\n      return\n        /* \"artifacts/powerclculas.sol\":2528:2701  function lcm(uint256 a, uint256 b) public pure returns (uint256) {... */\n    tag_6:\n      tag_37\n      0x04\n      dup1\n      calldatasize\n      sub\n      dup2\n      add\n      swap1\n      tag_38\n      swap2\n      swap1\n      tag_23\n      jump\t// in\n    tag_38:\n      tag_39\n      jump\t// in\n    tag_37:\n      mload(0x40)\n      tag_40\n      swap2\n      swap1\n      tag_26\n      jump\t// in\n    tag_40:\n      mload(0x40)\n      dup1\n      swap2\n      sub\n      swap1\n      return\n        /* \"artifacts/powerclculas.sol\":3104:3434  function fibonacci(uint256 n) public pure returns (uint256) {... */\n    tag_7:\n      tag_41\n      0x04\n      dup1\n      calldatasize\n      sub\n      dup2\n      add\n      swap1\n      tag_42\n      swap2\n      swap1\n      tag_33\n      jump\t// in\n    tag_42:\n      tag_43\n      jump\t// in\n    tag_41:\n      mload(0x40)\n      tag_44\n      swap2\n      swap1\n      tag_26\n      jump\t// in\n    tag_44:\n      mload(0x40)\n      dup1\n      swap2\n      sub\n      swap1\n      return\n        /* \"artifacts/powerclculas.sol\":1485:1752  function sqrt(uint256 x) public pure returns (uint256) {... */\n    tag_8:\n      tag_45\n      0x04\n      dup1\n      calldatasize\n      sub\n      dup2\n      add\n      swap1\n      tag_46\n      swap2\n      swap1\n      tag_33\n      jump\t// in\n    tag_46:\n      tag_47\n      jump\t// in\n    tag_45:\n      mload(0x40)\n      tag_48\n      swap2\n      swap1\n      tag_26\n      jump\t// in\n    tag_48:\n      mload(0x40)\n      dup1\n      swap2\n      sub\n      swap1\n      return\n        /* \"artifacts/powerclculas.sol\":118:214  function add(uint256 a, uint256 b) public pure returns (uint256) {... */\n    tag_9:\n      tag_49\n      0x04\n      dup1\n      calldatasize\n      sub\n      dup2\n      add\n      swap1\n      tag_50\n      swap2\n      swap1\n      tag_23\n      jump\t// in\n    tag_50:\n      tag_51\n      jump\t// in\n    tag_49:\n      mload(0x40)\n      tag_52\n      swap2\n      swap1\n      tag_26\n      jump\t// in\n    tag_52:\n      mload(0x40)\n      dup1\n      swap2\n      sub\n      swap1\n      return\n        /* \"artifacts/powerclculas.sol\":1175:1429  function factorial(uint256 n) public pure returns (uint256) {... */\n    tag_10:\n      tag_53\n      0x04\n      dup1\n      calldatasize\n      sub\n      dup2\n      add\n      swap1\n      tag_54\n      swap2\n      swap1\n      tag_33\n      jump\t// in\n    tag_54:\n      tag_55\n      jump\t// in\n    tag_53:\n      mload(0x40)\n      tag_56\n      swap2\n      swap1\n      tag_26\n      jump\t// in\n    tag_56:\n      mload(0x40)\n      dup1\n      swap2\n      sub\n      swap1\n      return\n        /* \"artifacts/powerclculas.sol\":2277:2484  function gcd(uint256 a, uint256 b) public pure returns (uint256) {... */\n    tag_11:\n      tag_57\n      0x04\n      dup1\n      calldatasize\n      sub\n      dup2\n      add\n      swap1\n      tag_58\n      swap2\n      swap1\n      tag_23\n      jump\t// in\n    tag_58:\n      tag_59\n      jump\t// in\n    tag_57:\n      mload(0x40)\n      tag_60\n      swap2\n      swap1\n      tag_26\n      jump\t// in\n    tag_60:\n      mload(0x40)\n      dup1\n      swap2\n      sub\n      swap1\n      return\n        /* \"artifacts/powerclculas.sol\":917:1149  function power(uint256 base, uint256 exponent) public pure returns (uint256) {... */\n    tag_12:\n      tag_61\n      0x04\n      dup1\n      calldatasize\n      sub\n      dup2\n      add\n      swap1\n      tag_62\n      swap2\n      swap1\n      tag_23\n      jump\t// in\n    tag_62:\n      tag_63\n      jump\t// in\n    tag_61:\n      mload(0x40)\n      tag_64\n      swap2\n      swap1\n      tag_26\n      jump\t// in\n    tag_64:\n      mload(0x40)\n      dup1\n      swap2\n      sub\n      swap1\n      return\n        /* \"artifacts/powerclculas.sol\":728:879  function modulus(uint256 a, uint256 b) public pure returns (uint256) {... */\n    tag_13:\n      tag_65\n      0x04\n      dup1\n      calldatasize\n      sub\n      dup2\n      add\n      swap1\n      tag_66\n      swap2\n      swap1\n      tag_23\n      jump\t// in\n    tag_66:\n      tag_67\n      jump\t// in\n    tag_65:\n      mload(0x40)\n      tag_68\n      swap2\n      swap1\n      tag_26\n      jump\t// in\n    tag_68:\n      mload(0x40)\n      dup1\n      swap2\n      sub\n      swap1\n      return\n        /* \"artifacts/powerclculas.sol\":1773:1863  function cube(uint256 x) public pure returns (uint256) {... */\n    tag_14:\n      tag_69\n      0x04\n      dup1\n      calldatasize\n      sub\n      dup2\n      add\n      swap1\n      tag_70\n      swap2\n      swap1\n      tag_33\n      jump\t// in\n    tag_70:\n      tag_71\n      jump\t// in\n    tag_69:\n      mload(0x40)\n      tag_72\n      swap2\n      swap1\n      tag_26\n      jump\t// in\n    tag_72:\n      mload(0x40)\n      dup1\n      swap2\n      sub\n      swap1\n      return\n        /* \"artifacts/powerclculas.sol\":1897:2092  function cubeRoot(uint256 x) public pure returns (uint256) {... */\n    tag_15:\n      tag_73\n      0x04\n      dup1\n      calldatasize\n      sub\n      dup2\n      add\n      swap1\n      tag_74\n      swap2\n      swap1\n      tag_33\n      jump\t// in\n    tag_74:\n      tag_75\n      jump\t// in\n    tag_73:\n      mload(0x40)\n      tag_76\n      swap2\n      swap1\n      tag_26\n      jump\t// in\n    tag_76:\n      mload(0x40)\n      dup1\n      swap2\n      sub\n      swap1\n      return\n        /* \"artifacts/powerclculas.sol\":2123:2231  function absolute(int256 x) public pure returns (uint256) {... */\n    tag_16:\n      tag_77\n      0x04\n      dup1\n      calldatasize\n      sub\n      dup2\n      add\n      swap1\n      tag_78\n      swap2\n      swap1\n      tag_79\n      jump\t// in\n    tag_78:\n      tag_80\n      jump\t// in\n    tag_77:\n      mload(0x40)\n      tag_81\n      swap2\n      swap1\n      tag_26\n      jump\t// in\n    tag_81:\n      mload(0x40)\n      dup1\n      swap2\n      sub\n      swap1\n      return\n        /* \"artifacts/powerclculas.sol\":554:704  function divide(uint256 a, uint256 b) public pure returns (uint256) {... */\n    tag_17:\n      tag_82\n      0x04\n      dup1\n      calldatasize\n      sub\n      dup2\n      add\n      swap1\n      tag_83\n      swap2\n      swap1\n      tag_23\n      jump\t// in\n    tag_83:\n      tag_84\n      jump\t// in\n    tag_82:\n      mload(0x40)\n      tag_85\n      swap2\n      swap1\n      tag_26\n      jump\t// in\n    tag_85:\n      mload(0x40)\n      dup1\n      swap2\n      sub\n      swap1\n      return\n        /* \"artifacts/powerclculas.sol\":428:529  function multiply(uint256 a, uint256 b) public pure returns (uint256) {... */\n    tag_24:\n        /* \"artifacts/powerclculas.sol\":489:496  uint256 */\n      0x00\n        /* \"artifacts/powerclculas.sol\":520:521  b */\n      dup2\n        /* \"artifacts/powerclculas.sol\":516:517  a */\n      dup4\n        /* \"artifacts/powerclculas.sol\":516:521  a * b */\n      tag_87\n      swap2\n      swap1\n      tag_88\n      jump\t// in\n    tag_87:\n        /* \"artifacts/powerclculas.sol\":509:521  return a * b */\n      swap1\n      pop\n        /* \"artifacts/powerclculas.sol\":428:529  function multiply(uint256 a, uint256 b) public pure returns (uint256) {... */\n      swap3\n      swap2\n      pop\n      pop\n      jump\t// out\n        /* \"artifacts/powerclculas.sol\":242:397  function subtract(uint256 a, uint256 b) public pure returns (uint256) {... */\n    tag_29:\n        /* \"artifacts/powerclculas.sol\":303:310  uint256 */\n      0x00\n        /* \"artifacts/powerclculas.sol\":336:337  b */\n      dup2\n        /* \"artifacts/powerclculas.sol\":331:332  a */\n      dup4\n        /* \"artifacts/powerclculas.sol\":331:337  a >= b */\n      lt\n      iszero\n        /* \"artifacts/powerclculas.sol\":323:366  require(a >= b, \"Result would be negative\") */\n      tag_90\n      jumpi\n      mload(0x40)\n      0x08c379a000000000000000000000000000000000000000000000000000000000\n      dup2\n      mstore\n      0x04\n      add\n      tag_91\n      swap1\n      tag_92\n      jump\t// in\n    tag_91:\n      mload(0x40)\n      dup1\n      swap2\n      sub\n      swap1\n      revert\n    tag_90:\n        /* \"artifacts/powerclculas.sol\":388:389  b */\n      dup2\n        /* \"artifacts/powerclculas.sol\":384:385  a */\n      dup4\n        /* \"artifacts/powerclculas.sol\":384:389  a - b */\n      tag_93\n      swap2\n      swap1\n      tag_94\n      jump\t// in\n    tag_93:\n        /* \"artifacts/powerclculas.sol\":377:389  return a - b */\n      swap1\n      pop\n        /* \"artifacts/powerclculas.sol\":242:397  function subtract(uint256 a, uint256 b) public pure returns (uint256) {... */\n      swap3\n      swap2\n      pop\n      pop\n      jump\t// out\n        /* \"artifacts/powerclculas.sol\":2736:3071  function isPrime(uint256 n) public pure returns (bool) {... */\n    tag_34:\n        /* \"artifacts/powerclculas.sol\":2785:2789  bool */\n      0x00\n        /* \"artifacts/powerclculas.sol\":2810:2811  2 */\n      0x02\n        /* \"artifacts/powerclculas.sol\":2806:2807  n */\n      dup3\n        /* \"artifacts/powerclculas.sol\":2806:2811  n < 2 */\n      lt\n        /* \"artifacts/powerclculas.sol\":2802:2825  if (n < 2) return false */\n      iszero\n      tag_96\n      jumpi\n        /* \"artifacts/powerclculas.sol\":2820:2825  false */\n      0x00\n        /* \"artifacts/powerclculas.sol\":2813:2825  return false */\n      swap1\n      pop\n      jump(tag_95)\n        /* \"artifacts/powerclculas.sol\":2802:2825  if (n < 2) return false */\n    tag_96:\n        /* \"artifacts/powerclculas.sol\":2845:2846  2 */\n      0x02\n        /* \"artifacts/powerclculas.sol\":2840:2841  n */\n      dup3\n        /* \"artifacts/powerclculas.sol\":2840:2846  n == 2 */\n      sub\n        /* \"artifacts/powerclculas.sol\":2836:2859  if (n == 2) return true */\n      tag_97\n      jumpi\n        /* \"artifacts/powerclculas.sol\":2855:2859  true */\n      0x01\n        /* \"artifacts/powerclculas.sol\":2848:2859  return true */\n      swap1\n      pop\n      jump(tag_95)\n        /* \"artifacts/powerclculas.sol\":2836:2859  if (n == 2) return true */\n    tag_97:\n        /* \"artifacts/powerclculas.sol\":2883:2884  0 */\n      0x00\n        /* \"artifacts/powerclculas.sol\":2878:2879  2 */\n      0x02\n        /* \"artifacts/powerclculas.sol\":2874:2875  n */\n      dup4\n        /* \"artifacts/powerclculas.sol\":2874:2879  n % 2 */\n      tag_98\n      swap2\n      swap1\n      tag_99\n      jump\t// in\n    tag_98:\n        /* \"artifacts/powerclculas.sol\":2874:2884  n % 2 == 0 */\n      sub\n        /* \"artifacts/powerclculas.sol\":2870:2898  if (n % 2 == 0) return false */\n      tag_100\n      jumpi\n        /* \"artifacts/powerclculas.sol\":2893:2898  false */\n      0x00\n        /* \"artifacts/powerclculas.sol\":2886:2898  return false */\n      swap1\n      pop\n      jump(tag_95)\n        /* \"artifacts/powerclculas.sol\":2870:2898  if (n % 2 == 0) return false */\n    tag_100:\n        /* \"artifacts/powerclculas.sol\":2916:2925  uint256 i */\n      0x00\n        /* \"artifacts/powerclculas.sol\":2928:2929  3 */\n      0x03\n        /* \"artifacts/powerclculas.sol\":2916:2929  uint256 i = 3 */\n      swap1\n      pop\n        /* \"artifacts/powerclculas.sol\":2911:3040  for (uint256 i = 3; i * i <= n; i += 2) {... */\n    tag_101:\n        /* \"artifacts/powerclculas.sol\":2940:2941  n */\n      dup3\n        /* \"artifacts/powerclculas.sol\":2935:2936  i */\n      dup2\n        /* \"artifacts/powerclculas.sol\":2931:2932  i */\n      dup3\n        /* \"artifacts/powerclculas.sol\":2931:2936  i * i */\n      tag_104\n      swap2\n      swap1\n      tag_88\n      jump\t// in\n    tag_104:\n        /* \"artifacts/powerclculas.sol\":2931:2941  i * i <= n */\n      gt\n        /* \"artifacts/powerclculas.sol\":2911:3040  for (uint256 i = 3; i * i <= n; i += 2) {... */\n      tag_102\n      jumpi\n        /* \"artifacts/powerclculas.sol\":2979:2980  0 */\n      0x00\n        /* \"artifacts/powerclculas.sol\":2974:2975  i */\n      dup2\n        /* \"artifacts/powerclculas.sol\":2970:2971  n */\n      dup5\n        /* \"artifacts/powerclculas.sol\":2970:2975  n % i */\n      tag_105\n      swap2\n      swap1\n      tag_99\n      jump\t// in\n    tag_105:\n        /* \"artifacts/powerclculas.sol\":2970:2980  n % i == 0 */\n      sub\n        /* \"artifacts/powerclculas.sol\":2966:3029  if (n % i == 0) {... */\n      tag_106\n      jumpi\n        /* \"artifacts/powerclculas.sol\":3008:3013  false */\n      0x00\n        /* \"artifacts/powerclculas.sol\":3001:3013  return false */\n      swap2\n      pop\n      pop\n      jump(tag_95)\n        /* \"artifacts/powerclculas.sol\":2966:3029  if (n % i == 0) {... */\n    tag_106:\n        /* \"artifacts/powerclculas.sol\":2948:2949  2 */\n      0x02\n        /* \"artifacts/powerclculas.sol\":2943:2949  i += 2 */\n      dup2\n      tag_107\n      swap2\n      swap1\n      tag_108\n      jump\t// in\n    tag_107:\n      swap1\n      pop\n        /* \"artifacts/powerclculas.sol\":2911:3040  for (uint256 i = 3; i * i <= n; i += 2) {... */\n      jump(tag_101)\n    tag_102:\n      pop\n        /* \"artifacts/powerclculas.sol\":3059:3063  true */\n      0x01\n        /* \"artifacts/powerclculas.sol\":3052:3063  return true */\n      swap1\n      pop\n        /* \"artifacts/powerclculas.sol\":2736:3071  function isPrime(uint256 n) public pure returns (bool) {... */\n    tag_95:\n      swap2\n      swap1\n      pop\n      jump\t// out\n        /* \"artifacts/powerclculas.sol\":2528:2701  function lcm(uint256 a, uint256 b) public pure returns (uint256) {... */\n    tag_39:\n        /* \"artifacts/powerclculas.sol\":2584:2591  uint256 */\n      0x00\n        /* \"artifacts/powerclculas.sol\":2617:2618  0 */\n      0x00\n        /* \"artifacts/powerclculas.sol\":2612:2613  a */\n      dup4\n        /* \"artifacts/powerclculas.sol\":2612:2618  a != 0 */\n      eq\n      iszero\n        /* \"artifacts/powerclculas.sol\":2612:2628  a != 0 && b != 0 */\n      dup1\n      iszero\n      tag_110\n      jumpi\n      pop\n        /* \"artifacts/powerclculas.sol\":2627:2628  0 */\n      0x00\n        /* \"artifacts/powerclculas.sol\":2622:2623  b */\n      dup3\n        /* \"artifacts/powerclculas.sol\":2622:2628  b != 0 */\n      eq\n      iszero\n        /* \"artifacts/powerclculas.sol\":2612:2628  a != 0 && b != 0 */\n    tag_110:\n        /* \"artifacts/powerclculas.sol\":2604:2656  require(a != 0 && b != 0, \"Inputs must be non-zero\") */\n      tag_111\n      jumpi\n      mload(0x40)\n      0x08c379a000000000000000000000000000000000000000000000000000000000\n      dup2\n      mstore\n      0x04\n      add\n      tag_112\n      swap1\n      tag_113\n      jump\t// in\n    tag_112:\n      mload(0x40)\n      dup1\n      swap2\n      sub\n      swap1\n      revert\n    tag_111:\n        /* \"artifacts/powerclculas.sol\":2692:2693  b */\n      dup2\n        /* \"artifacts/powerclculas.sol\":2679:2688  gcd(a, b) */\n      tag_114\n        /* \"artifacts/powerclculas.sol\":2683:2684  a */\n      dup5\n        /* \"artifacts/powerclculas.sol\":2686:2687  b */\n      dup5\n        /* \"artifacts/powerclculas.sol\":2679:2682  gcd */\n      tag_59\n        /* \"artifacts/powerclculas.sol\":2679:2688  gcd(a, b) */\n      jump\t// in\n    tag_114:\n        /* \"artifacts/powerclculas.sol\":2675:2676  a */\n      dup5\n        /* \"artifacts/powerclculas.sol\":2675:2688  a / gcd(a, b) */\n      tag_115\n      swap2\n      swap1\n      tag_116\n      jump\t// in\n    tag_115:\n        /* \"artifacts/powerclculas.sol\":2674:2693  (a / gcd(a, b)) * b */\n      tag_117\n      swap2\n      swap1\n      tag_88\n      jump\t// in\n    tag_117:\n        /* \"artifacts/powerclculas.sol\":2667:2693  return (a / gcd(a, b)) * b */\n      swap1\n      pop\n        /* \"artifacts/powerclculas.sol\":2528:2701  function lcm(uint256 a, uint256 b) public pure returns (uint256) {... */\n      swap3\n      swap2\n      pop\n      pop\n      jump\t// out\n        /* \"artifacts/powerclculas.sol\":3104:3434  function fibonacci(uint256 n) public pure returns (uint256) {... */\n    tag_43:\n        /* \"artifacts/powerclculas.sol\":3155:3162  uint256 */\n      0x00\n        /* \"artifacts/powerclculas.sol\":3184:3185  0 */\n      0x00\n        /* \"artifacts/powerclculas.sol\":3179:3180  n */\n      dup3\n        /* \"artifacts/powerclculas.sol\":3179:3185  n == 0 */\n      sub\n        /* \"artifacts/powerclculas.sol\":3175:3195  if (n == 0) return 0 */\n      tag_119\n      jumpi\n        /* \"artifacts/powerclculas.sol\":3194:3195  0 */\n      0x00\n        /* \"artifacts/powerclculas.sol\":3187:3195  return 0 */\n      swap1\n      pop\n      jump(tag_118)\n        /* \"artifacts/powerclculas.sol\":3175:3195  if (n == 0) return 0 */\n    tag_119:\n        /* \"artifacts/powerclculas.sol\":3215:3216  1 */\n      0x01\n        /* \"artifacts/powerclculas.sol\":3210:3211  n */\n      dup3\n        /* \"artifacts/powerclculas.sol\":3210:3216  n == 1 */\n      sub\n        /* \"artifacts/powerclculas.sol\":3206:3226  if (n == 1) return 1 */\n      tag_120\n      jumpi\n        /* \"artifacts/powerclculas.sol\":3225:3226  1 */\n      0x01\n        /* \"artifacts/powerclculas.sol\":3218:3226  return 1 */\n      swap1\n      pop\n      jump(tag_118)\n        /* \"artifacts/powerclculas.sol\":3206:3226  if (n == 1) return 1 */\n    tag_120:\n        /* \"artifacts/powerclculas.sol\":3239:3248  uint256 a */\n      0x00\n        /* \"artifacts/powerclculas.sol\":3251:3252  0 */\n      0x00\n        /* \"artifacts/powerclculas.sol\":3239:3252  uint256 a = 0 */\n      swap1\n      pop\n        /* \"artifacts/powerclculas.sol\":3263:3272  uint256 b */\n      0x00\n        /* \"artifacts/powerclculas.sol\":3275:3276  1 */\n      0x01\n        /* \"artifacts/powerclculas.sol\":3263:3276  uint256 b = 1 */\n      swap1\n      pop\n        /* \"artifacts/powerclculas.sol\":3294:3303  uint256 i */\n      0x00\n        /* \"artifacts/powerclculas.sol\":3306:3307  2 */\n      0x02\n        /* \"artifacts/powerclculas.sol\":3294:3307  uint256 i = 2 */\n      swap1\n      pop\n        /* \"artifacts/powerclculas.sol\":3289:3406  for (uint256 i = 2; i <= n; i++) {... */\n    tag_121:\n        /* \"artifacts/powerclculas.sol\":3314:3315  n */\n      dup5\n        /* \"artifacts/powerclculas.sol\":3309:3310  i */\n      dup2\n        /* \"artifacts/powerclculas.sol\":3309:3315  i <= n */\n      gt\n        /* \"artifacts/powerclculas.sol\":3289:3406  for (uint256 i = 2; i <= n; i++) {... */\n      tag_122\n      jumpi\n        /* \"artifacts/powerclculas.sol\":3337:3346  uint256 c */\n      0x00\n        /* \"artifacts/powerclculas.sol\":3353:3354  b */\n      dup3\n        /* \"artifacts/powerclculas.sol\":3349:3350  a */\n      dup5\n        /* \"artifacts/powerclculas.sol\":3349:3354  a + b */\n      tag_124\n      swap2\n      swap1\n      tag_108\n      jump\t// in\n    tag_124:\n        /* \"artifacts/powerclculas.sol\":3337:3354  uint256 c = a + b */\n      swap1\n      pop\n        /* \"artifacts/powerclculas.sol\":3373:3374  b */\n      dup3\n        /* \"artifacts/powerclculas.sol\":3369:3374  a = b */\n      swap4\n      pop\n        /* \"artifacts/powerclculas.sol\":3393:3394  c */\n      dup1\n        /* \"artifacts/powerclculas.sol\":3389:3394  b = c */\n      swap3\n      pop\n        /* \"artifacts/powerclculas.sol\":3322:3406  {... */\n      pop\n        /* \"artifacts/powerclculas.sol\":3317:3320  i++ */\n      dup1\n      dup1\n      tag_125\n      swap1\n      tag_126\n      jump\t// in\n    tag_125:\n      swap2\n      pop\n      pop\n        /* \"artifacts/powerclculas.sol\":3289:3406  for (uint256 i = 2; i <= n; i++) {... */\n      jump(tag_121)\n    tag_122:\n      pop\n        /* \"artifacts/powerclculas.sol\":3425:3426  b */\n      dup1\n        /* \"artifacts/powerclculas.sol\":3418:3426  return b */\n      swap3\n      pop\n      pop\n      pop\n        /* \"artifacts/powerclculas.sol\":3104:3434  function fibonacci(uint256 n) public pure returns (uint256) {... */\n    tag_118:\n      swap2\n      swap1\n      pop\n      jump\t// out\n        /* \"artifacts/powerclculas.sol\":1485:1752  function sqrt(uint256 x) public pure returns (uint256) {... */\n    tag_47:\n        /* \"artifacts/powerclculas.sol\":1531:1538  uint256 */\n      0x00\n        /* \"artifacts/powerclculas.sol\":1560:1561  0 */\n      0x00\n        /* \"artifacts/powerclculas.sol\":1555:1556  x */\n      dup3\n        /* \"artifacts/powerclculas.sol\":1555:1561  x == 0 */\n      sub\n        /* \"artifacts/powerclculas.sol\":1551:1571  if (x == 0) return 0 */\n      tag_128\n      jumpi\n        /* \"artifacts/powerclculas.sol\":1570:1571  0 */\n      0x00\n        /* \"artifacts/powerclculas.sol\":1563:1571  return 0 */\n      swap1\n      pop\n      jump(tag_127)\n        /* \"artifacts/powerclculas.sol\":1551:1571  if (x == 0) return 0 */\n    tag_128:\n        /* \"artifacts/powerclculas.sol\":1584:1593  uint256 z */\n      0x00\n        /* \"artifacts/powerclculas.sol\":1606:1607  2 */\n      0x02\n        /* \"artifacts/powerclculas.sol\":1601:1602  1 */\n      0x01\n        /* \"artifacts/powerclculas.sol\":1597:1598  x */\n      dup5\n        /* \"artifacts/powerclculas.sol\":1597:1602  x + 1 */\n      tag_129\n      swap2\n      swap1\n      tag_108\n      jump\t// in\n    tag_129:\n        /* \"artifacts/powerclculas.sol\":1596:1607  (x + 1) / 2 */\n      tag_130\n      swap2\n      swap1\n      tag_116\n      jump\t// in\n    tag_130:\n        /* \"artifacts/powerclculas.sol\":1584:1607  uint256 z = (x + 1) / 2 */\n      swap1\n      pop\n        /* \"artifacts/powerclculas.sol\":1618:1627  uint256 y */\n      0x00\n        /* \"artifacts/powerclculas.sol\":1630:1631  x */\n      dup4\n        /* \"artifacts/powerclculas.sol\":1618:1631  uint256 y = x */\n      swap1\n      pop\n        /* \"artifacts/powerclculas.sol\":1644:1724  while (z < y) {... */\n    tag_131:\n        /* \"artifacts/powerclculas.sol\":1655:1656  y */\n      dup1\n        /* \"artifacts/powerclculas.sol\":1651:1652  z */\n      dup3\n        /* \"artifacts/powerclculas.sol\":1651:1656  z < y */\n      lt\n        /* \"artifacts/powerclculas.sol\":1644:1724  while (z < y) {... */\n      iszero\n      tag_132\n      jumpi\n        /* \"artifacts/powerclculas.sol\":1677:1678  z */\n      dup2\n        /* \"artifacts/powerclculas.sol\":1673:1678  y = z */\n      swap1\n      pop\n        /* \"artifacts/powerclculas.sol\":1711:1712  2 */\n      0x02\n        /* \"artifacts/powerclculas.sol\":1706:1707  z */\n      dup3\n        /* \"artifacts/powerclculas.sol\":1702:1703  z */\n      dup4\n        /* \"artifacts/powerclculas.sol\":1698:1699  x */\n      dup7\n        /* \"artifacts/powerclculas.sol\":1698:1703  x / z */\n      tag_133\n      swap2\n      swap1\n      tag_116\n      jump\t// in\n    tag_133:\n        /* \"artifacts/powerclculas.sol\":1698:1707  x / z + z */\n      tag_134\n      swap2\n      swap1\n      tag_108\n      jump\t// in\n    tag_134:\n        /* \"artifacts/powerclculas.sol\":1697:1712  (x / z + z) / 2 */\n      tag_135\n      swap2\n      swap1\n      tag_116\n      jump\t// in\n    tag_135:\n        /* \"artifacts/powerclculas.sol\":1693:1712  z = (x / z + z) / 2 */\n      swap2\n      pop\n        /* \"artifacts/powerclculas.sol\":1644:1724  while (z < y) {... */\n      jump(tag_131)\n    tag_132:\n        /* \"artifacts/powerclculas.sol\":1743:1744  y */\n      dup1\n        /* \"artifacts/powerclculas.sol\":1736:1744  return y */\n      swap3\n      pop\n      pop\n      pop\n        /* \"artifacts/powerclculas.sol\":1485:1752  function sqrt(uint256 x) public pure returns (uint256) {... */\n    tag_127:\n      swap2\n      swap1\n      pop\n      jump\t// out\n        /* \"artifacts/powerclculas.sol\":118:214  function add(uint256 a, uint256 b) public pure returns (uint256) {... */\n    tag_51:\n        /* \"artifacts/powerclculas.sol\":174:181  uint256 */\n      0x00\n        /* \"artifacts/powerclculas.sol\":205:206  b */\n      dup2\n        /* \"artifacts/powerclculas.sol\":201:202  a */\n      dup4\n        /* \"artifacts/powerclculas.sol\":201:206  a + b */\n      tag_137\n      swap2\n      swap1\n      tag_108\n      jump\t// in\n    tag_137:\n        /* \"artifacts/powerclculas.sol\":194:206  return a + b */\n      swap1\n      pop\n        /* \"artifacts/powerclculas.sol\":118:214  function add(uint256 a, uint256 b) public pure returns (uint256) {... */\n      swap3\n      swap2\n      pop\n      pop\n      jump\t// out\n        /* \"artifacts/powerclculas.sol\":1175:1429  function factorial(uint256 n) public pure returns (uint256) {... */\n    tag_55:\n        /* \"artifacts/powerclculas.sol\":1226:1233  uint256 */\n      0x00\n        /* \"artifacts/powerclculas.sol\":1259:1261  20 */\n      0x14\n        /* \"artifacts/powerclculas.sol\":1254:1255  n */\n      dup3\n        /* \"artifacts/powerclculas.sol\":1254:1261  n <= 20 */\n      gt\n      iszero\n        /* \"artifacts/powerclculas.sol\":1246:1281  require(n <= 20, \"Input too large\") */\n      tag_139\n      jumpi\n      mload(0x40)\n      0x08c379a000000000000000000000000000000000000000000000000000000000\n      dup2\n      mstore\n      0x04\n      add\n      tag_140\n      swap1\n      tag_141\n      jump\t// in\n    tag_140:\n      mload(0x40)\n      dup1\n      swap2\n      sub\n      swap1\n      revert\n    tag_139:\n        /* \"artifacts/powerclculas.sol\":1294:1308  uint256 result */\n      0x00\n        /* \"artifacts/powerclculas.sol\":1311:1312  1 */\n      0x01\n        /* \"artifacts/powerclculas.sol\":1294:1312  uint256 result = 1 */\n      swap1\n      pop\n        /* \"artifacts/powerclculas.sol\":1330:1339  uint256 i */\n      0x00\n        /* \"artifacts/powerclculas.sol\":1342:1343  2 */\n      0x02\n        /* \"artifacts/powerclculas.sol\":1330:1343  uint256 i = 2 */\n      swap1\n      pop\n        /* \"artifacts/powerclculas.sol\":1325:1396  for (uint256 i = 2; i <= n; i++) {... */\n    tag_142:\n        /* \"artifacts/powerclculas.sol\":1350:1351  n */\n      dup4\n        /* \"artifacts/powerclculas.sol\":1345:1346  i */\n      dup2\n        /* \"artifacts/powerclculas.sol\":1345:1351  i <= n */\n      gt\n        /* \"artifacts/powerclculas.sol\":1325:1396  for (uint256 i = 2; i <= n; i++) {... */\n      tag_143\n      jumpi\n        /* \"artifacts/powerclculas.sol\":1383:1384  i */\n      dup1\n        /* \"artifacts/powerclculas.sol\":1373:1384  result *= i */\n      dup3\n      tag_145\n      swap2\n      swap1\n      tag_88\n      jump\t// in\n    tag_145:\n      swap2\n      pop\n        /* \"artifacts/powerclculas.sol\":1353:1356  i++ */\n      dup1\n      dup1\n      tag_146\n      swap1\n      tag_126\n      jump\t// in\n    tag_146:\n      swap2\n      pop\n      pop\n        /* \"artifacts/powerclculas.sol\":1325:1396  for (uint256 i = 2; i <= n; i++) {... */\n      jump(tag_142)\n    tag_143:\n      pop\n        /* \"artifacts/powerclculas.sol\":1415:1421  result */\n      dup1\n        /* \"artifacts/powerclculas.sol\":1408:1421  return result */\n      swap2\n      pop\n      pop\n        /* \"artifacts/powerclculas.sol\":1175:1429  function factorial(uint256 n) public pure returns (uint256) {... */\n      swap2\n      swap1\n      pop\n      jump\t// out\n        /* \"artifacts/powerclculas.sol\":2277:2484  function gcd(uint256 a, uint256 b) public pure returns (uint256) {... */\n    tag_59:\n        /* \"artifacts/powerclculas.sol\":2333:2340  uint256 */\n      0x00\n        /* \"artifacts/powerclculas.sol\":2353:2458  while (b != 0) {... */\n    tag_148:\n        /* \"artifacts/powerclculas.sol\":2365:2366  0 */\n      0x00\n        /* \"artifacts/powerclculas.sol\":2360:2361  b */\n      dup3\n        /* \"artifacts/powerclculas.sol\":2360:2366  b != 0 */\n      eq\n        /* \"artifacts/powerclculas.sol\":2353:2458  while (b != 0) {... */\n      tag_149\n      jumpi\n        /* \"artifacts/powerclculas.sol\":2383:2395  uint256 temp */\n      0x00\n        /* \"artifacts/powerclculas.sol\":2398:2399  b */\n      dup3\n        /* \"artifacts/powerclculas.sol\":2383:2399  uint256 temp = b */\n      swap1\n      pop\n        /* \"artifacts/powerclculas.sol\":2422:2423  b */\n      dup3\n        /* \"artifacts/powerclculas.sol\":2418:2419  a */\n      dup5\n        /* \"artifacts/powerclculas.sol\":2418:2423  a % b */\n      tag_150\n      swap2\n      swap1\n      tag_99\n      jump\t// in\n    tag_150:\n        /* \"artifacts/powerclculas.sol\":2414:2423  b = a % b */\n      swap3\n      pop\n        /* \"artifacts/powerclculas.sol\":2442:2446  temp */\n      dup1\n        /* \"artifacts/powerclculas.sol\":2438:2446  a = temp */\n      swap4\n      pop\n        /* \"artifacts/powerclculas.sol\":2368:2458  {... */\n      pop\n        /* \"artifacts/powerclculas.sol\":2353:2458  while (b != 0) {... */\n      jump(tag_148)\n    tag_149:\n        /* \"artifacts/powerclculas.sol\":2475:2476  a */\n      dup3\n        /* \"artifacts/powerclculas.sol\":2468:2476  return a */\n      swap1\n      pop\n        /* \"artifacts/powerclculas.sol\":2277:2484  function gcd(uint256 a, uint256 b) public pure returns (uint256) {... */\n      swap3\n      swap2\n      pop\n      pop\n      jump\t// out\n        /* \"artifacts/powerclculas.sol\":917:1149  function power(uint256 base, uint256 exponent) public pure returns (uint256) {... */\n    tag_63:\n        /* \"artifacts/powerclculas.sol\":985:992  uint256 */\n      0x00\n        /* \"artifacts/powerclculas.sol\":1005:1019  uint256 result */\n      0x00\n        /* \"artifacts/powerclculas.sol\":1022:1023  1 */\n      0x01\n        /* \"artifacts/powerclculas.sol\":1005:1023  uint256 result = 1 */\n      swap1\n      pop\n        /* \"artifacts/powerclculas.sol\":1041:1050  uint256 i */\n      0x00\n        /* \"artifacts/powerclculas.sol\":1053:1054  0 */\n      0x00\n        /* \"artifacts/powerclculas.sol\":1041:1054  uint256 i = 0 */\n      swap1\n      pop\n        /* \"artifacts/powerclculas.sol\":1036:1116  for (uint256 i = 0; i < exponent; i++) {... */\n    tag_152:\n        /* \"artifacts/powerclculas.sol\":1060:1068  exponent */\n      dup4\n        /* \"artifacts/powerclculas.sol\":1056:1057  i */\n      dup2\n        /* \"artifacts/powerclculas.sol\":1056:1068  i < exponent */\n      lt\n        /* \"artifacts/powerclculas.sol\":1036:1116  for (uint256 i = 0; i < exponent; i++) {... */\n      iszero\n      tag_153\n      jumpi\n        /* \"artifacts/powerclculas.sol\":1100:1104  base */\n      dup5\n        /* \"artifacts/powerclculas.sol\":1090:1104  result *= base */\n      dup3\n      tag_155\n      swap2\n      swap1\n      tag_88\n      jump\t// in\n    tag_155:\n      swap2\n      pop\n        /* \"artifacts/powerclculas.sol\":1070:1073  i++ */\n      dup1\n      dup1\n      0x01\n      add\n      swap2\n      pop\n      pop\n        /* \"artifacts/powerclculas.sol\":1036:1116  for (uint256 i = 0; i < exponent; i++) {... */\n      jump(tag_152)\n    tag_153:\n      pop\n        /* \"artifacts/powerclculas.sol\":1135:1141  result */\n      dup1\n        /* \"artifacts/powerclculas.sol\":1128:1141  return result */\n      swap2\n      pop\n      pop\n        /* \"artifacts/powerclculas.sol\":917:1149  function power(uint256 base, uint256 exponent) public pure returns (uint256) {... */\n      swap3\n      swap2\n      pop\n      pop\n      jump\t// out\n        /* \"artifacts/powerclculas.sol\":728:879  function modulus(uint256 a, uint256 b) public pure returns (uint256) {... */\n    tag_67:\n        /* \"artifacts/powerclculas.sol\":788:795  uint256 */\n      0x00\n        /* \"artifacts/powerclculas.sol\":821:822  0 */\n      0x00\n        /* \"artifacts/powerclculas.sol\":816:817  b */\n      dup3\n        /* \"artifacts/powerclculas.sol\":816:822  b != 0 */\n      sub\n        /* \"artifacts/powerclculas.sol\":808:848  require(b != 0, \"Cannot divide by zero\") */\n      tag_157\n      jumpi\n      mload(0x40)\n      0x08c379a000000000000000000000000000000000000000000000000000000000\n      dup2\n      mstore\n      0x04\n      add\n      tag_158\n      swap1\n      tag_159\n      jump\t// in\n    tag_158:\n      mload(0x40)\n      dup1\n      swap2\n      sub\n      swap1\n      revert\n    tag_157:\n        /* \"artifacts/powerclculas.sol\":870:871  b */\n      dup2\n        /* \"artifacts/powerclculas.sol\":866:867  a */\n      dup4\n        /* \"artifacts/powerclculas.sol\":866:871  a % b */\n      tag_160\n      swap2\n      swap1\n      tag_99\n      jump\t// in\n    tag_160:\n        /* \"artifacts/powerclculas.sol\":859:871  return a % b */\n      swap1\n      pop\n        /* \"artifacts/powerclculas.sol\":728:879  function modulus(uint256 a, uint256 b) public pure returns (uint256) {... */\n      swap3\n      swap2\n      pop\n      pop\n      jump\t// out\n        /* \"artifacts/powerclculas.sol\":1773:1863  function cube(uint256 x) public pure returns (uint256) {... */\n    tag_71:\n        /* \"artifacts/powerclculas.sol\":1819:1826  uint256 */\n      0x00\n        /* \"artifacts/powerclculas.sol\":1854:1855  x */\n      dup2\n        /* \"artifacts/powerclculas.sol\":1850:1851  x */\n      dup3\n        /* \"artifacts/powerclculas.sol\":1846:1847  x */\n      dup4\n        /* \"artifacts/powerclculas.sol\":1846:1851  x * x */\n      tag_162\n      swap2\n      swap1\n      tag_88\n      jump\t// in\n    tag_162:\n        /* \"artifacts/powerclculas.sol\":1846:1855  x * x * x */\n      tag_163\n      swap2\n      swap1\n      tag_88\n      jump\t// in\n    tag_163:\n        /* \"artifacts/powerclculas.sol\":1839:1855  return x * x * x */\n      swap1\n      pop\n        /* \"artifacts/powerclculas.sol\":1773:1863  function cube(uint256 x) public pure returns (uint256) {... */\n      swap2\n      swap1\n      pop\n      jump\t// out\n        /* \"artifacts/powerclculas.sol\":1897:2092  function cubeRoot(uint256 x) public pure returns (uint256) {... */\n    tag_75:\n        /* \"artifacts/powerclculas.sol\":1947:1954  uint256 */\n      0x00\n        /* \"artifacts/powerclculas.sol\":1967:1976  uint256 y */\n      0x00\n        /* \"artifacts/powerclculas.sol\":1979:1980  0 */\n      0x00\n        /* \"artifacts/powerclculas.sol\":1967:1980  uint256 y = 0 */\n      swap1\n      pop\n        /* \"artifacts/powerclculas.sol\":1993:2064  while ((y + 1) * (y + 1) * (y + 1) <= x) {... */\n    tag_165:\n        /* \"artifacts/powerclculas.sol\":2031:2032  x */\n      dup3\n        /* \"artifacts/powerclculas.sol\":2025:2026  1 */\n      0x01\n        /* \"artifacts/powerclculas.sol\":2021:2022  y */\n      dup3\n        /* \"artifacts/powerclculas.sol\":2021:2026  y + 1 */\n      tag_167\n      swap2\n      swap1\n      tag_108\n      jump\t// in\n    tag_167:\n        /* \"artifacts/powerclculas.sol\":2015:2016  1 */\n      0x01\n        /* \"artifacts/powerclculas.sol\":2011:2012  y */\n      dup4\n        /* \"artifacts/powerclculas.sol\":2011:2016  y + 1 */\n      tag_168\n      swap2\n      swap1\n      tag_108\n      jump\t// in\n    tag_168:\n        /* \"artifacts/powerclculas.sol\":2005:2006  1 */\n      0x01\n        /* \"artifacts/powerclculas.sol\":2001:2002  y */\n      dup5\n        /* \"artifacts/powerclculas.sol\":2001:2006  y + 1 */\n      tag_169\n      swap2\n      swap1\n      tag_108\n      jump\t// in\n    tag_169:\n        /* \"artifacts/powerclculas.sol\":2000:2017  (y + 1) * (y + 1) */\n      tag_170\n      swap2\n      swap1\n      tag_88\n      jump\t// in\n    tag_170:\n        /* \"artifacts/powerclculas.sol\":2000:2027  (y + 1) * (y + 1) * (y + 1) */\n      tag_171\n      swap2\n      swap1\n      tag_88\n      jump\t// in\n    tag_171:\n        /* \"artifacts/powerclculas.sol\":2000:2032  (y + 1) * (y + 1) * (y + 1) <= x */\n      gt\n        /* \"artifacts/powerclculas.sol\":1993:2064  while ((y + 1) * (y + 1) * (y + 1) <= x) {... */\n      tag_166\n      jumpi\n        /* \"artifacts/powerclculas.sol\":2049:2052  y++ */\n      dup1\n      dup1\n      tag_172\n      swap1\n      tag_126\n      jump\t// in\n    tag_172:\n      swap2\n      pop\n      pop\n        /* \"artifacts/powerclculas.sol\":1993:2064  while ((y + 1) * (y + 1) * (y + 1) <= x) {... */\n      jump(tag_165)\n    tag_166:\n        /* \"artifacts/powerclculas.sol\":2083:2084  y */\n      dup1\n        /* \"artifacts/powerclculas.sol\":2076:2084  return y */\n      swap2\n      pop\n      pop\n        /* \"artifacts/powerclculas.sol\":1897:2092  function cubeRoot(uint256 x) public pure returns (uint256) {... */\n      swap2\n      swap1\n      pop\n      jump\t// out\n        /* \"artifacts/powerclculas.sol\":2123:2231  function absolute(int256 x) public pure returns (uint256) {... */\n    tag_80:\n        /* \"artifacts/powerclculas.sol\":2172:2179  uint256 */\n      0x00\n        /* \"artifacts/powerclculas.sol\":2212:2213  0 */\n      0x00\n        /* \"artifacts/powerclculas.sol\":2207:2208  x */\n      dup3\n        /* \"artifacts/powerclculas.sol\":2207:2213  x >= 0 */\n      slt\n      iszero\n        /* \"artifacts/powerclculas.sol\":2207:2222  x >= 0 ? x : -x */\n      tag_174\n      jumpi\n        /* \"artifacts/powerclculas.sol\":2221:2222  x */\n      dup2\n        /* \"artifacts/powerclculas.sol\":2220:2222  -x */\n      tag_175\n      swap1\n      tag_176\n      jump\t// in\n    tag_175:\n        /* \"artifacts/powerclculas.sol\":2207:2222  x >= 0 ? x : -x */\n      jump(tag_177)\n    tag_174:\n        /* \"artifacts/powerclculas.sol\":2216:2217  x */\n      dup2\n        /* \"artifacts/powerclculas.sol\":2207:2222  x >= 0 ? x : -x */\n    tag_177:\n        /* \"artifacts/powerclculas.sol\":2192:2223  return uint256(x >= 0 ? x : -x) */\n      swap1\n      pop\n        /* \"artifacts/powerclculas.sol\":2123:2231  function absolute(int256 x) public pure returns (uint256) {... */\n      swap2\n      swap1\n      pop\n      jump\t// out\n        /* \"artifacts/powerclculas.sol\":554:704  function divide(uint256 a, uint256 b) public pure returns (uint256) {... */\n    tag_84:\n        /* \"artifacts/powerclculas.sol\":613:620  uint256 */\n      0x00\n        /* \"artifacts/powerclculas.sol\":646:647  0 */\n      0x00\n        /* \"artifacts/powerclculas.sol\":641:642  b */\n      dup3\n        /* \"artifacts/powerclculas.sol\":641:647  b != 0 */\n      sub\n        /* \"artifacts/powerclculas.sol\":633:673  require(b != 0, \"Cannot divide by zero\") */\n      tag_179\n      jumpi\n      mload(0x40)\n      0x08c379a000000000000000000000000000000000000000000000000000000000\n      dup2\n      mstore\n      0x04\n      add\n      tag_180\n      swap1\n      tag_159\n      jump\t// in\n    tag_180:\n      mload(0x40)\n      dup1\n      swap2\n      sub\n      swap1\n      revert\n    tag_179:\n        /* \"artifacts/powerclculas.sol\":695:696  b */\n      dup2\n        /* \"artifacts/powerclculas.sol\":691:692  a */\n      dup4\n        /* \"artifacts/powerclculas.sol\":691:696  a / b */\n      tag_181\n      swap2\n      swap1\n      tag_116\n      jump\t// in\n    tag_181:\n        /* \"artifacts/powerclculas.sol\":684:696  return a / b */\n      swap1\n      pop\n        /* \"artifacts/powerclculas.sol\":554:704  function divide(uint256 a, uint256 b) public pure returns (uint256) {... */\n      swap3\n      swap2\n      pop\n      pop\n      jump\t// out\n        /* \"#utility.yul\":88:205   */\n    tag_183:\n        /* \"#utility.yul\":197:198   */\n      0x00\n        /* \"#utility.yul\":194:195   */\n      0x00\n        /* \"#utility.yul\":187:199   */\n      revert\n        /* \"#utility.yul\":334:411   */\n    tag_185:\n        /* \"#utility.yul\":371:378   */\n      0x00\n        /* \"#utility.yul\":400:405   */\n      dup2\n        /* \"#utility.yul\":389:405   */\n      swap1\n      pop\n        /* \"#utility.yul\":334:411   */\n      swap2\n      swap1\n      pop\n      jump\t// out\n        /* \"#utility.yul\":417:539   */\n    tag_186:\n        /* \"#utility.yul\":490:514   */\n      tag_211\n        /* \"#utility.yul\":508:513   */\n      dup2\n        /* \"#utility.yul\":490:514   */\n      tag_185\n      jump\t// in\n    tag_211:\n        /* \"#utility.yul\":483:488   */\n      dup2\n        /* \"#utility.yul\":480:515   */\n      eq\n        /* \"#utility.yul\":470:533   */\n      tag_212\n      jumpi\n        /* \"#utility.yul\":529:530   */\n      0x00\n        /* \"#utility.yul\":526:527   */\n      0x00\n        /* \"#utility.yul\":519:531   */\n      revert\n        /* \"#utility.yul\":470:533   */\n    tag_212:\n        /* \"#utility.yul\":417:539   */\n      pop\n      jump\t// out\n        /* \"#utility.yul\":545:684   */\n    tag_187:\n        /* \"#utility.yul\":591:596   */\n      0x00\n        /* \"#utility.yul\":629:635   */\n      dup2\n        /* \"#utility.yul\":616:636   */\n      calldataload\n        /* \"#utility.yul\":607:636   */\n      swap1\n      pop\n        /* \"#utility.yul\":645:678   */\n      tag_214\n        /* \"#utility.yul\":672:677   */\n      dup2\n        /* \"#utility.yul\":645:678   */\n      tag_186\n      jump\t// in\n    tag_214:\n        /* \"#utility.yul\":545:684   */\n      swap3\n      swap2\n      pop\n      pop\n      jump\t// out\n        /* \"#utility.yul\":690:1164   */\n    tag_23:\n        /* \"#utility.yul\":758:764   */\n      0x00\n        /* \"#utility.yul\":766:772   */\n      0x00\n        /* \"#utility.yul\":815:817   */\n      0x40\n        /* \"#utility.yul\":803:812   */\n      dup4\n        /* \"#utility.yul\":794:801   */\n      dup6\n        /* \"#utility.yul\":790:813   */\n      sub\n        /* \"#utility.yul\":786:818   */\n      slt\n        /* \"#utility.yul\":783:902   */\n      iszero\n      tag_216\n      jumpi\n        /* \"#utility.yul\":821:900   */\n      tag_217\n      tag_183\n      jump\t// in\n    tag_217:\n        /* \"#utility.yul\":783:902   */\n    tag_216:\n        /* \"#utility.yul\":941:942   */\n      0x00\n        /* \"#utility.yul\":966:1019   */\n      tag_218\n        /* \"#utility.yul\":1011:1018   */\n      dup6\n        /* \"#utility.yul\":1002:1008   */\n      dup3\n        /* \"#utility.yul\":991:1000   */\n      dup7\n        /* \"#utility.yul\":987:1009   */\n      add\n        /* \"#utility.yul\":966:1019   */\n      tag_187\n      jump\t// in\n    tag_218:\n        /* \"#utility.yul\":956:1019   */\n      swap3\n      pop\n        /* \"#utility.yul\":912:1029   */\n      pop\n        /* \"#utility.yul\":1068:1070   */\n      0x20\n        /* \"#utility.yul\":1094:1147   */\n      tag_219\n        /* \"#utility.yul\":1139:1146   */\n      dup6\n        /* \"#utility.yul\":1130:1136   */\n      dup3\n        /* \"#utility.yul\":1119:1128   */\n      dup7\n        /* \"#utility.yul\":1115:1137   */\n      add\n        /* \"#utility.yul\":1094:1147   */\n      tag_187\n      jump\t// in\n    tag_219:\n        /* \"#utility.yul\":1084:1147   */\n      swap2\n      pop\n        /* \"#utility.yul\":1039:1157   */\n      pop\n        /* \"#utility.yul\":690:1164   */\n      swap3\n      pop\n      swap3\n      swap1\n      pop\n      jump\t// out\n        /* \"#utility.yul\":1170:1288   */\n    tag_188:\n        /* \"#utility.yul\":1257:1281   */\n      tag_221\n        /* \"#utility.yul\":1275:1280   */\n      dup2\n        /* \"#utility.yul\":1257:1281   */\n      tag_185\n      jump\t// in\n    tag_221:\n        /* \"#utility.yul\":1252:1255   */\n      dup3\n        /* \"#utility.yul\":1245:1282   */\n      mstore\n        /* \"#utility.yul\":1170:1288   */\n      pop\n      pop\n      jump\t// out\n        /* \"#utility.yul\":1294:1516   */\n    tag_26:\n        /* \"#utility.yul\":1387:1391   */\n      0x00\n        /* \"#utility.yul\":1425:1427   */\n      0x20\n        /* \"#utility.yul\":1414:1423   */\n      dup3\n        /* \"#utility.yul\":1410:1428   */\n      add\n        /* \"#utility.yul\":1402:1428   */\n      swap1\n      pop\n        /* \"#utility.yul\":1438:1509   */\n      tag_223\n        /* \"#utility.yul\":1506:1507   */\n      0x00\n        /* \"#utility.yul\":1495:1504   */\n      dup4\n        /* \"#utility.yul\":1491:1508   */\n      add\n        /* \"#utility.yul\":1482:1488   */\n      dup5\n        /* \"#utility.yul\":1438:1509   */\n      tag_188\n      jump\t// in\n    tag_223:\n        /* \"#utility.yul\":1294:1516   */\n      swap3\n      swap2\n      pop\n      pop\n      jump\t// out\n        /* \"#utility.yul\":1522:1851   */\n    tag_33:\n        /* \"#utility.yul\":1581:1587   */\n      0x00\n        /* \"#utility.yul\":1630:1632   */\n      0x20\n        /* \"#utility.yul\":1618:1627   */\n      dup3\n        /* \"#utility.yul\":1609:1616   */\n      dup5\n        /* \"#utility.yul\":1605:1628   */\n      sub\n        /* \"#utility.yul\":1601:1633   */\n      slt\n        /* \"#utility.yul\":1598:1717   */\n      iszero\n      tag_225\n      jumpi\n        /* \"#utility.yul\":1636:1715   */\n      tag_226\n      tag_183\n      jump\t// in\n    tag_226:\n        /* \"#utility.yul\":1598:1717   */\n    tag_225:\n        /* \"#utility.yul\":1756:1757   */\n      0x00\n        /* \"#utility.yul\":1781:1834   */\n      tag_227\n        /* \"#utility.yul\":1826:1833   */\n      dup5\n        /* \"#utility.yul\":1817:1823   */\n      dup3\n        /* \"#utility.yul\":1806:1815   */\n      dup6\n        /* \"#utility.yul\":1802:1824   */\n      add\n        /* \"#utility.yul\":1781:1834   */\n      tag_187\n      jump\t// in\n    tag_227:\n        /* \"#utility.yul\":1771:1834   */\n      swap2\n      pop\n        /* \"#utility.yul\":1727:1844   */\n      pop\n        /* \"#utility.yul\":1522:1851   */\n      swap3\n      swap2\n      pop\n      pop\n      jump\t// out\n        /* \"#utility.yul\":1857:1947   */\n    tag_189:\n        /* \"#utility.yul\":1891:1898   */\n      0x00\n        /* \"#utility.yul\":1934:1939   */\n      dup2\n        /* \"#utility.yul\":1927:1940   */\n      iszero\n        /* \"#utility.yul\":1920:1941   */\n      iszero\n        /* \"#utility.yul\":1909:1941   */\n      swap1\n      pop\n        /* \"#utility.yul\":1857:1947   */\n      swap2\n      swap1\n      pop\n      jump\t// out\n        /* \"#utility.yul\":1953:2062   */\n    tag_190:\n        /* \"#utility.yul\":2034:2055   */\n      tag_230\n        /* \"#utility.yul\":2049:2054   */\n      dup2\n        /* \"#utility.yul\":2034:2055   */\n      tag_189\n      jump\t// in\n    tag_230:\n        /* \"#utility.yul\":2029:2032   */\n      dup3\n        /* \"#utility.yul\":2022:2056   */\n      mstore\n        /* \"#utility.yul\":1953:2062   */\n      pop\n      pop\n      jump\t// out\n        /* \"#utility.yul\":2068:2278   */\n    tag_36:\n        /* \"#utility.yul\":2155:2159   */\n      0x00\n        /* \"#utility.yul\":2193:2195   */\n      0x20\n        /* \"#utility.yul\":2182:2191   */\n      dup3\n        /* \"#utility.yul\":2178:2196   */\n      add\n        /* \"#utility.yul\":2170:2196   */\n      swap1\n      pop\n        /* \"#utility.yul\":2206:2271   */\n      tag_232\n        /* \"#utility.yul\":2268:2269   */\n      0x00\n        /* \"#utility.yul\":2257:2266   */\n      dup4\n        /* \"#utility.yul\":2253:2270   */\n      add\n        /* \"#utility.yul\":2244:2250   */\n      dup5\n        /* \"#utility.yul\":2206:2271   */\n      tag_190\n      jump\t// in\n    tag_232:\n        /* \"#utility.yul\":2068:2278   */\n      swap3\n      swap2\n      pop\n      pop\n      jump\t// out\n        /* \"#utility.yul\":2284:2360   */\n    tag_191:\n        /* \"#utility.yul\":2320:2327   */\n      0x00\n        /* \"#utility.yul\":2349:2354   */\n      dup2\n        /* \"#utility.yul\":2338:2354   */\n      swap1\n      pop\n        /* \"#utility.yul\":2284:2360   */\n      swap2\n      swap1\n      pop\n      jump\t// out\n        /* \"#utility.yul\":2366:2486   */\n    tag_192:\n        /* \"#utility.yul\":2438:2461   */\n      tag_235\n        /* \"#utility.yul\":2455:2460   */\n      dup2\n        /* \"#utility.yul\":2438:2461   */\n      tag_191\n      jump\t// in\n    tag_235:\n        /* \"#utility.yul\":2431:2436   */\n      dup2\n        /* \"#utility.yul\":2428:2462   */\n      eq\n        /* \"#utility.yul\":2418:2480   */\n      tag_236\n      jumpi\n        /* \"#utility.yul\":2476:2477   */\n      0x00\n        /* \"#utility.yul\":2473:2474   */\n      0x00\n        /* \"#utility.yul\":2466:2478   */\n      revert\n        /* \"#utility.yul\":2418:2480   */\n    tag_236:\n        /* \"#utility.yul\":2366:2486   */\n      pop\n      jump\t// out\n        /* \"#utility.yul\":2492:2629   */\n    tag_193:\n        /* \"#utility.yul\":2537:2542   */\n      0x00\n        /* \"#utility.yul\":2575:2581   */\n      dup2\n        /* \"#utility.yul\":2562:2582   */\n      calldataload\n        /* \"#utility.yul\":2553:2582   */\n      swap1\n      pop\n        /* \"#utility.yul\":2591:2623   */\n      tag_238\n        /* \"#utility.yul\":2617:2622   */\n      dup2\n        /* \"#utility.yul\":2591:2623   */\n      tag_192\n      jump\t// in\n    tag_238:\n        /* \"#utility.yul\":2492:2629   */\n      swap3\n      swap2\n      pop\n      pop\n      jump\t// out\n        /* \"#utility.yul\":2635:2962   */\n    tag_79:\n        /* \"#utility.yul\":2693:2699   */\n      0x00\n        /* \"#utility.yul\":2742:2744   */\n      0x20\n        /* \"#utility.yul\":2730:2739   */\n      dup3\n        /* \"#utility.yul\":2721:2728   */\n      dup5\n        /* \"#utility.yul\":2717:2740   */\n      sub\n        /* \"#utility.yul\":2713:2745   */\n      slt\n        /* \"#utility.yul\":2710:2829   */\n      iszero\n      tag_240\n      jumpi\n        /* \"#utility.yul\":2748:2827   */\n      tag_241\n      tag_183\n      jump\t// in\n    tag_241:\n        /* \"#utility.yul\":2710:2829   */\n    tag_240:\n        /* \"#utility.yul\":2868:2869   */\n      0x00\n        /* \"#utility.yul\":2893:2945   */\n      tag_242\n        /* \"#utility.yul\":2937:2944   */\n      dup5\n        /* \"#utility.yul\":2928:2934   */\n      dup3\n        /* \"#utility.yul\":2917:2926   */\n      dup6\n        /* \"#utility.yul\":2913:2935   */\n      add\n        /* \"#utility.yul\":2893:2945   */\n      tag_193\n      jump\t// in\n    tag_242:\n        /* \"#utility.yul\":2883:2945   */\n      swap2\n      pop\n        /* \"#utility.yul\":2839:2955   */\n      pop\n        /* \"#utility.yul\":2635:2962   */\n      swap3\n      swap2\n      pop\n      pop\n      jump\t// out\n        /* \"#utility.yul\":2968:3148   */\n    tag_194:\n        /* \"#utility.yul\":3016:3093   */\n      0x4e487b7100000000000000000000000000000000000000000000000000000000\n        /* \"#utility.yul\":3013:3014   */\n      0x00\n        /* \"#utility.yul\":3006:3094   */\n      mstore\n        /* \"#utility.yul\":3113:3117   */\n      0x11\n        /* \"#utility.yul\":3110:3111   */\n      0x04\n        /* \"#utility.yul\":3103:3118   */\n      mstore\n        /* \"#utility.yul\":3137:3141   */\n      0x24\n        /* \"#utility.yul\":3134:3135   */\n      0x00\n        /* \"#utility.yul\":3127:3142   */\n      revert\n        /* \"#utility.yul\":3154:3564   */\n    tag_88:\n        /* \"#utility.yul\":3194:3201   */\n      0x00\n        /* \"#utility.yul\":3217:3237   */\n      tag_245\n        /* \"#utility.yul\":3235:3236   */\n      dup3\n        /* \"#utility.yul\":3217:3237   */\n      tag_185\n      jump\t// in\n    tag_245:\n        /* \"#utility.yul\":3212:3237   */\n      swap2\n      pop\n        /* \"#utility.yul\":3251:3271   */\n      tag_246\n        /* \"#utility.yul\":3269:3270   */\n      dup4\n        /* \"#utility.yul\":3251:3271   */\n      tag_185\n      jump\t// in\n    tag_246:\n        /* \"#utility.yul\":3246:3271   */\n      swap3\n      pop\n        /* \"#utility.yul\":3306:3307   */\n      dup3\n        /* \"#utility.yul\":3303:3304   */\n      dup3\n        /* \"#utility.yul\":3299:3308   */\n      mul\n        /* \"#utility.yul\":3328:3358   */\n      tag_247\n        /* \"#utility.yul\":3346:3357   */\n      dup2\n        /* \"#utility.yul\":3328:3358   */\n      tag_185\n      jump\t// in\n    tag_247:\n        /* \"#utility.yul\":3317:3358   */\n      swap2\n      pop\n        /* \"#utility.yul\":3507:3508   */\n      dup3\n        /* \"#utility.yul\":3498:3505   */\n      dup3\n        /* \"#utility.yul\":3494:3509   */\n      div\n        /* \"#utility.yul\":3491:3492   */\n      dup5\n        /* \"#utility.yul\":3488:3510   */\n      eq\n        /* \"#utility.yul\":3468:3469   */\n      dup4\n        /* \"#utility.yul\":3461:3470   */\n      iszero\n        /* \"#utility.yul\":3441:3524   */\n      or\n        /* \"#utility.yul\":3418:3557   */\n      tag_248\n      jumpi\n        /* \"#utility.yul\":3537:3555   */\n      tag_249\n      tag_194\n      jump\t// in\n    tag_249:\n        /* \"#utility.yul\":3418:3557   */\n    tag_248:\n        /* \"#utility.yul\":3202:3564   */\n      pop\n        /* \"#utility.yul\":3154:3564   */\n      swap3\n      swap2\n      pop\n      pop\n      jump\t// out\n        /* \"#utility.yul\":3570:3739   */\n    tag_195:\n        /* \"#utility.yul\":3654:3665   */\n      0x00\n        /* \"#utility.yul\":3688:3694   */\n      dup3\n        /* \"#utility.yul\":3683:3686   */\n      dup3\n        /* \"#utility.yul\":3676:3695   */\n      mstore\n        /* \"#utility.yul\":3728:3732   */\n      0x20\n        /* \"#utility.yul\":3723:3726   */\n      dup3\n        /* \"#utility.yul\":3719:3733   */\n      add\n        /* \"#utility.yul\":3704:3733   */\n      swap1\n      pop\n        /* \"#utility.yul\":3570:3739   */\n      swap3\n      swap2\n      pop\n      pop\n      jump\t// out\n        /* \"#utility.yul\":3745:3919   */\n    tag_196:\n        /* \"#utility.yul\":3885:3911   */\n      0x526573756c7420776f756c64206265206e656761746976650000000000000000\n        /* \"#utility.yul\":3881:3882   */\n      0x00\n        /* \"#utility.yul\":3873:3879   */\n      dup3\n        /* \"#utility.yul\":3869:3883   */\n      add\n        /* \"#utility.yul\":3862:3912   */\n      mstore\n        /* \"#utility.yul\":3745:3919   */\n      pop\n      jump\t// out\n        /* \"#utility.yul\":3925:4291   */\n    tag_197:\n        /* \"#utility.yul\":4067:4070   */\n      0x00\n        /* \"#utility.yul\":4088:4155   */\n      tag_253\n        /* \"#utility.yul\":4152:4154   */\n      0x18\n        /* \"#utility.yul\":4147:4150   */\n      dup4\n        /* \"#utility.yul\":4088:4155   */\n      tag_195\n      jump\t// in\n    tag_253:\n        /* \"#utility.yul\":4081:4155   */\n      swap2\n      pop\n        /* \"#utility.yul\":4164:4257   */\n      tag_254\n        /* \"#utility.yul\":4253:4256   */\n      dup3\n        /* \"#utility.yul\":4164:4257   */\n      tag_196\n      jump\t// in\n    tag_254:\n        /* \"#utility.yul\":4282:4284   */\n      0x20\n        /* \"#utility.yul\":4277:4280   */\n      dup3\n        /* \"#utility.yul\":4273:4285   */\n      add\n        /* \"#utility.yul\":4266:4285   */\n      swap1\n      pop\n        /* \"#utility.yul\":3925:4291   */\n      swap2\n      swap1\n      pop\n      jump\t// out\n        /* \"#utility.yul\":4297:4716   */\n    tag_92:\n        /* \"#utility.yul\":4463:4467   */\n      0x00\n        /* \"#utility.yul\":4501:4503   */\n      0x20\n        /* \"#utility.yul\":4490:4499   */\n      dup3\n        /* \"#utility.yul\":4486:4504   */\n      add\n        /* \"#utility.yul\":4478:4504   */\n      swap1\n      pop\n        /* \"#utility.yul\":4550:4559   */\n      dup2\n        /* \"#utility.yul\":4544:4548   */\n      dup2\n        /* \"#utility.yul\":4540:4560   */\n      sub\n        /* \"#utility.yul\":4536:4537   */\n      0x00\n        /* \"#utility.yul\":4525:4534   */\n      dup4\n        /* \"#utility.yul\":4521:4538   */\n      add\n        /* \"#utility.yul\":4514:4561   */\n      mstore\n        /* \"#utility.yul\":4578:4709   */\n      tag_256\n        /* \"#utility.yul\":4704:4708   */\n      dup2\n        /* \"#utility.yul\":4578:4709   */\n      tag_197\n      jump\t// in\n    tag_256:\n        /* \"#utility.yul\":4570:4709   */\n      swap1\n      pop\n        /* \"#utility.yul\":4297:4716   */\n      swap2\n      swap1\n      pop\n      jump\t// out\n        /* \"#utility.yul\":4722:4916   */\n    tag_94:\n        /* \"#utility.yul\":4762:4766   */\n      0x00\n        /* \"#utility.yul\":4782:4802   */\n      tag_258\n        /* \"#utility.yul\":4800:4801   */\n      dup3\n        /* \"#utility.yul\":4782:4802   */\n      tag_185\n      jump\t// in\n    tag_258:\n        /* \"#utility.yul\":4777:4802   */\n      swap2\n      pop\n        /* \"#utility.yul\":4816:4836   */\n      tag_259\n        /* \"#utility.yul\":4834:4835   */\n      dup4\n        /* \"#utility.yul\":4816:4836   */\n      tag_185\n      jump\t// in\n    tag_259:\n        /* \"#utility.yul\":4811:4836   */\n      swap3\n      pop\n        /* \"#utility.yul\":4860:4861   */\n      dup3\n        /* \"#utility.yul\":4857:4858   */\n      dup3\n        /* \"#utility.yul\":4853:4862   */\n      sub\n        /* \"#utility.yul\":4845:4862   */\n      swap1\n      pop\n        /* \"#utility.yul\":4884:4885   */\n      dup2\n        /* \"#utility.yul\":4878:4882   */\n      dup2\n        /* \"#utility.yul\":4875:4886   */\n      gt\n        /* \"#utility.yul\":4872:4909   */\n      iszero\n      tag_260\n      jumpi\n        /* \"#utility.yul\":4889:4907   */\n      tag_261\n      tag_194\n      jump\t// in\n    tag_261:\n        /* \"#utility.yul\":4872:4909   */\n    tag_260:\n        /* \"#utility.yul\":4722:4916   */\n      swap3\n      swap2\n      pop\n      pop\n      jump\t// out\n        /* \"#utility.yul\":4922:5102   */\n    tag_198:\n        /* \"#utility.yul\":4970:5047   */\n      0x4e487b7100000000000000000000000000000000000000000000000000000000\n        /* \"#utility.yul\":4967:4968   */\n      0x00\n        /* \"#utility.yul\":4960:5048   */\n      mstore\n        /* \"#utility.yul\":5067:5071   */\n      0x12\n        /* \"#utility.yul\":5064:5065   */\n      0x04\n        /* \"#utility.yul\":5057:5072   */\n      mstore\n        /* \"#utility.yul\":5091:5095   */\n      0x24\n        /* \"#utility.yul\":5088:5089   */\n      0x00\n        /* \"#utility.yul\":5081:5096   */\n      revert\n        /* \"#utility.yul\":5108:5284   */\n    tag_99:\n        /* \"#utility.yul\":5140:5141   */\n      0x00\n        /* \"#utility.yul\":5157:5177   */\n      tag_264\n        /* \"#utility.yul\":5175:5176   */\n      dup3\n        /* \"#utility.yul\":5157:5177   */\n      tag_185\n      jump\t// in\n    tag_264:\n        /* \"#utility.yul\":5152:5177   */\n      swap2\n      pop\n        /* \"#utility.yul\":5191:5211   */\n      tag_265\n        /* \"#utility.yul\":5209:5210   */\n      dup4\n        /* \"#utility.yul\":5191:5211   */\n      tag_185\n      jump\t// in\n    tag_265:\n        /* \"#utility.yul\":5186:5211   */\n      swap3\n      pop\n        /* \"#utility.yul\":5230:5231   */\n      dup3\n        /* \"#utility.yul\":5220:5255   */\n      tag_266\n      jumpi\n        /* \"#utility.yul\":5235:5253   */\n      tag_267\n      tag_198\n      jump\t// in\n    tag_267:\n        /* \"#utility.yul\":5220:5255   */\n    tag_266:\n        /* \"#utility.yul\":5276:5277   */\n      dup3\n        /* \"#utility.yul\":5273:5274   */\n      dup3\n        /* \"#utility.yul\":5269:5278   */\n      mod\n        /* \"#utility.yul\":5264:5278   */\n      swap1\n      pop\n        /* \"#utility.yul\":5108:5284   */\n      swap3\n      swap2\n      pop\n      pop\n      jump\t// out\n        /* \"#utility.yul\":5290:5481   */\n    tag_108:\n        /* \"#utility.yul\":5330:5333   */\n      0x00\n        /* \"#utility.yul\":5349:5369   */\n      tag_269\n        /* \"#utility.yul\":5367:5368   */\n      dup3\n        /* \"#utility.yul\":5349:5369   */\n      tag_185\n      jump\t// in\n    tag_269:\n        /* \"#utility.yul\":5344:5369   */\n      swap2\n      pop\n        /* \"#utility.yul\":5383:5403   */\n      tag_270\n        /* \"#utility.yul\":5401:5402   */\n      dup4\n        /* \"#utility.yul\":5383:5403   */\n      tag_185\n      jump\t// in\n    tag_270:\n        /* \"#utility.yul\":5378:5403   */\n      swap3\n      pop\n        /* \"#utility.yul\":5426:5427   */\n      dup3\n        /* \"#utility.yul\":5423:5424   */\n      dup3\n        /* \"#utility.yul\":5419:5428   */\n      add\n        /* \"#utility.yul\":5412:5428   */\n      swap1\n      pop\n        /* \"#utility.yul\":5447:5450   */\n      dup1\n        /* \"#utility.yul\":5444:5445   */\n      dup3\n        /* \"#utility.yul\":5441:5451   */\n      gt\n        /* \"#utility.yul\":5438:5474   */\n      iszero\n      tag_271\n      jumpi\n        /* \"#utility.yul\":5454:5472   */\n      tag_272\n      tag_194\n      jump\t// in\n    tag_272:\n        /* \"#utility.yul\":5438:5474   */\n    tag_271:\n        /* \"#utility.yul\":5290:5481   */\n      swap3\n      swap2\n      pop\n      pop\n      jump\t// out\n        /* \"#utility.yul\":5487:5660   */\n    tag_199:\n        /* \"#utility.yul\":5627:5652   */\n      0x496e70757473206d757374206265206e6f6e2d7a65726f000000000000000000\n        /* \"#utility.yul\":5623:5624   */\n      0x00\n        /* \"#utility.yul\":5615:5621   */\n      dup3\n        /* \"#utility.yul\":5611:5625   */\n      add\n        /* \"#utility.yul\":5604:5653   */\n      mstore\n        /* \"#utility.yul\":5487:5660   */\n      pop\n      jump\t// out\n        /* \"#utility.yul\":5666:6032   */\n    tag_200:\n        /* \"#utility.yul\":5808:5811   */\n      0x00\n        /* \"#utility.yul\":5829:5896   */\n      tag_275\n        /* \"#utility.yul\":5893:5895   */\n      0x17\n        /* \"#utility.yul\":5888:5891   */\n      dup4\n        /* \"#utility.yul\":5829:5896   */\n      tag_195\n      jump\t// in\n    tag_275:\n        /* \"#utility.yul\":5822:5896   */\n      swap2\n      pop\n        /* \"#utility.yul\":5905:5998   */\n      tag_276\n        /* \"#utility.yul\":5994:5997   */\n      dup3\n        /* \"#utility.yul\":5905:5998   */\n      tag_199\n      jump\t// in\n    tag_276:\n        /* \"#utility.yul\":6023:6025   */\n      0x20\n        /* \"#utility.yul\":6018:6021   */\n      dup3\n        /* \"#utility.yul\":6014:6026   */\n      add\n        /* \"#utility.yul\":6007:6026   */\n      swap1\n      pop\n        /* \"#utility.yul\":5666:6032   */\n      swap2\n      swap1\n      pop\n      jump\t// out\n        /* \"#utility.yul\":6038:6457   */\n    tag_113:\n        /* \"#utility.yul\":6204:6208   */\n      0x00\n        /* \"#utility.yul\":6242:6244   */\n      0x20\n        /* \"#utility.yul\":6231:6240   */\n      dup3\n        /* \"#utility.yul\":6227:6245   */\n      add\n        /* \"#utility.yul\":6219:6245   */\n      swap1\n      pop\n        /* \"#utility.yul\":6291:6300   */\n      dup2\n        /* \"#utility.yul\":6285:6289   */\n      dup2\n        /* \"#utility.yul\":6281:6301   */\n      sub\n        /* \"#utility.yul\":6277:6278   */\n      0x00\n        /* \"#utility.yul\":6266:6275   */\n      dup4\n        /* \"#utility.yul\":6262:6279   */\n      add\n        /* \"#utility.yul\":6255:6302   */\n      mstore\n        /* \"#utility.yul\":6319:6450   */\n      tag_278\n        /* \"#utility.yul\":6445:6449   */\n      dup2\n        /* \"#utility.yul\":6319:6450   */\n      tag_200\n      jump\t// in\n    tag_278:\n        /* \"#utility.yul\":6311:6450   */\n      swap1\n      pop\n        /* \"#utility.yul\":6038:6457   */\n      swap2\n      swap1\n      pop\n      jump\t// out\n        /* \"#utility.yul\":6463:6648   */\n    tag_116:\n        /* \"#utility.yul\":6503:6504   */\n      0x00\n        /* \"#utility.yul\":6520:6540   */\n      tag_280\n        /* \"#utility.yul\":6538:6539   */\n      dup3\n        /* \"#utility.yul\":6520:6540   */\n      tag_185\n      jump\t// in\n    tag_280:\n        /* \"#utility.yul\":6515:6540   */\n      swap2\n      pop\n        /* \"#utility.yul\":6554:6574   */\n      tag_281\n        /* \"#utility.yul\":6572:6573   */\n      dup4\n        /* \"#utility.yul\":6554:6574   */\n      tag_185\n      jump\t// in\n    tag_281:\n        /* \"#utility.yul\":6549:6574   */\n      swap3\n      pop\n        /* \"#utility.yul\":6593:6594   */\n      dup3\n        /* \"#utility.yul\":6583:6618   */\n      tag_282\n      jumpi\n        /* \"#utility.yul\":6598:6616   */\n      tag_283\n      tag_198\n      jump\t// in\n    tag_283:\n        /* \"#utility.yul\":6583:6618   */\n    tag_282:\n        /* \"#utility.yul\":6640:6641   */\n      dup3\n        /* \"#utility.yul\":6637:6638   */\n      dup3\n        /* \"#utility.yul\":6633:6642   */\n      div\n        /* \"#utility.yul\":6628:6642   */\n      swap1\n      pop\n        /* \"#utility.yul\":6463:6648   */\n      swap3\n      swap2\n      pop\n      pop\n      jump\t// out\n        /* \"#utility.yul\":6654:6887   */\n    tag_126:\n        /* \"#utility.yul\":6693:6696   */\n      0x00\n        /* \"#utility.yul\":6716:6740   */\n      tag_285\n        /* \"#utility.yul\":6734:6739   */\n      dup3\n        /* \"#utility.yul\":6716:6740   */\n      tag_185\n      jump\t// in\n    tag_285:\n        /* \"#utility.yul\":6707:6740   */\n      swap2\n      pop\n        /* \"#utility.yul\":6762:6828   */\n      0xffffffffffffffffffffffffffffffffffffffffffffffffffffffffffffffff\n        /* \"#utility.yul\":6755:6760   */\n      dup3\n        /* \"#utility.yul\":6752:6829   */\n      sub\n        /* \"#utility.yul\":6749:6852   */\n      tag_286\n      jumpi\n        /* \"#utility.yul\":6832:6850   */\n      tag_287\n      tag_194\n      jump\t// in\n    tag_287:\n        /* \"#utility.yul\":6749:6852   */\n    tag_286:\n        /* \"#utility.yul\":6879:6880   */\n      0x01\n        /* \"#utility.yul\":6872:6877   */\n      dup3\n        /* \"#utility.yul\":6868:6881   */\n      add\n        /* \"#utility.yul\":6861:6881   */\n      swap1\n      pop\n        /* \"#utility.yul\":6654:6887   */\n      swap2\n      swap1\n      pop\n      jump\t// out\n        /* \"#utility.yul\":6893:7058   */\n    tag_201:\n        /* \"#utility.yul\":7033:7050   */\n      0x496e70757420746f6f206c617267650000000000000000000000000000000000\n        /* \"#utility.yul\":7029:7030   */\n      0x00\n        /* \"#utility.yul\":7021:7027   */\n      dup3\n        /* \"#utility.yul\":7017:7031   */\n      add\n        /* \"#utility.yul\":7010:7051   */\n      mstore\n        /* \"#utility.yul\":6893:7058   */\n      pop\n      jump\t// out\n        /* \"#utility.yul\":7064:7430   */\n    tag_202:\n        /* \"#utility.yul\":7206:7209   */\n      0x00\n        /* \"#utility.yul\":7227:7294   */\n      tag_290\n        /* \"#utility.yul\":7291:7293   */\n      0x0f\n        /* \"#utility.yul\":7286:7289   */\n      dup4\n        /* \"#utility.yul\":7227:7294   */\n      tag_195\n      jump\t// in\n    tag_290:\n        /* \"#utility.yul\":7220:7294   */\n      swap2\n      pop\n        /* \"#utility.yul\":7303:7396   */\n      tag_291\n        /* \"#utility.yul\":7392:7395   */\n      dup3\n        /* \"#utility.yul\":7303:7396   */\n      tag_201\n      jump\t// in\n    tag_291:\n        /* \"#utility.yul\":7421:7423   */\n      0x20\n        /* \"#utility.yul\":7416:7419   */\n      dup3\n        /* \"#utility.yul\":7412:7424   */\n      add\n        /* \"#utility.yul\":7405:7424   */\n      swap1\n      pop\n        /* \"#utility.yul\":7064:7430   */\n      swap2\n      swap1\n      pop\n      jump\t// out\n        /* \"#utility.yul\":7436:7855   */\n    tag_141:\n        /* \"#utility.yul\":7602:7606   */\n      0x00\n        /* \"#utility.yul\":7640:7642   */\n      0x20\n        /* \"#utility.yul\":7629:7638   */\n      dup3\n        /* \"#utility.yul\":7625:7643   */\n      add\n        /* \"#utility.yul\":7617:7643   */\n      swap1\n      pop\n        /* \"#utility.yul\":7689:7698   */\n      dup2\n        /* \"#utility.yul\":7683:7687   */\n      dup2\n        /* \"#utility.yul\":7679:7699   */\n      sub\n        /* \"#utility.yul\":7675:7676   */\n      0x00\n        /* \"#utility.yul\":7664:7673   */\n      dup4\n        /* \"#utility.yul\":7660:7677   */\n      add\n        /* \"#utility.yul\":7653:7700   */\n      mstore\n        /* \"#utility.yul\":7717:7848   */\n      tag_293\n        /* \"#utility.yul\":7843:7847   */\n      dup2\n        /* \"#utility.yul\":7717:7848   */\n      tag_202\n      jump\t// in\n    tag_293:\n        /* \"#utility.yul\":7709:7848   */\n      swap1\n      pop\n        /* \"#utility.yul\":7436:7855   */\n      swap2\n      swap1\n      pop\n      jump\t// out\n        /* \"#utility.yul\":7861:8032   */\n    tag_203:\n        /* \"#utility.yul\":8001:8024   */\n      0x43616e6e6f7420646976696465206279207a65726f0000000000000000000000\n        /* \"#utility.yul\":7997:7998   */\n      0x00\n        /* \"#utility.yul\":7989:7995   */\n      dup3\n        /* \"#utility.yul\":7985:7999   */\n      add\n        /* \"#utility.yul\":7978:8025   */\n      mstore\n        /* \"#utility.yul\":7861:8032   */\n      pop\n      jump\t// out\n        /* \"#utility.yul\":8038:8404   */\n    tag_204:\n        /* \"#utility.yul\":8180:8183   */\n      0x00\n        /* \"#utility.yul\":8201:8268   */\n      tag_296\n        /* \"#utility.yul\":8265:8267   */\n      0x15\n        /* \"#utility.yul\":8260:8263   */\n      dup4\n        /* \"#utility.yul\":8201:8268   */\n      tag_195\n      jump\t// in\n    tag_296:\n        /* \"#utility.yul\":8194:8268   */\n      swap2\n      pop\n        /* \"#utility.yul\":8277:8370   */\n      tag_297\n        /* \"#utility.yul\":8366:8369   */\n      dup3\n        /* \"#utility.yul\":8277:8370   */\n      tag_203\n      jump\t// in\n    tag_297:\n        /* \"#utility.yul\":8395:8397   */\n      0x20\n        /* \"#utility.yul\":8390:8393   */\n      dup3\n        /* \"#utility.yul\":8386:8398   */\n      add\n        /* \"#utility.yul\":8379:8398   */\n      swap1\n      pop\n        /* \"#utility.yul\":8038:8404   */\n      swap2\n      swap1\n      pop\n      jump\t// out\n        /* \"#utility.yul\":8410:8829   */\n    tag_159:\n        /* \"#utility.yul\":8576:8580   */\n      0x00\n        /* \"#utility.yul\":8614:8616   */\n      0x20\n        /* \"#utility.yul\":8603:8612   */\n      dup3\n        /* \"#utility.yul\":8599:8617   */\n      add\n        /* \"#utility.yul\":8591:8617   */\n      swap1\n      pop\n        /* \"#utility.yul\":8663:8672   */\n      dup2\n        /* \"#utility.yul\":8657:8661   */\n      dup2\n        /* \"#utility.yul\":8653:8673   */\n      sub\n        /* \"#utility.yul\":8649:8650   */\n      0x00\n        /* \"#utility.yul\":8638:8647   */\n      dup4\n        /* \"#utility.yul\":8634:8651   */\n      add\n        /* \"#utility.yul\":8627:8674   */\n      mstore\n        /* \"#utility.yul\":8691:8822   */\n      tag_299\n        /* \"#utility.yul\":8817:8821   */\n      dup2\n        /* \"#utility.yul\":8691:8822   */\n      tag_204\n      jump\t// in\n    tag_299:\n        /* \"#utility.yul\":8683:8822   */\n      swap1\n      pop\n        /* \"#utility.yul\":8410:8829   */\n      swap2\n      swap1\n      pop\n      jump\t// out\n        /* \"#utility.yul\":8835:9063   */\n    tag_176:\n        /* \"#utility.yul\":8870:8873   */\n      0x00\n        /* \"#utility.yul\":8893:8916   */\n      tag_301\n        /* \"#utility.yul\":8910:8915   */\n      dup3\n        /* \"#utility.yul\":8893:8916   */\n      tag_191\n      jump\t// in\n    tag_301:\n        /* \"#utility.yul\":8884:8916   */\n      swap2\n      pop\n        /* \"#utility.yul\":8938:9004   */\n      0x8000000000000000000000000000000000000000000000000000000000000000\n        /* \"#utility.yul\":8931:8936   */\n      dup3\n        /* \"#utility.yul\":8928:9005   */\n      sub\n        /* \"#utility.yul\":8925:9028   */\n      tag_302\n      jumpi\n        /* \"#utility.yul\":9008:9026   */\n      tag_303\n      tag_194\n      jump\t// in\n    tag_303:\n        /* \"#utility.yul\":8925:9028   */\n    tag_302:\n        /* \"#utility.yul\":9051:9056   */\n      dup2\n        /* \"#utility.yul\":9048:9049   */\n      0x00\n        /* \"#utility.yul\":9044:9057   */\n      sub\n        /* \"#utility.yul\":9037:9057   */\n      swap1\n      pop\n        /* \"#utility.yul\":8835:9063   */\n      swap2\n      swap1\n      pop\n      jump\t// out\n\n    auxdata: 0xa2646970667358221220cb1a2c318f02d05f48cebd524cde41511bf777c0cf5b03165c060ec8f635ab0864736f6c63430008220033\n}\n",
				"bytecode": {
					"linkReferences": {},
					"object": "6080604052348015600e575f5ffd5b50610d948061001c5f395ff3fe608060405234801561000f575f5ffd5b50600436106100f3575f3560e01c80638371483411610095578063f4bf03c711610064578063f4bf03c714610307578063f4e9210214610337578063f5794ac014610367578063f88e9fbf14610397576100f3565b80638371483414610247578063b9650dac14610277578063c04f01fc146102a7578063ce406417146102d7576100f3565b80634471ad9d116100d15780634471ad9d1461018757806361047ff4146101b7578063677342ce146101e7578063771602f714610217576100f3565b8063165c4a16146100f75780633ef5e445146101275780634270349414610157575b5f5ffd5b610111600480360381019061010c919061089e565b6103c7565b60405161011e91906108eb565b60405180910390f35b610141600480360381019061013c919061089e565b6103dc565b60405161014e91906108eb565b60405180910390f35b610171600480360381019061016c9190610904565b610434565b60405161017e9190610949565b60405180910390f35b6101a1600480360381019061019c919061089e565b6104c4565b6040516101ae91906108eb565b60405180910390f35b6101d160048036038101906101cc9190610904565b61053c565b6040516101de91906108eb565b60405180910390f35b61020160048036038101906101fc9190610904565b6105a8565b60405161020e91906108eb565b60405180910390f35b610231600480360381019061022c919061089e565b610619565b60405161023e91906108eb565b60405180910390f35b610261600480360381019061025c9190610904565b61062e565b60405161026e91906108eb565b60405180910390f35b610291600480360381019061028c919061089e565b6106b0565b60405161029e91906108eb565b60405180910390f35b6102c160048036038101906102bc919061089e565b6106dd565b6040516102ce91906108eb565b60405180910390f35b6102f160048036038101906102ec919061089e565b610716565b6040516102fe91906108eb565b60405180910390f35b610321600480360381019061031c9190610904565b61076d565b60405161032e91906108eb565b60405180910390f35b610351600480360381019061034c9190610904565b61078c565b60405161035e91906108eb565b60405180910390f35b610381600480360381019061037c9190610995565b6107ef565b60405161038e91906108eb565b60405180910390f35b6103b160048036038101906103ac919061089e565b610810565b6040516103be91906108eb565b60405180910390f35b5f81836103d491906109ed565b905092915050565b5f81831015610420576040517f08c379a000000000000000000000000000000000000000000000000000000000815260040161041790610a88565b60405180910390fd5b818361042c9190610aa6565b905092915050565b5f6002821015610446575f90506104bf565b6002820361045757600190506104bf565b5f6002836104659190610b06565b03610472575f90506104bf565b5f600390505b82818261048591906109ed565b116104b9575f81846104979190610b06565b036104a5575f9150506104bf565b6002816104b29190610b36565b9050610478565b50600190505b919050565b5f5f83141580156104d557505f8214155b610514576040517f08c379a000000000000000000000000000000000000000000000000000000000815260040161050b90610bb3565b60405180910390fd5b8161051f84846106b0565b8461052a9190610bd1565b61053491906109ed565b905092915050565b5f5f820361054c575f90506105a3565b6001820361055d57600190506105a3565b5f5f90505f600190505f600290505b84811161059c575f82846105809190610b36565b905082935080925050808061059490610c01565b91505061056c565b5080925050505b919050565b5f5f82036105b8575f9050610614565b5f60026001846105c89190610b36565b6105d29190610bd1565b90505f8390505b8082101561060e5781905060028283866105f39190610bd1565b6105fd9190610b36565b6106079190610bd1565b91506105d9565b80925050505b919050565b5f81836106269190610b36565b905092915050565b5f6014821115610673576040517f08c379a000000000000000000000000000000000000000000000000000000000815260040161066a90610c92565b60405180910390fd5b5f600190505f600290505b8381116106a657808261069191906109ed565b9150808061069e90610c01565b91505061067e565b5080915050919050565b5f5b5f82146106d4575f82905082846106c99190610b06565b9250809350506106b2565b82905092915050565b5f5f600190505f5f90505b8381101561070b5784826106fc91906109ed565b915080806001019150506106e8565b508091505092915050565b5f5f8203610759576040517f08c379a000000000000000000000000000000000000000000000000000000000815260040161075090610cfa565b60405180910390fd5b81836107659190610b06565b905092915050565b5f81828361077b91906109ed565b61078591906109ed565b9050919050565b5f5f5f90505b826001826107a09190610b36565b6001836107ad9190610b36565b6001846107ba9190610b36565b6107c491906109ed565b6107ce91906109ed565b116107e65780806107de90610c01565b915050610792565b80915050919050565b5f5f821215610807578161080290610d18565b610809565b815b9050919050565b5f5f8203610853576040517f08c379a000000000000000000000000000000000000000000000000000000000815260040161084a90610cfa565b60405180910390fd5b818361085f9190610bd1565b905092915050565b5f5ffd5b5f819050919050565b61087d8161086b565b8114610887575f5ffd5b50565b5f8135905061089881610874565b92915050565b5f5f604083850312156108b4576108b3610867565b5b5f6108c18582860161088a565b92505060206108d28582860161088a565b9150509250929050565b6108e58161086b565b82525050565b5f6020820190506108fe5f8301846108dc565b92915050565b5f6020828403121561091957610918610867565b5b5f6109268482850161088a565b91505092915050565b5f8115159050919050565b6109438161092f565b82525050565b5f60208201905061095c5f83018461093a565b92915050565b5f819050919050565b61097481610962565b811461097e575f5ffd5b50565b5f8135905061098f8161096b565b92915050565b5f602082840312156109aa576109a9610867565b5b5f6109b784828501610981565b91505092915050565b7f4e487b71000000000000000000000000000000000000000000000000000000005f52601160045260245ffd5b5f6109f78261086b565b9150610a028361086b565b9250828202610a108161086b565b91508282048414831517610a2757610a266109c0565b5b5092915050565b5f82825260208201905092915050565b7f526573756c7420776f756c64206265206e6567617469766500000000000000005f82015250565b5f610a72601883610a2e565b9150610a7d82610a3e565b602082019050919050565b5f6020820190508181035f830152610a9f81610a66565b9050919050565b5f610ab08261086b565b9150610abb8361086b565b9250828203905081811115610ad357610ad26109c0565b5b92915050565b7f4e487b71000000000000000000000000000000000000000000000000000000005f52601260045260245ffd5b5f610b108261086b565b9150610b1b8361086b565b925082610b2b57610b2a610ad9565b5b828206905092915050565b5f610b408261086b565b9150610b4b8361086b565b9250828201905080821115610b6357610b626109c0565b5b92915050565b7f496e70757473206d757374206265206e6f6e2d7a65726f0000000000000000005f82015250565b5f610b9d601783610a2e565b9150610ba882610b69565b602082019050919050565b5f6020820190508181035f830152610bca81610b91565b9050919050565b5f610bdb8261086b565b9150610be68361086b565b925082610bf657610bf5610ad9565b5b828204905092915050565b5f610c0b8261086b565b91507fffffffffffffffffffffffffffffffffffffffffffffffffffffffffffffffff8203610c3d57610c3c6109c0565b5b600182019050919050565b7f496e70757420746f6f206c6172676500000000000000000000000000000000005f82015250565b5f610c7c600f83610a2e565b9150610c8782610c48565b602082019050919050565b5f6020820190508181035f830152610ca981610c70565b9050919050565b7f43616e6e6f7420646976696465206279207a65726f00000000000000000000005f82015250565b5f610ce4601583610a2e565b9150610cef82610cb0565b602082019050919050565b5f6020820190508181035f830152610d1181610cd8565b9050919050565b5f610d2282610962565b91507f80000000000000000000000000000000000000000000000000000000000000008203610d5457610d536109c0565b5b815f03905091905056fea2646970667358221220cb1a2c318f02d05f48cebd524cde41511bf777c0cf5b03165c060ec8f635ab0864736f6c63430008220033",
					"opcodes": "PUSH1 0x80 PUSH1 0x40 MSTORE CALLVALUE DUP1 ISZERO PUSH1 0xE JUMPI PUSH0 PUSH0 REVERT JUMPDEST POP PUSH2 0xD94 DUP1 PUSH2 0x1C PUSH0 CODECOPY PUSH0 RETURN INVALID PUSH1 0x80 PUSH1 0x40 MSTORE CALLVALUE DUP1 ISZERO PUSH2 0xF JUMPI PUSH0 PUSH0 REVERT JUMPDEST POP PUSH1 0x4 CALLDATASIZE LT PUSH2 0xF3 JUMPI PUSH0 CALLDATALOAD PUSH1 0xE0 SHR DUP1 PUSH4 0x83714834 GT PUSH2 0x95 JUMPI DUP1 PUSH4 0xF4BF03C7 GT PUSH2 0x64 JUMPI DUP1 PUSH4 0xF4BF03C7 EQ PUSH2 0x307 JUMPI DUP1 PUSH4 0xF4E92102 EQ PUSH2 0x337 JUMPI DUP1 PUSH4 0xF5794AC0 EQ PUSH2 0x367 JUMPI DUP1 PUSH4 0xF88E9FBF EQ PUSH2 0x397 JUMPI PUSH2 0xF3 JUMP JUMPDEST DUP1 PUSH4 0x83714834 EQ PUSH2 0x247 JUMPI DUP1 PUSH4 0xB9650DAC EQ PUSH2 0x277 JUMPI DUP1 PUSH4 0xC04F01FC EQ PUSH2 0x2A7 JUMPI DUP1 PUSH4 0xCE406417 EQ PUSH2 0x2D7 JUMPI PUSH2 0xF3 JUMP JUMPDEST DUP1 PUSH4 0x4471AD9D GT PUSH2 0xD1 JUMPI DUP1 PUSH4 0x4471AD9D EQ PUSH2 0x187 JUMPI DUP1 PUSH4 0x61047FF4 EQ PUSH2 0x1B7 JUMPI DUP1 PUSH4 0x677342CE EQ PUSH2 0x1E7 JUMPI DUP1 PUSH4 0x771602F7 EQ PUSH2 0x217 JUMPI PUSH2 0xF3 JUMP JUMPDEST DUP1 PUSH4 0x165C4A16 EQ PUSH2 0xF7 JUMPI DUP1 PUSH4 0x3EF5E445 EQ PUSH2 0x127 JUMPI DUP1 PUSH4 0x42703494 EQ PUSH2 0x157 JUMPI JUMPDEST PUSH0 PUSH0 REVERT JUMPDEST PUSH2 0x111 PUSH1 0x4 DUP1 CALLDATASIZE SUB DUP2 ADD SWAP1 PUSH2 0x10C SWAP2 SWAP1 PUSH2 0x89E JUMP JUMPDEST PUSH2 0x3C7 JUMP JUMPDEST PUSH1 0x40 MLOAD PUSH2 0x11E SWAP2 SWAP1 PUSH2 0x8EB JUMP JUMPDEST PUSH1 0x40 MLOAD DUP1 SWAP2 SUB SWAP1 RETURN JUMPDEST PUSH2 0x141 PUSH1 0x4 DUP1 CALLDATASIZE SUB DUP2 ADD SWAP1 PUSH2 0x13C SWAP2 SWAP1 PUSH2 0x89E JUMP JUMPDEST PUSH2 0x3DC JUMP JUMPDEST PUSH1 0x40 MLOAD PUSH2 0x14E SWAP2 SWAP1 PUSH2 0x8EB JUMP JUMPDEST PUSH1 0x40 MLOAD DUP1 SWAP2 SUB SWAP1 RETURN JUMPDEST PUSH2 0x171 PUSH1 0x4 DUP1 CALLDATASIZE SUB DUP2 ADD SWAP1 PUSH2 0x16C SWAP2 SWAP1 PUSH2 0x904 JUMP JUMPDEST PUSH2 0x434 JUMP JUMPDEST PUSH1 0x40 MLOAD PUSH2 0x17E SWAP2 SWAP1 PUSH2 0x949 JUMP JUMPDEST PUSH1 0x40 MLOAD DUP1 SWAP2 SUB SWAP1 RETURN JUMPDEST PUSH2 0x1A1 PUSH1 0x4 DUP1 CALLDATASIZE SUB DUP2 ADD SWAP1 PUSH2 0x19C SWAP2 SWAP1 PUSH2 0x89E JUMP JUMPDEST PUSH2 0x4C4 JUMP JUMPDEST PUSH1 0x40 MLOAD PUSH2 0x1AE SWAP2 SWAP1 PUSH2 0x8EB JUMP JUMPDEST PUSH1 0x40 MLOAD DUP1 SWAP2 SUB SWAP1 RETURN JUMPDEST PUSH2 0x1D1 PUSH1 0x4 DUP1 CALLDATASIZE SUB DUP2 ADD SWAP1 PUSH2 0x1CC SWAP2 SWAP1 PUSH2 0x904 JUMP JUMPDEST PUSH2 0x53C JUMP JUMPDEST PUSH1 0x40 MLOAD PUSH2 0x1DE SWAP2 SWAP1 PUSH2 0x8EB JUMP JUMPDEST PUSH1 0x40 MLOAD DUP1 SWAP2 SUB SWAP1 RETURN JUMPDEST PUSH2 0x201 PUSH1 0x4 DUP1 CALLDATASIZE SUB DUP2 ADD SWAP1 PUSH2 0x1FC SWAP2 SWAP1 PUSH2 0x904 JUMP JUMPDEST PUSH2 0x5A8 JUMP JUMPDEST PUSH1 0x40 MLOAD PUSH2 0x20E SWAP2 SWAP1 PUSH2 0x8EB JUMP JUMPDEST PUSH1 0x40 MLOAD DUP1 SWAP2 SUB SWAP1 RETURN JUMPDEST PUSH2 0x231 PUSH1 0x4 DUP1 CALLDATASIZE SUB DUP2 ADD SWAP1 PUSH2 0x22C SWAP2 SWAP1 PUSH2 0x89E JUMP JUMPDEST PUSH2 0x619 JUMP JUMPDEST PUSH1 0x40 MLOAD PUSH2 0x23E SWAP2 SWAP1 PUSH2 0x8EB JUMP JUMPDEST PUSH1 0x40 MLOAD DUP1 SWAP2 SUB SWAP1 RETURN JUMPDEST PUSH2 0x261 PUSH1 0x4 DUP1 CALLDATASIZE SUB DUP2 ADD SWAP1 PUSH2 0x25C SWAP2 SWAP1 PUSH2 0x904 JUMP JUMPDEST PUSH2 0x62E JUMP JUMPDEST PUSH1 0x40 MLOAD PUSH2 0x26E SWAP2 SWAP1 PUSH2 0x8EB JUMP JUMPDEST PUSH1 0x40 MLOAD DUP1 SWAP2 SUB SWAP1 RETURN JUMPDEST PUSH2 0x291 PUSH1 0x4 DUP1 CALLDATASIZE SUB DUP2 ADD SWAP1 PUSH2 0x28C SWAP2 SWAP1 PUSH2 0x89E JUMP JUMPDEST PUSH2 0x6B0 JUMP JUMPDEST PUSH1 0x40 MLOAD PUSH2 0x29E SWAP2 SWAP1 PUSH2 0x8EB JUMP JUMPDEST PUSH1 0x40 MLOAD DUP1 SWAP2 SUB SWAP1 RETURN JUMPDEST PUSH2 0x2C1 PUSH1 0x4 DUP1 CALLDATASIZE SUB DUP2 ADD SWAP1 PUSH2 0x2BC SWAP2 SWAP1 PUSH2 0x89E JUMP JUMPDEST PUSH2 0x6DD JUMP JUMPDEST PUSH1 0x40 MLOAD PUSH2 0x2CE SWAP2 SWAP1 PUSH2 0x8EB JUMP JUMPDEST PUSH1 0x40 MLOAD DUP1 SWAP2 SUB SWAP1 RETURN JUMPDEST PUSH2 0x2F1 PUSH1 0x4 DUP1 CALLDATASIZE SUB DUP2 ADD SWAP1 PUSH2 0x2EC SWAP2 SWAP1 PUSH2 0x89E JUMP JUMPDEST PUSH2 0x716 JUMP JUMPDEST PUSH1 0x40 MLOAD PUSH2 0x2FE SWAP2 SWAP1 PUSH2 0x8EB JUMP JUMPDEST PUSH1 0x40 MLOAD DUP1 SWAP2 SUB SWAP1 RETURN JUMPDEST PUSH2 0x321 PUSH1 0x4 DUP1 CALLDATASIZE SUB DUP2 ADD SWAP1 PUSH2 0x31C SWAP2 SWAP1 PUSH2 0x904 JUMP JUMPDEST PUSH2 0x76D JUMP JUMPDEST PUSH1 0x40 MLOAD PUSH2 0x32E SWAP2 SWAP1 PUSH2 0x8EB JUMP JUMPDEST PUSH1 0x40 MLOAD DUP1 SWAP2 SUB SWAP1 RETURN JUMPDEST PUSH2 0x351 PUSH1 0x4 DUP1 CALLDATASIZE SUB DUP2 ADD SWAP1 PUSH2 0x34C SWAP2 SWAP1 PUSH2 0x904 JUMP JUMPDEST PUSH2 0x78C JUMP JUMPDEST PUSH1 0x40 MLOAD PUSH2 0x35E SWAP2 SWAP1 PUSH2 0x8EB JUMP JUMPDEST PUSH1 0x40 MLOAD DUP1 SWAP2 SUB SWAP1 RETURN JUMPDEST PUSH2 0x381 PUSH1 0x4 DUP1 CALLDATASIZE SUB DUP2 ADD SWAP1 PUSH2 0x37C SWAP2 SWAP1 PUSH2 0x995 JUMP JUMPDEST PUSH2 0x7EF JUMP JUMPDEST PUSH1 0x40 MLOAD PUSH2 0x38E SWAP2 SWAP1 PUSH2 0x8EB JUMP JUMPDEST PUSH1 0x40 MLOAD DUP1 SWAP2 SUB SWAP1 RETURN JUMPDEST PUSH2 0x3B1 PUSH1 0x4 DUP1 CALLDATASIZE SUB DUP2 ADD SWAP1 PUSH2 0x3AC SWAP2 SWAP1 PUSH2 0x89E JUMP JUMPDEST PUSH2 0x810 JUMP JUMPDEST PUSH1 0x40 MLOAD PUSH2 0x3BE SWAP2 SWAP1 PUSH2 0x8EB JUMP JUMPDEST PUSH1 0x40 MLOAD DUP1 SWAP2 SUB SWAP1 RETURN JUMPDEST PUSH0 DUP2 DUP4 PUSH2 0x3D4 SWAP2 SWAP1 PUSH2 0x9ED JUMP JUMPDEST SWAP1 POP SWAP3 SWAP2 POP POP JUMP JUMPDEST PUSH0 DUP2 DUP4 LT ISZERO PUSH2 0x420 JUMPI PUSH1 0x40 MLOAD PUSH32 0x8C379A000000000000000000000000000000000000000000000000000000000 DUP2 MSTORE PUSH1 0x4 ADD PUSH2 0x417 SWAP1 PUSH2 0xA88 JUMP JUMPDEST PUSH1 0x40 MLOAD DUP1 SWAP2 SUB SWAP1 REVERT JUMPDEST DUP2 DUP4 PUSH2 0x42C SWAP2 SWAP1 PUSH2 0xAA6 JUMP JUMPDEST SWAP1 POP SWAP3 SWAP2 POP POP JUMP JUMPDEST PUSH0 PUSH1 0x2 DUP3 LT ISZERO PUSH2 0x446 JUMPI PUSH0 SWAP1 POP PUSH2 0x4BF JUMP JUMPDEST PUSH1 0x2 DUP3 SUB PUSH2 0x457 JUMPI PUSH1 0x1 SWAP1 POP PUSH2 0x4BF JUMP JUMPDEST PUSH0 PUSH1 0x2 DUP4 PUSH2 0x465 SWAP2 SWAP1 PUSH2 0xB06 JUMP JUMPDEST SUB PUSH2 0x472 JUMPI PUSH0 SWAP1 POP PUSH2 0x4BF JUMP JUMPDEST PUSH0 PUSH1 0x3 SWAP1 POP JUMPDEST DUP3 DUP2 DUP3 PUSH2 0x485 SWAP2 SWAP1 PUSH2 0x9ED JUMP JUMPDEST GT PUSH2 0x4B9 JUMPI PUSH0 DUP2 DUP5 PUSH2 0x497 SWAP2 SWAP1 PUSH2 0xB06 JUMP JUMPDEST SUB PUSH2 0x4A5 JUMPI PUSH0 SWAP2 POP POP PUSH2 0x4BF JUMP JUMPDEST PUSH1 0x2 DUP2 PUSH2 0x4B2 SWAP2 SWAP1 PUSH2 0xB36 JUMP JUMPDEST SWAP1 POP PUSH2 0x478 JUMP JUMPDEST POP PUSH1 0x1 SWAP1 POP JUMPDEST SWAP2 SWAP1 POP JUMP JUMPDEST PUSH0 PUSH0 DUP4 EQ ISZERO DUP1 ISZERO PUSH2 0x4D5 JUMPI POP PUSH0 DUP3 EQ ISZERO JUMPDEST PUSH2 0x514 JUMPI PUSH1 0x40 MLOAD PUSH32 0x8C379A000000000000000000000000000000000000000000000000000000000 DUP2 MSTORE PUSH1 0x4 ADD PUSH2 0x50B SWAP1 PUSH2 0xBB3 JUMP JUMPDEST PUSH1 0x40 MLOAD DUP1 SWAP2 SUB SWAP1 REVERT JUMPDEST DUP2 PUSH2 0x51F DUP5 DUP5 PUSH2 0x6B0 JUMP JUMPDEST DUP5 PUSH2 0x52A SWAP2 SWAP1 PUSH2 0xBD1 JUMP JUMPDEST PUSH2 0x534 SWAP2 SWAP1 PUSH2 0x9ED JUMP JUMPDEST SWAP1 POP SWAP3 SWAP2 POP POP JUMP JUMPDEST PUSH0 PUSH0 DUP3 SUB PUSH2 0x54C JUMPI PUSH0 SWAP1 POP PUSH2 0x5A3 JUMP JUMPDEST PUSH1 0x1 DUP3 SUB PUSH2 0x55D JUMPI PUSH1 0x1 SWAP1 POP PUSH2 0x5A3 JUMP JUMPDEST PUSH0 PUSH0 SWAP1 POP PUSH0 PUSH1 0x1 SWAP1 POP PUSH0 PUSH1 0x2 SWAP1 POP JUMPDEST DUP5 DUP2 GT PUSH2 0x59C JUMPI PUSH0 DUP3 DUP5 PUSH2 0x580 SWAP2 SWAP1 PUSH2 0xB36 JUMP JUMPDEST SWAP1 POP DUP3 SWAP4 POP DUP1 SWAP3 POP POP DUP1 DUP1 PUSH2 0x594 SWAP1 PUSH2 0xC01 JUMP JUMPDEST SWAP2 POP POP PUSH2 0x56C JUMP JUMPDEST POP DUP1 SWAP3 POP POP POP JUMPDEST SWAP2 SWAP1 POP JUMP JUMPDEST PUSH0 PUSH0 DUP3 SUB PUSH2 0x5B8 JUMPI PUSH0 SWAP1 POP PUSH2 0x614 JUMP JUMPDEST PUSH0 PUSH1 0x2 PUSH1 0x1 DUP5 PUSH2 0x5C8 SWAP2 SWAP1 PUSH2 0xB36 JUMP JUMPDEST PUSH2 0x5D2 SWAP2 SWAP1 PUSH2 0xBD1 JUMP JUMPDEST SWAP1 POP PUSH0 DUP4 SWAP1 POP JUMPDEST DUP1 DUP3 LT ISZERO PUSH2 0x60E JUMPI DUP2 SWAP1 POP PUSH1 0x2 DUP3 DUP4 DUP7 PUSH2 0x5F3 SWAP2 SWAP1 PUSH2 0xBD1 JUMP JUMPDEST PUSH2 0x5FD SWAP2 SWAP1 PUSH2 0xB36 JUMP JUMPDEST PUSH2 0x607 SWAP2 SWAP1 PUSH2 0xBD1 JUMP JUMPDEST SWAP2 POP PUSH2 0x5D9 JUMP JUMPDEST DUP1 SWAP3 POP POP POP JUMPDEST SWAP2 SWAP1 POP JUMP JUMPDEST PUSH0 DUP2 DUP4 PUSH2 0x626 SWAP2 SWAP1 PUSH2 0xB36 JUMP JUMPDEST SWAP1 POP SWAP3 SWAP2 POP POP JUMP JUMPDEST PUSH0 PUSH1 0x14 DUP3 GT ISZERO PUSH2 0x673 JUMPI PUSH1 0x40 MLOAD PUSH32 0x8C379A000000000000000000000000000000000000000000000000000000000 DUP2 MSTORE PUSH1 0x4 ADD PUSH2 0x66A SWAP1 PUSH2 0xC92 JUMP JUMPDEST PUSH1 0x40 MLOAD DUP1 SWAP2 SUB SWAP1 REVERT JUMPDEST PUSH0 PUSH1 0x1 SWAP1 POP PUSH0 PUSH1 0x2 SWAP1 POP JUMPDEST DUP4 DUP2 GT PUSH2 0x6A6 JUMPI DUP1 DUP3 PUSH2 0x691 SWAP2 SWAP1 PUSH2 0x9ED JUMP JUMPDEST SWAP2 POP DUP1 DUP1 PUSH2 0x69E SWAP1 PUSH2 0xC01 JUMP JUMPDEST SWAP2 POP POP PUSH2 0x67E JUMP JUMPDEST POP DUP1 SWAP2 POP POP SWAP2 SWAP1 POP JUMP JUMPDEST PUSH0 JUMPDEST PUSH0 DUP3 EQ PUSH2 0x6D4 JUMPI PUSH0 DUP3 SWAP1 POP DUP3 DUP5 PUSH2 0x6C9 SWAP2 SWAP1 PUSH2 0xB06 JUMP JUMPDEST SWAP3 POP DUP1 SWAP4 POP POP PUSH2 0x6B2 JUMP JUMPDEST DUP3 SWAP1 POP SWAP3 SWAP2 POP POP JUMP JUMPDEST PUSH0 PUSH0 PUSH1 0x1 SWAP1 POP PUSH0 PUSH0 SWAP1 POP JUMPDEST DUP4 DUP2 LT ISZERO PUSH2 0x70B JUMPI DUP5 DUP3 PUSH2 0x6FC SWAP2 SWAP1 PUSH2 0x9ED JUMP JUMPDEST SWAP2 POP DUP1 DUP1 PUSH1 0x1 ADD SWAP2 POP POP PUSH2 0x6E8 JUMP JUMPDEST POP DUP1 SWAP2 POP POP SWAP3 SWAP2 POP POP JUMP JUMPDEST PUSH0 PUSH0 DUP3 SUB PUSH2 0x759 JUMPI PUSH1 0x40 MLOAD PUSH32 0x8C379A000000000000000000000000000000000000000000000000000000000 DUP2 MSTORE PUSH1 0x4 ADD PUSH2 0x750 SWAP1 PUSH2 0xCFA JUMP JUMPDEST PUSH1 0x40 MLOAD DUP1 SWAP2 SUB SWAP1 REVERT JUMPDEST DUP2 DUP4 PUSH2 0x765 SWAP2 SWAP1 PUSH2 0xB06 JUMP JUMPDEST SWAP1 POP SWAP3 SWAP2 POP POP JUMP JUMPDEST PUSH0 DUP2 DUP3 DUP4 PUSH2 0x77B SWAP2 SWAP1 PUSH2 0x9ED JUMP JUMPDEST PUSH2 0x785 SWAP2 SWAP1 PUSH2 0x9ED JUMP JUMPDEST SWAP1 POP SWAP2 SWAP1 POP JUMP JUMPDEST PUSH0 PUSH0 PUSH0 SWAP1 POP JUMPDEST DUP3 PUSH1 0x1 DUP3 PUSH2 0x7A0 SWAP2 SWAP1 PUSH2 0xB36 JUMP JUMPDEST PUSH1 0x1 DUP4 PUSH2 0x7AD SWAP2 SWAP1 PUSH2 0xB36 JUMP JUMPDEST PUSH1 0x1 DUP5 PUSH2 0x7BA SWAP2 SWAP1 PUSH2 0xB36 JUMP JUMPDEST PUSH2 0x7C4 SWAP2 SWAP1 PUSH2 0x9ED JUMP JUMPDEST PUSH2 0x7CE SWAP2 SWAP1 PUSH2 0x9ED JUMP JUMPDEST GT PUSH2 0x7E6 JUMPI DUP1 DUP1 PUSH2 0x7DE SWAP1 PUSH2 0xC01 JUMP JUMPDEST SWAP2 POP POP PUSH2 0x792 JUMP JUMPDEST DUP1 SWAP2 POP POP SWAP2 SWAP1 POP JUMP JUMPDEST PUSH0 PUSH0 DUP3 SLT ISZERO PUSH2 0x807 JUMPI DUP2 PUSH2 0x802 SWAP1 PUSH2 0xD18 JUMP JUMPDEST PUSH2 0x809 JUMP JUMPDEST DUP2 JUMPDEST SWAP1 POP SWAP2 SWAP1 POP JUMP JUMPDEST PUSH0 PUSH0 DUP3 SUB PUSH2 0x853 JUMPI PUSH1 0x40 MLOAD PUSH32 0x8C379A000000000000000000000000000000000000000000000000000000000 DUP2 MSTORE PUSH1 0x4 ADD PUSH2 0x84A SWAP1 PUSH2 0xCFA JUMP JUMPDEST PUSH1 0x40 MLOAD DUP1 SWAP2 SUB SWAP1 REVERT JUMPDEST DUP2 DUP4 PUSH2 0x85F SWAP2 SWAP1 PUSH2 0xBD1 JUMP JUMPDEST SWAP1 POP SWAP3 SWAP2 POP POP JUMP JUMPDEST PUSH0 PUSH0 REVERT JUMPDEST PUSH0 DUP2 SWAP1 POP SWAP2 SWAP1 POP JUMP JUMPDEST PUSH2 0x87D DUP2 PUSH2 0x86B JUMP JUMPDEST DUP2 EQ PUSH2 0x887 JUMPI PUSH0 PUSH0 REVERT JUMPDEST POP JUMP JUMPDEST PUSH0 DUP2 CALLDATALOAD SWAP1 POP PUSH2 0x898 DUP2 PUSH2 0x874 JUMP JUMPDEST SWAP3 SWAP2 POP POP JUMP JUMPDEST PUSH0 PUSH0 PUSH1 0x40 DUP4 DUP6 SUB SLT ISZERO PUSH2 0x8B4 JUMPI PUSH2 0x8B3 PUSH2 0x867 JUMP JUMPDEST JUMPDEST PUSH0 PUSH2 0x8C1 DUP6 DUP3 DUP7 ADD PUSH2 0x88A JUMP JUMPDEST SWAP3 POP POP PUSH1 0x20 PUSH2 0x8D2 DUP6 DUP3 DUP7 ADD PUSH2 0x88A JUMP JUMPDEST SWAP2 POP POP SWAP3 POP SWAP3 SWAP1 POP JUMP JUMPDEST PUSH2 0x8E5 DUP2 PUSH2 0x86B JUMP JUMPDEST DUP3 MSTORE POP POP JUMP JUMPDEST PUSH0 PUSH1 0x20 DUP3 ADD SWAP1 POP PUSH2 0x8FE PUSH0 DUP4 ADD DUP5 PUSH2 0x8DC JUMP JUMPDEST SWAP3 SWAP2 POP POP JUMP JUMPDEST PUSH0 PUSH1 0x20 DUP3 DUP5 SUB SLT ISZERO PUSH2 0x919 JUMPI PUSH2 0x918 PUSH2 0x867 JUMP JUMPDEST JUMPDEST PUSH0 PUSH2 0x926 DUP5 DUP3 DUP6 ADD PUSH2 0x88A JUMP JUMPDEST SWAP2 POP POP SWAP3 SWAP2 POP POP JUMP JUMPDEST PUSH0 DUP2 ISZERO ISZERO SWAP1 POP SWAP2 SWAP1 POP JUMP JUMPDEST PUSH2 0x943 DUP2 PUSH2 0x92F JUMP JUMPDEST DUP3 MSTORE POP POP JUMP JUMPDEST PUSH0 PUSH1 0x20 DUP3 ADD SWAP1 POP PUSH2 0x95C PUSH0 DUP4 ADD DUP5 PUSH2 0x93A JUMP JUMPDEST SWAP3 SWAP2 POP POP JUMP JUMPDEST PUSH0 DUP2 SWAP1 POP SWAP2 SWAP1 POP JUMP JUMPDEST PUSH2 0x974 DUP2 PUSH2 0x962 JUMP JUMPDEST DUP2 EQ PUSH2 0x97E JUMPI PUSH0 PUSH0 REVERT JUMPDEST POP JUMP JUMPDEST PUSH0 DUP2 CALLDATALOAD SWAP1 POP PUSH2 0x98F DUP2 PUSH2 0x96B JUMP JUMPDEST SWAP3 SWAP2 POP POP JUMP JUMPDEST PUSH0 PUSH1 0x20 DUP3 DUP5 SUB SLT ISZERO PUSH2 0x9AA JUMPI PUSH2 0x9A9 PUSH2 0x867 JUMP JUMPDEST JUMPDEST PUSH0 PUSH2 0x9B7 DUP5 DUP3 DUP6 ADD PUSH2 0x981 JUMP JUMPDEST SWAP2 POP POP SWAP3 SWAP2 POP POP JUMP JUMPDEST PUSH32 0x4E487B7100000000000000000000000000000000000000000000000000000000 PUSH0 MSTORE PUSH1 0x11 PUSH1 0x4 MSTORE PUSH1 0x24 PUSH0 REVERT JUMPDEST PUSH0 PUSH2 0x9F7 DUP3 PUSH2 0x86B JUMP JUMPDEST SWAP2 POP PUSH2 0xA02 DUP4 PUSH2 0x86B JUMP JUMPDEST SWAP3 POP DUP3 DUP3 MUL PUSH2 0xA10 DUP2 PUSH2 0x86B JUMP JUMPDEST SWAP2 POP DUP3 DUP3 DIV DUP5 EQ DUP4 ISZERO OR PUSH2 0xA27 JUMPI PUSH2 0xA26 PUSH2 0x9C0 JUMP JUMPDEST JUMPDEST POP SWAP3 SWAP2 POP POP JUMP JUMPDEST PUSH0 DUP3 DUP3 MSTORE PUSH1 0x20 DUP3 ADD SWAP1 POP SWAP3 SWAP2 POP POP JUMP JUMPDEST PUSH32 0x526573756C7420776F756C64206265206E656761746976650000000000000000 PUSH0 DUP3 ADD MSTORE POP JUMP JUMPDEST PUSH0 PUSH2 0xA72 PUSH1 0x18 DUP4 PUSH2 0xA2E JUMP JUMPDEST SWAP2 POP PUSH2 0xA7D DUP3 PUSH2 0xA3E JUMP JUMPDEST PUSH1 0x20 DUP3 ADD SWAP1 POP SWAP2 SWAP1 POP JUMP JUMPDEST PUSH0 PUSH1 0x20 DUP3 ADD SWAP1 POP DUP2 DUP2 SUB PUSH0 DUP4 ADD MSTORE PUSH2 0xA9F DUP2 PUSH2 0xA66 JUMP JUMPDEST SWAP1 POP SWAP2 SWAP1 POP JUMP JUMPDEST PUSH0 PUSH2 0xAB0 DUP3 PUSH2 0x86B JUMP JUMPDEST SWAP2 POP PUSH2 0xABB DUP4 PUSH2 0x86B JUMP JUMPDEST SWAP3 POP DUP3 DUP3 SUB SWAP1 POP DUP2 DUP2 GT ISZERO PUSH2 0xAD3 JUMPI PUSH2 0xAD2 PUSH2 0x9C0 JUMP JUMPDEST JUMPDEST SWAP3 SWAP2 POP POP JUMP JUMPDEST PUSH32 0x4E487B7100000000000000000000000000000000000000000000000000000000 PUSH0 MSTORE PUSH1 0x12 PUSH1 0x4 MSTORE PUSH1 0x24 PUSH0 REVERT JUMPDEST PUSH0 PUSH2 0xB10 DUP3 PUSH2 0x86B JUMP JUMPDEST SWAP2 POP PUSH2 0xB1B DUP4 PUSH2 0x86B JUMP JUMPDEST SWAP3 POP DUP3 PUSH2 0xB2B JUMPI PUSH2 0xB2A PUSH2 0xAD9 JUMP JUMPDEST JUMPDEST DUP3 DUP3 MOD SWAP1 POP SWAP3 SWAP2 POP POP JUMP JUMPDEST PUSH0 PUSH2 0xB40 DUP3 PUSH2 0x86B JUMP JUMPDEST SWAP2 POP PUSH2 0xB4B DUP4 PUSH2 0x86B JUMP JUMPDEST SWAP3 POP DUP3 DUP3 ADD SWAP1 POP DUP1 DUP3 GT ISZERO PUSH2 0xB63 JUMPI PUSH2 0xB62 PUSH2 0x9C0 JUMP JUMPDEST JUMPDEST SWAP3 SWAP2 POP POP JUMP JUMPDEST PUSH32 0x496E70757473206D757374206265206E6F6E2D7A65726F000000000000000000 PUSH0 DUP3 ADD MSTORE POP JUMP JUMPDEST PUSH0 PUSH2 0xB9D PUSH1 0x17 DUP4 PUSH2 0xA2E JUMP JUMPDEST SWAP2 POP PUSH2 0xBA8 DUP3 PUSH2 0xB69 JUMP JUMPDEST PUSH1 0x20 DUP3 ADD SWAP1 POP SWAP2 SWAP1 POP JUMP JUMPDEST PUSH0 PUSH1 0x20 DUP3 ADD SWAP1 POP DUP2 DUP2 SUB PUSH0 DUP4 ADD MSTORE PUSH2 0xBCA DUP2 PUSH2 0xB91 JUMP JUMPDEST SWAP1 POP SWAP2 SWAP1 POP JUMP JUMPDEST PUSH0 PUSH2 0xBDB DUP3 PUSH2 0x86B JUMP JUMPDEST SWAP2 POP PUSH2 0xBE6 DUP4 PUSH2 0x86B JUMP JUMPDEST SWAP3 POP DUP3 PUSH2 0xBF6 JUMPI PUSH2 0xBF5 PUSH2 0xAD9 JUMP JUMPDEST JUMPDEST DUP3 DUP3 DIV SWAP1 POP SWAP3 SWAP2 POP POP JUMP JUMPDEST PUSH0 PUSH2 0xC0B DUP3 PUSH2 0x86B JUMP JUMPDEST SWAP2 POP PUSH32 0xFFFFFFFFFFFFFFFFFFFFFFFFFFFFFFFFFFFFFFFFFFFFFFFFFFFFFFFFFFFFFFFF DUP3 SUB PUSH2 0xC3D JUMPI PUSH2 0xC3C PUSH2 0x9C0 JUMP JUMPDEST JUMPDEST PUSH1 0x1 DUP3 ADD SWAP1 POP SWAP2 SWAP1 POP JUMP JUMPDEST PUSH32 0x496E70757420746F6F206C617267650000000000000000000000000000000000 PUSH0 DUP3 ADD MSTORE POP JUMP JUMPDEST PUSH0 PUSH2 0xC7C PUSH1 0xF DUP4 PUSH2 0xA2E JUMP JUMPDEST SWAP2 POP PUSH2 0xC87 DUP3 PUSH2 0xC48 JUMP JUMPDEST PUSH1 0x20 DUP3 ADD SWAP1 POP SWAP2 SWAP1 POP JUMP JUMPDEST PUSH0 PUSH1 0x20 DUP3 ADD SWAP1 POP DUP2 DUP2 SUB PUSH0 DUP4 ADD MSTORE PUSH2 0xCA9 DUP2 PUSH2 0xC70 JUMP JUMPDEST SWAP1 POP SWAP2 SWAP1 POP JUMP JUMPDEST PUSH32 0x43616E6E6F7420646976696465206279207A65726F0000000000000000000000 PUSH0 DUP3 ADD MSTORE POP JUMP JUMPDEST PUSH0 PUSH2 0xCE4 PUSH1 0x15 DUP4 PUSH2 0xA2E JUMP JUMPDEST SWAP2 POP PUSH2 0xCEF DUP3 PUSH2 0xCB0 JUMP JUMPDEST PUSH1 0x20 DUP3 ADD SWAP1 POP SWAP2 SWAP1 POP JUMP JUMPDEST PUSH0 PUSH1 0x20 DUP3 ADD SWAP1 POP DUP2 DUP2 SUB PUSH0 DUP4 ADD MSTORE PUSH2 0xD11 DUP2 PUSH2 0xCD8 JUMP JUMPDEST SWAP1 POP SWAP2 SWAP1 POP JUMP JUMPDEST PUSH0 PUSH2 0xD22 DUP3 PUSH2 0x962 JUMP JUMPDEST SWAP2 POP PUSH32 0x8000000000000000000000000000000000000000000000000000000000000000 DUP3 SUB PUSH2 0xD54 JUMPI PUSH2 0xD53 PUSH2 0x9C0 JUMP JUMPDEST JUMPDEST DUP2 PUSH0 SUB SWAP1 POP SWAP2 SWAP1 POP JUMP INVALID LOG2 PUSH5 0x6970667358 0x22 SLT KECCAK256 0xCB BYTE 0x2C BALANCE DUP16 MUL 0xD0 PUSH0 BASEFEE 0xCE 0xBD MSTORE 0x4C 0xDE COINBASE MLOAD SHL 0xF7 PUSH24 0xC0CF5B03165C060EC8F635AB0864736F6C63430008220033 "
				},
				"gasEstimates": {
					"creation": {
						"codeDepositCost": "695200",
						"executionCost": "726",
						"totalCost": "695926"
					},
					"external": {
						"absolute(int256)": "infinite",
						"add(uint256,uint256)": "infinite",
						"cube(uint256)": "infinite",
						"cubeRoot(uint256)": "infinite",
						"divide(uint256,uint256)": "infinite",
						"factorial(uint256)": "infinite",
						"fibonacci(uint256)": "infinite",
						"gcd(uint256,uint256)": "infinite",
						"isPrime(uint256)": "infinite",
						"lcm(uint256,uint256)": "infinite",
						"modulus(uint256,uint256)": "infinite",
						"multiply(uint256,uint256)": "infinite",
						"power(uint256,uint256)": "infinite",
						"sqrt(uint256)": "infinite",
						"subtract(uint256,uint256)": "infinite"
					}
				},
				"methodIdentifiers": {
					"absolute(int256)": "f5794ac0",
					"add(uint256,uint256)": "771602f7",
					"cube(uint256)": "f4bf03c7",
					"cubeRoot(uint256)": "f4e92102",
					"divide(uint256,uint256)": "f88e9fbf",
					"factorial(uint256)": "83714834",
					"fibonacci(uint256)": "61047ff4",
					"gcd(uint256,uint256)": "b9650dac",
					"isPrime(uint256)": "42703494",
					"lcm(uint256,uint256)": "4471ad9d",
					"modulus(uint256,uint256)": "ce406417",
					"multiply(uint256,uint256)": "165c4a16",
					"power(uint256,uint256)": "c04f01fc",
					"sqrt(uint256)": "677342ce",
					"subtract(uint256,uint256)": "3ef5e445"
				}
			},
			"storageLayout": {
				"storage": [],
				"types": null
			},
			"userdoc": {
				"kind": "user",
				"methods": {},
				"version": 1
			}
		}
	}
}