{
	"data": {
		"bytecode": {
			"linkReferences": {},
			"object": "6080604052348015600e575f5ffd5b506108548061001c5f395ff3fe608060405234801561000f575f5ffd5b5060043610610086575f3560e01c80638371483411610059578063837148341461014a578063c04f01fc1461017a578063ce406417146101aa578063f88e9fbf146101da57610086565b8063165c4a161461008a5780633ef5e445146100ba578063677342ce146100ea578063771602f71461011a575b5f5ffd5b6100a4600480360381019061009f919061049d565b61020a565b6040516100b191906104ea565b60405180910390f35b6100d460048036038101906100cf919061049d565b61021f565b6040516100e191906104ea565b60405180910390f35b61010460048036038101906100ff9190610503565b610277565b60405161011191906104ea565b60405180910390f35b610134600480360381019061012f919061049d565b6102e8565b60405161014191906104ea565b60405180910390f35b610164600480360381019061015f9190610503565b6102fd565b60405161017191906104ea565b60405180910390f35b610194600480360381019061018f919061049d565b61037f565b6040516101a191906104ea565b60405180910390f35b6101c460048036038101906101bf919061049d565b6103b8565b6040516101d191906104ea565b60405180910390f35b6101f460048036038101906101ef919061049d565b61040f565b60405161020191906104ea565b60405180910390f35b5f8183610217919061055b565b905092915050565b5f81831015610263576040517f08c379a000000000000000000000000000000000000000000000000000000000815260040161025a906105f6565b60405180910390fd5b818361026f9190610614565b905092915050565b5f5f8203610287575f90506102e3565b5f60026001846102979190610647565b6102a191906106a7565b90505f8390505b808210156102dd5781905060028283866102c291906106a7565b6102cc9190610647565b6102d691906106a7565b91506102a8565b80925050505b919050565b5f81836102f59190610647565b905092915050565b5f6014821115610342576040517f08c379a000000000000000000000000000000000000000000000000000000000815260040161033990610721565b60405180910390fd5b5f600190505f600290505b838111610375578082610360919061055b565b9150808061036d9061073f565b91505061034d565b5080915050919050565b5f5f600190505f5f90505b838110156103ad57848261039e919061055b565b9150808060010191505061038a565b508091505092915050565b5f5f82036103fb576040517f08c379a00000000000000000000000000000000000000000000000000000000081526004016103f2906107d0565b60405180910390fd5b818361040791906107ee565b905092915050565b5f5f8203610452576040517f08c379a0000000000000000000000000000000000000000000000000000000008152600401610449906107d0565b60405180910390fd5b818361045e91906106a7565b905092915050565b5f5ffd5b5f819050919050565b61047c8161046a565b8114610486575f5ffd5b50565b5f8135905061049781610473565b92915050565b5f5f604083850312156104b3576104b2610466565b5b5f6104c085828601610489565b92505060206104d185828601610489565b9150509250929050565b6104e48161046a565b82525050565b5f6020820190506104fd5f8301846104db565b92915050565b5f6020828403121561051857610517610466565b5b5f61052584828501610489565b91505092915050565b7f4e487b71000000000000000000000000000000000000000000000000000000005f52601160045260245ffd5b5f6105658261046a565b91506105708361046a565b925082820261057e8161046a565b915082820484148315176105955761059461052e565b5b5092915050565b5f82825260208201905092915050565b7f526573756c7420776f756c64206265206e6567617469766500000000000000005f82015250565b5f6105e060188361059c565b91506105eb826105ac565b602082019050919050565b5f6020820190508181035f83015261060d816105d4565b9050919050565b5f61061e8261046a565b91506106298361046a565b92508282039050818111156106415761064061052e565b5b92915050565b5f6106518261046a565b915061065c8361046a565b92508282019050808211156106745761067361052e565b5b92915050565b7f4e487b71000000000000000000000000000000000000000000000000000000005f52601260045260245ffd5b5f6106b18261046a565b91506106bc8361046a565b9250826106cc576106cb61067a565b5b828204905092915050565b7f496e70757420746f6f206c6172676500000000000000000000000000000000005f82015250565b5f61070b600f8361059c565b9150610716826106d7565b602082019050919050565b5f6020820190508181035f830152610738816106ff565b9050919050565b5f6107498261046a565b91507fffffffffffffffffffffffffffffffffffffffffffffffffffffffffffffffff820361077b5761077a61052e565b5b600182019050919050565b7f43616e6e6f7420646976696465206279207a65726f00000000000000000000005f82015250565b5f6107ba60158361059c565b91506107c582610786565b602082019050919050565b5f6020820190508181035f8301526107e7816107ae565b9050919050565b5f6107f88261046a565b91506108038361046a565b9250826108135761081261067a565b5b82820690509291505056fea2646970667358221220602770e18efd94bfe2d60e3f469e48f11f883d2738dbd6aa70f4c253be74254364736f6c63430008220033",
			"opcodes": "PUSH1 0x80 PUSH1 0x40 MSTORE CALLVALUE DUP1 ISZERO PUSH1 0xE JUMPI PUSH0 PUSH0 REVERT JUMPDEST POP PUSH2 0x854 DUP1 PUSH2 0x1C PUSH0 CODECOPY PUSH0 RETURN INVALID PUSH1 0x80 PUSH1 0x40 MSTORE CALLVALUE DUP1 ISZERO PUSH2 0xF JUMPI PUSH0 PUSH0 REVERT JUMPDEST POP PUSH1 0x4 CALLDATASIZE LT PUSH2 0x86 JUMPI PUSH0 CALLDATALOAD PUSH1 0xE0 SHR DUP1 PUSH4 0x83714834 GT PUSH2 0x59 JUMPI DUP1 PUSH4 0x83714834 EQ PUSH2 0x14A JUMPI DUP1 PUSH4 0xC04F01FC EQ PUSH2 0x17A JUMPI DUP1 PUSH4 0xCE406417 EQ PUSH2 0x1AA JUMPI DUP1 PUSH4 0xF88E9FBF EQ PUSH2 0x1DA JUMPI PUSH2 0x86 JUMP JUMPDEST DUP1 PUSH4 0x165C4A16 EQ PUSH2 0x8A JUMPI DUP1 PUSH4 0x3EF5E445 EQ PUSH2 0xBA JUMPI DUP1 PUSH4 0x677342CE EQ PUSH2 0xEA JUMPI DUP1 PUSH4 0x771602F7 EQ PUSH2 0x11A JUMPI JUMPDEST PUSH0 PUSH0 REVERT JUMPDEST PUSH2 0xA4 PUSH1 0x4 DUP1 CALLDATASIZE SUB DUP2 ADD SWAP1 PUSH2 0x9F SWAP2 SWAP1 PUSH2 0x49D JUMP JUMPDEST PUSH2 0x20A JUMP JUMPDEST PUSH1 0x40 MLOAD PUSH2 0xB1 SWAP2 SWAP1 PUSH2 0x4EA JUMP JUMPDEST PUSH1 0x40 MLOAD DUP1 SWAP2 SUB SWAP1 RETURN JUMPDEST PUSH2 0xD4 PUSH1 0x4 DUP1 CALLDATASIZE SUB DUP2 ADD SWAP1 PUSH2 0xCF SWAP2 SWAP1 PUSH2 0x49D JUMP JUMPDEST PUSH2 0x21F JUMP JUMPDEST PUSH1 0x40 MLOAD PUSH2 0xE1 SWAP2 SWAP1 PUSH2 0x4EA JUMP JUMPDEST PUSH1 0x40 MLOAD DUP1 SWAP2 SUB SWAP1 RETURN JUMPDEST PUSH2 0x104 PUSH1 0x4 DUP1 CALLDATASIZE SUB DUP2 ADD SWAP1 PUSH2 0xFF SWAP2 SWAP1 PUSH2 0x503 JUMP JUMPDEST PUSH2 0x277 JUMP JUMPDEST PUSH1 0x40 MLOAD PUSH2 0x111 SWAP2 SWAP1 PUSH2 0x4EA JUMP JUMPDEST PUSH1 0x40 MLOAD DUP1 SWAP2 SUB SWAP1 RETURN JUMPDEST PUSH2 0x134 PUSH1 0x4 DUP1 CALLDATASIZE SUB DUP2 ADD SWAP1 PUSH2 0x12F SWAP2 SWAP1 PUSH2 0x49D JUMP JUMPDEST PUSH2 0x2E8 JUMP JUMPDEST PUSH1 0x40 MLOAD PUSH2 0x141 SWAP2 SWAP1 PUSH2 0x4EA JUMP JUMPDEST PUSH1 0x40 MLOAD DUP1 SWAP2 SUB SWAP1 RETURN JUMPDEST PUSH2 0x164 PUSH1 0x4 DUP1 CALLDATASIZE SUB DUP2 ADD SWAP1 PUSH2 0x15F SWAP2 SWAP1 PUSH2 0x503 JUMP JUMPDEST PUSH2 0x2FD JUMP JUMPDEST PUSH1 0x40 MLOAD PUSH2 0x171 SWAP2 SWAP1 PUSH2 0x4EA JUMP JUMPDEST PUSH1 0x40 MLOAD DUP1 SWAP2 SUB SWAP1 RETURN JUMPDEST PUSH2 0x194 PUSH1 0x4 DUP1 CALLDATASIZE SUB DUP2 ADD SWAP1 PUSH2 0x18F SWAP2 SWAP1 PUSH2 0x49D JUMP JUMPDEST PUSH2 0x37F JUMP JUMPDEST PUSH1 0x40 MLOAD PUSH2 0x1A1 SWAP2 SWAP1 PUSH2 0x4EA JUMP JUMPDEST PUSH1 0x40 MLOAD DUP1 SWAP2 SUB SWAP1 RETURN JUMPDEST PUSH2 0x1C4 PUSH1 0x4 DUP1 CALLDATASIZE SUB DUP2 ADD SWAP1 PUSH2 0x1BF SWAP2 SWAP1 PUSH2 0x49D JUMP JUMPDEST PUSH2 0x3B8 JUMP JUMPDEST PUSH1 0x40 MLOAD PUSH2 0x1D1 SWAP2 SWAP1 PUSH2 0x4EA JUMP JUMPDEST PUSH1 0x40 MLOAD DUP1 SWAP2 SUB SWAP1 RETURN JUMPDEST PUSH2 0x1F4 PUSH1 0x4 DUP1 CALLDATASIZE SUB DUP2 ADD SWAP1 PUSH2 0x1EF SWAP2 SWAP1 PUSH2 0x49D JUMP JUMPDEST PUSH2 0x40F JUMP JUMPDEST PUSH1 0x40 MLOAD PUSH2 0x201 SWAP2 SWAP1 PUSH2 0x4EA JUMP JUMPDEST PUSH1 0x40 MLOAD DUP1 SWAP2 SUB SWAP1 RETURN JUMPDEST PUSH0 DUP2 DUP4 PUSH2 0x217 SWAP2 SWAP1 PUSH2 0x55B JUMP JUMPDEST SWAP1 POP SWAP3 SWAP2 POP POP JUMP JUMPDEST PUSH0 DUP2 DUP4 LT ISZERO PUSH2 0x263 JUMPI PUSH1 0x40 MLOAD PUSH32 0x8C379A000000000000000000000000000000000000000000000000000000000 DUP2 MSTORE PUSH1 0x4 ADD PUSH2 0x25A SWAP1 PUSH2 0x5F6 JUMP JUMPDEST PUSH1 0x40 MLOAD DUP1 SWAP2 SUB SWAP1 REVERT JUMPDEST DUP2 DUP4 PUSH2 0x26F SWAP2 SWAP1 PUSH2 0x614 JUMP JUMPDEST SWAP1 POP SWAP3 SWAP2 POP POP JUMP JUMPDEST PUSH0 PUSH0 DUP3 SUB PUSH2 0x287 JUMPI PUSH0 SWAP1 POP PUSH2 0x2E3 JUMP JUMPDEST PUSH0 PUSH1 0x2 PUSH1 0x1 DUP5 PUSH2 0x297 SWAP2 SWAP1 PUSH2 0x647 JUMP JUMPDEST PUSH2 0x2A1 SWAP2 SWAP1 PUSH2 0x6A7 JUMP JUMPDEST SWAP1 POP PUSH0 DUP4 SWAP1 POP JUMPDEST DUP1 DUP3 LT ISZERO PUSH2 0x2DD JUMPI DUP2 SWAP1 POP PUSH1 0x2 DUP3 DUP4 DUP7 PUSH2 0x2C2 SWAP2 SWAP1 PUSH2 0x6A7 JUMP JUMPDEST PUSH2 0x2CC SWAP2 SWAP1 PUSH2 0x647 JUMP JUMPDEST PUSH2 0x2D6 SWAP2 SWAP1 PUSH2 0x6A7 JUMP JUMPDEST SWAP2 POP PUSH2 0x2A8 JUMP JUMPDEST DUP1 SWAP3 POP POP POP JUMPDEST SWAP2 SWAP1 POP JUMP JUMPDEST PUSH0 DUP2 DUP4 PUSH2 0x2F5 SWAP2 SWAP1 PUSH2 0x647 JUMP JUMPDEST SWAP1 POP SWAP3 SWAP2 POP POP JUMP JUMPDEST PUSH0 PUSH1 0x14 DUP3 GT ISZERO PUSH2 0x342 JUMPI PUSH1 0x40 MLOAD PUSH32 0x8C379A000000000000000000000000000000000000000000000000000000000 DUP2 MSTORE PUSH1 0x4 ADD PUSH2 0x339 SWAP1 PUSH2 0x721 JUMP JUMPDEST PUSH1 0x40 MLOAD DUP1 SWAP2 SUB SWAP1 REVERT JUMPDEST PUSH0 PUSH1 0x1 SWAP1 POP PUSH0 PUSH1 0x2 SWAP1 POP JUMPDEST DUP4 DUP2 GT PUSH2 0x375 JUMPI DUP1 DUP3 PUSH2 0x360 SWAP2 SWAP1 PUSH2 0x55B JUMP JUMPDEST SWAP2 POP DUP1 DUP1 PUSH2 0x36D SWAP1 PUSH2 0x73F JUMP JUMPDEST SWAP2 POP POP PUSH2 0x34D JUMP JUMPDEST POP DUP1 SWAP2 POP POP SWAP2 SWAP1 POP JUMP JUMPDEST PUSH0 PUSH0 PUSH1 0x1 SWAP1 POP PUSH0 PUSH0 SWAP1 POP JUMPDEST DUP4 DUP2 LT ISZERO PUSH2 0x3AD JUMPI DUP5 DUP3 PUSH2 0x39E SWAP2 SWAP1 PUSH2 0x55B JUMP JUMPDEST SWAP2 POP DUP1 DUP1 PUSH1 0x1 ADD SWAP2 POP POP PUSH2 0x38A JUMP JUMPDEST POP DUP1 SWAP2 POP POP SWAP3 SWAP2 POP POP JUMP JUMPDEST PUSH0 PUSH0 DUP3 SUB PUSH2 0x3FB JUMPI PUSH1 0x40 MLOAD PUSH32 0x8C379A000000000000000000000000000000000000000000000000000000000 DUP2 MSTORE PUSH1 0x4 ADD PUSH2 0x3F2 SWAP1 PUSH2 0x7D0 JUMP JUMPDEST PUSH1 0x40 MLOAD DUP1 SWAP2 SUB SWAP1 REVERT JUMPDEST DUP2 DUP4 PUSH2 0x407 SWAP2 SWAP1 PUSH2 0x7EE JUMP JUMPDEST SWAP1 POP SWAP3 SWAP2 POP POP JUMP JUMPDEST PUSH0 PUSH0 DUP3 SUB PUSH2 0x452 JUMPI PUSH1 0x40 MLOAD PUSH32 0x8C379A000000000000000000000000000000000000000000000000000000000 DUP2 MSTORE PUSH1 0x4 ADD PUSH2 0x449 SWAP1 PUSH2 0x7D0 JUMP JUMPDEST PUSH1 0x40 MLOAD DUP1 SWAP2 SUB SWAP1 REVERT JUMPDEST DUP2 DUP4 PUSH2 0x45E SWAP2 SWAP1 PUSH2 0x6A7 JUMP JUMPDEST SWAP1 POP SWAP3 SWAP2 POP POP JUMP JUMPDEST PUSH0 PUSH0 REVERT JUMPDEST PUSH0 DUP2 SWAP1 POP SWAP2 SWAP1 POP JUMP JUMPDEST PUSH2 0x47C DUP2 PUSH2 0x46A JUMP JUMPDEST DUP2 EQ PUSH2 0x486 JUMPI PUSH0 PUSH0 REVERT JUMPDEST POP JUMP JUMPDEST PUSH0 DUP2 CALLDATALOAD SWAP1 POP PUSH2 0x497 DUP2 PUSH2 0x473 JUMP JUMPDEST SWAP3 SWAP2 POP POP JUMP JUMPDEST PUSH0 PUSH0 PUSH1 0x40 DUP4 DUP6 SUB SLT ISZERO PUSH2 0x4B3 JUMPI PUSH2 0x4B2 PUSH2 0x466 JUMP JUMPDEST JUMPDEST PUSH0 PUSH2 0x4C0 DUP6 DUP3 DUP7 ADD PUSH2 0x489 JUMP JUMPDEST SWAP3 POP POP PUSH1 0x20 PUSH2 0x4D1 DUP6 DUP3 DUP7 ADD PUSH2 0x489 JUMP JUMPDEST SWAP2 POP POP SWAP3 POP SWAP3 SWAP1 POP JUMP JUMPDEST PUSH2 0x4E4 DUP2 PUSH2 0x46A JUMP JUMPDEST DUP3 MSTORE POP POP JUMP JUMPDEST PUSH0 PUSH1 0x20 DUP3 ADD SWAP1 POP PUSH2 0x4FD PUSH0 DUP4 ADD DUP5 PUSH2 0x4DB JUMP JUMPDEST SWAP3 SWAP2 POP POP JUMP JUMPDEST PUSH0 PUSH1 0x20 DUP3 DUP5 SUB SLT ISZERO PUSH2 0x518 JUMPI PUSH2 0x517 PUSH2 0x466 JUMP JUMPDEST JUMPDEST PUSH0 PUSH2 0x525 DUP5 DUP3 DUP6 ADD PUSH2 0x489 JUMP JUMPDEST SWAP2 POP POP SWAP3 SWAP2 POP POP JUMP JUMPDEST PUSH32 0x4E487B7100000000000000000000000000000000000000000000000000000000 PUSH0 MSTORE PUSH1 0x11 PUSH1 0x4 MSTORE PUSH1 0x24 PUSH0 REVERT JUMPDEST PUSH0 PUSH2 0x565 DUP3 PUSH2 0x46A JUMP JUMPDEST SWAP2 POP PUSH2 0x570 DUP4 PUSH2 0x46A JUMP JUMPDEST SWAP3 POP DUP3 DUP3 MUL PUSH2 0x57E DUP2 PUSH2 0x46A JUMP JUMPDEST SWAP2 POP DUP3 DUP3 DIV DUP5 EQ DUP4 ISZERO OR PUSH2 0x595 JUMPI PUSH2 0x594 PUSH2 0x52E JUMP JUMPDEST JUMPDEST POP SWAP3 SWAP2 POP POP JUMP JUMPDEST PUSH0 DUP3 DUP3 MSTORE PUSH1 0x20 DUP3 ADD SWAP1 POP SWAP3 SWAP2 POP POP JUMP JUMPDEST PUSH32 0x526573756C7420776F756C64206265206E656761746976650000000000000000 PUSH0 DUP3 ADD MSTORE POP JUMP JUMPDEST PUSH0 PUSH2 0x5E0 PUSH1 0x18 DUP4 PUSH2 0x59C JUMP JUMPDEST SWAP2 POP PUSH2 0x5EB DUP3 PUSH2 0x5AC JUMP JUMPDEST PUSH1 0x20 DUP3 ADD SWAP1 POP SWAP2 SWAP1 POP JUMP JUMPDEST PUSH0 PUSH1 0x20 DUP3 ADD SWAP1 POP DUP2 DUP2 SUB PUSH0 DUP4 ADD MSTORE PUSH2 0x60D DUP2 PUSH2 0x5D4 JUMP JUMPDEST SWAP1 POP SWAP2 SWAP1 POP JUMP JUMPDEST PUSH0 PUSH2 0x61E DUP3 PUSH2 0x46A JUMP JUMPDEST SWAP2 POP PUSH2 0x629 DUP4 PUSH2 0x46A JUMP JUMPDEST SWAP3 POP DUP3 DUP3 SUB SWAP1 POP DUP2 DUP2 GT ISZERO PUSH2 0x641 JUMPI PUSH2 0x640 PUSH2 0x52E JUMP JUMPDEST JUMPDEST SWAP3 SWAP2 POP POP JUMP JUMPDEST PUSH0 PUSH2 0x651 DUP3 PUSH2 0x46A JUMP JUMPDEST SWAP2 POP PUSH2 0x65C DUP4 PUSH2 0x46A JUMP JUMPDEST SWAP3 POP DUP3 DUP3 ADD SWAP1 POP DUP1 DUP3 GT ISZERO PUSH2 0x674 JUMPI PUSH2 0x673 PUSH2 0x52E JUMP JUMPDEST JUMPDEST SWAP3 SWAP2 POP POP JUMP JUMPDEST PUSH32 0x4E487B7100000000000000000000000000000000000000000000000000000000 PUSH0 MSTORE PUSH1 0x12 PUSH1 0x4 MSTORE PUSH1 0x24 PUSH0 REVERT JUMPDEST PUSH0 PUSH2 0x6B1 DUP3 PUSH2 0x46A JUMP JUMPDEST SWAP2 POP PUSH2 0x6BC DUP4 PUSH2 0x46A JUMP JUMPDEST SWAP3 POP DUP3 PUSH2 0x6CC JUMPI PUSH2 0x6CB PUSH2 0x67A JUMP JUMPDEST JUMPDEST DUP3 DUP3 DIV SWAP1 POP SWAP3 SWAP2 POP POP JUMP JUMPDEST PUSH32 0x496E70757420746F6F206C617267650000000000000000000000000000000000 PUSH0 DUP3 ADD MSTORE POP JUMP JUMPDEST PUSH0 PUSH2 0x70B PUSH1 0xF DUP4 PUSH2 0x59C JUMP JUMPDEST SWAP2 POP PUSH2 0x716 DUP3 PUSH2 0x6D7 JUMP JUMPDEST PUSH1 0x20 DUP3 ADD SWAP1 POP SWAP2 SWAP1 POP JUMP JUMPDEST PUSH0 PUSH1 0x20 DUP3 ADD SWAP1 POP DUP2 DUP2 SUB PUSH0 DUP4 ADD MSTORE PUSH2 0x738 DUP2 PUSH2 0x6FF JUMP JUMPDEST SWAP1 POP SWAP2 SWAP1 POP JUMP JUMPDEST PUSH0 PUSH2 0x749 DUP3 PUSH2 0x46A JUMP JUMPDEST SWAP2 POP PUSH32 0xFFFFFFFFFFFFFFFFFFFFFFFFFFFFFFFFFFFFFFFFFFFFFFFFFFFFFFFFFFFFFFFF DUP3 SUB PUSH2 0x77B JUMPI PUSH2 0x77A PUSH2 0x52E JUMP JUMPDEST JUMPDEST PUSH1 0x1 DUP3 ADD SWAP1 POP SWAP2 SWAP1 POP JUMP JUMPDEST PUSH32 0x43616E6E6F7420646976696465206279207A65726F0000000000000000000000 PUSH0 DUP3 ADD MSTORE POP JUMP JUMPDEST PUSH0 PUSH2 0x7BA PUSH1 0x15 DUP4 PUSH2 0x59C JUMP JUMPDEST SWAP2 POP PUSH2 0x7C5 DUP3 PUSH2 0x786 JUMP JUMPDEST PUSH1 0x20 DUP3 ADD SWAP1 POP SWAP2 SWAP1 POP JUMP JUMPDEST PUSH0 PUSH1 0x20 DUP3 ADD SWAP1 POP DUP2 DUP2 SUB PUSH0 DUP4 ADD MSTORE PUSH2 0x7E7 DUP2 PUSH2 0x7AE JUMP JUMPDEST SWAP1 POP SWAP2 SWAP1 POP JUMP JUMPDEST PUSH0 PUSH2 0x7F8 DUP3 PUSH2 0x46A JUMP JUMPDEST SWAP2 POP PUSH2 0x803 DUP4 PUSH2 0x46A JUMP JUMPDEST SWAP3 POP DUP3 PUSH2 0x813 JUMPI PUSH2 0x812 PUSH2 0x67A JUMP JUMPDEST JUMPDEST DUP3 DUP3 MOD SWAP1 POP SWAP3 SWAP2 POP POP JUMP INVALID LOG2 PUSH5 0x6970667358 0x22 SLT KECCAK256 PUSH1 0x27 PUSH17 0xE18EFD94BFE2D60E3F469E48F11F883D27 CODESIZE 0xDB 0xD6 0xAA PUSH17 0xF4C253BE74254364736F6C634300082200 CALLER "
		},
		"gasEstimates": {
			"creation": {
				"codeDepositCost": "426400",
				"executionCost": "459",
				"totalCost": "426859"
			},
			"external": {
				"add(uint256,uint256)": "infinite",
				"divide(uint256,uint256)": "infinite",
				"factorial(uint256)": "infinite",
				"modulus(uint256,uint256)": "infinite",
				"multiply(uint256,uint256)": "infinite",
				"power(uint256,uint256)": "infinite",
				"sqrt(uint256)": "infinite",
				"subtract(uint256,uint256)": "infinite"
			}
		},
		"methodIdentifiers": {
			"add(uint256,uint256)": "771602f7",
			"divide(uint256,uint256)": "f88e9fbf",
			"factorial(uint256)": "83714834",
			"modulus(uint256,uint256)": "ce406417",
			"multiply(uint256,uint256)": "165c4a16",
			"power(uint256,uint256)": "c04f01fc",
			"sqrt(uint256)": "677342ce",
			"subtract(uint256,uint256)": "3ef5e445"
		}
	},
	"abi": [
		{
			"inputs": [
				{
					"internalType": "uint256",
					"name": "a",
					"type": "uint256"
				},
				{
					"internalType": "uint256",
					"name": "b",
					"type": "uint256"
				}
			],
			"name": "add",
			"outputs": [
				{
					"internalType": "uint256",
					"name": "",
					"type": "uint256"
				}
			],
			"stateMutability": "pure",
			"type": "function"
		},
		{
			"inputs": [
				{
					"internalType": "uint256",
					"name": "a",
					"type": "uint256"
				},
				{
					"internalType": "uint256",
					"name": "b",
					"type": "uint256"
				}
			],
			"name": "divide",
			"outputs": [
				{
					"internalType": "uint256",
					"name": "",
					"type": "uint256"
				}
			],
			"stateMutability": "pure",
			"type": "function"
		},
		{
			"inputs": [
				{
					"internalType": "uint256",
					"name": "n",
					"type": "uint256"
				}
			],
			"name": "factorial",
			"outputs": [
				{
					"internalType": "uint256",
					"name": "",
					"type": "uint256"
				}
			],
			"stateMutability": "pure",
			"type": "function"
		},
		{
			"inputs": [
				{
					"internalType": "uint256",
					"name": "a",
					"type": "uint256"
				},
				{
					"internalType": "uint256",
					"name": "b",
					"type": "uint256"
				}
			],
			"name": "modulus",
			"outputs": [
				{
					"internalType": "uint256",
					"name": "",
					"type": "uint256"
				}
			],
			"stateMutability": "pure",
			"type": "function"
		},
		{
			"inputs": [
				{
					"internalType": "uint256",
					"name": "a",
					"type": "uint256"
				},
				{
					"internalType": "uint256",
					"name": "b",
					"type": "uint256"
				}
			],
			"name": "multiply",
			"outputs": [
				{
					"internalType": "uint256",
					"name": "",
					"type": "uint256"
				}
			],
			"stateMutability": "pure",
			"type": "function"
		},
		{
			"inputs": [
				{
					"internalType": "uint256",
					"name": "base",
					"type": "uint256"
				},
				{
					"internalType": "uint256",
					"name": "exponent",
					"type": "uint256"
				}
			],
			"name": "power",
			"outputs": [
				{
					"internalType": "uint256",
					"name": "",
					"type": "uint256"
				}
			],
			"stateMutability": "pure",
			"type": "function"
		},
		{
			"inputs": [
				{
					"internalType": "uint256",
					"name": "x",
					"type": "uint256"
				}
			],
			"name": "sqrt",
			"outputs": [
				{
					"internalType": "uint256",
					"name": "",
					"type": "uint256"
				}
			],
			"stateMutability": "pure",
			"type": "function"
		},
		{
			"inputs": [
				{
					"internalType": "uint256",
					"name": "a",
					"type": "uint256"
				},
				{
					"internalType": "uint256",
					"name": "b",
					"type": "uint256"
				}
			],
			"name": "subtract",
			"outputs": [
				{
					"internalType": "uint256",
					"name": "",
					"type": "uint256"
				}
			],
			"stateMutability": "pure",
			"type": "function"
		}
	]
}